:020000040800F2
:1000000000800220E90C00082D0C00082F0C0008CD
:10001000310C0008330C0008350C0008000000000B
:10002000000000000000000000000000370C000885
:10003000390C0008000000003B0C00083D0C0008D3
:10004000390D0008390D0008390D0008390D000878
:10005000390D0008390D0008390D0008390D000868
:10006000390D0008390D0008390D0008390D000858
:10007000390D0008390D0008390D0008390D000848
:10008000450C0008550C0008390D0008390D000812
:10009000390D0008390D0008390D0008390D000828
:1000A000390D0008390D0008390D0008390D000818
:1000B000390D0008390D000800000000390D000856
:1000C000390D0008390D0008390D0008390D0008F8
:1000D000390D0008390D0008390D0008390D0008E8
:1000E000390D0008390D0008000000000000000074
:1000F0000000000000000000000000000000000000
:1001000000000000390D000800000000390D000853
:10011000390D000800000000390D00080000000043
:10012000390D0008390D0008390D0008390D000897
:10013000390D0008390D0008390D000800000000D5
:10014000390D0008390D0008390D0008390D000877
:10015000390D0008390D0008390D0008390D000867
:10016000390D0008390D0008390D000800000000A5
:1001700000000000390D0008000000000000000031
:10018000390D0008390D0008390D0008390D000837
:08019000390D00080000000019
:1001980010B5054C237833B9044B13B10448AFF3B9
:1001A80000800123237010BDD00100200000000052
:1001B800EC27000808B5034B1BB103490348AFF30C
:1001C800008008BD00000000D4010020EC270008D2
:1001D800034613F8012B002AFBD1181A013870477F
:1001E80081F0004102E000BF83F0004330B54FEAE0
:1001F80041044FEA430594EA050F08BF90EA020F4D
:100208001FBF54EA000C55EA020C7FEA645C7FEADF
:10021800655C00F0E2804FEA5454D4EB5555B8BF02
:100228006D420CDD2C4480EA020281EA030382EA73
:10023800000083EA010180EA020281EA0303362D05
:1002480088BF30BD11F0004F4FEA01314FF4801CD8
:100258004CEA113102D0404261EB410113F0004FEA
:100268004FEA03334CEA133302D0524263EB4303A1
:1002780094EA050F00F0A780A4F10104D5F1200E3F
:100288000DDB02FA0EFC22FA05F2801841F100019A
:1002980003FA0EF2801843FA05F359410EE0A5F16E
:1002A80020050EF1200E012A03FA0EFC28BF4CF09F
:1002B800020C43FA05F3C01851EBE37101F0004555
:1002C80007D54FF0000EDCF1000C7EEB00006EEB62
:1002D8000101B1F5801F1BD3B1F5001F0CD34908EC
:1002E8005FEA30004FEA3C0C04F101044FEA445243
:1002F80012F5800F80F09A80BCF1004F08BF5FEACA
:10030800500C50F1000041EB045141EA050130BDA9
:100318005FEA4C0C404141EB010111F4801FA4F14C
:100328000104E9D191F0000F04BF01460020B1FAA1
:1003380081F308BF2033A3F10B03B3F120020CDAD9
:100348000C3208DD02F1140CC2F10C0201FA0CF0B7
:1003580021FA02F10CE002F11402D8BFC2F1200C1C
:1003680001FA02F120FA0CFCDCBF41EA0C019040D2
:10037800E41AA2BF01EB0451294330BD6FEA04041B
:100388001F3C1CDA0C340EDC04F11404C4F1200206
:1003980020FA04F001FA02F340EA030021FA04F318
:1003A80045EA030130BDC4F10C04C4F1200220FA6F
:1003B80002F001FA04F340EA0300294630BD21FAAD
:1003C80004F0294630BD94F0000F83F4801306BF73
:1003D80081F480110134013D4EE77FEA645C18BF67
:1003E8007FEA655C29D094EA050F08BF90EA020FFE
:1003F80005D054EA000C04BF1946104630BD91EAF6
:10040800030F1EBF0021002030BD5FEA545C05D1F8
:100418004000494128BF41F0004130BD14F5800437
:100428003CBF01F5801130BD01F0004545F0FE41AB
:1004380041F470014FF0000030BD7FEA645C1ABFE0
:10044800194610467FEA655C1CBF0B46024650EA17
:10045800013406BF52EA033591EA030F41F4002143
:1004680030BD00BF90F0000F04BF0021704730B5C9
:100478004FF4806404F132044FF000054FF000019E
:1004880050E700BF90F0000F04BF0021704730B55F
:100498004FF4806404F1320410F0004548BF404234
:1004A8004FF000013EE700BF42004FEAE2014FEA89
:1004B80031014FEA02701FBF12F07F4393F07F4F64
:1004C80081F06051704732F07F4208BF704793F067
:1004D8007F4F04BF41F40021704730B54FF460747A
:1004E80001F0004521F000411CE700BF50EA01027D
:1004F80008BF704730B54FF000050AE050EA010226
:1005080008BF704730B511F0004502D5404261EB95
:1005180041014FF4806404F132045FEA915C3FF4D6
:10052800D8AE4FF003025FEADC0C18BF03325FEA73
:10053800DC0C18BF033202EBDC02C2F1200300FA24
:1005480003FC20FA02F001FA03FE40EA0E0021FA49
:1005580002F11444BDE600BF70B54FF0FF0C4CF437
:10056800E06C1CEA11541DBF1CEA135594EA0C0FE9
:1005780095EA0C0F00F0DEF82C4481EA030621EA24
:100588004C5123EA4C5350EA013518BF52EA03355F
:1005980041F4801143F4801338D0A0FB02CE4FF011
:1005A8000005E1FB02E506F00042E0FB03E54FF041
:1005B8000006E1FB03569CF0000F18BF4EF0010E39
:1005C800A4F1FF04B6F5007F64F5407404D25FEA35
:1005D8004E0E6D4146EB060642EAC62141EA5551E8
:1005E8004FEAC52040EA5E504FEACE2EB4F1FD0C2A
:1005F80088BFBCF5E06F1ED8BEF1004F08BF5FEAA8
:10060800500E50F1000041EB045170BD06F0004659
:1006180046EA010140EA020081EA0301B4EB5C0406
:10062800C2BFD4EB0C0541EA045170BD41F48011FE
:100638004FF0000E013C00F3AB8014F1360FDEBF23
:10064800002001F0004170BDC4F10004203C35DAFF
:100658000C341BDC04F11404C4F1200500FA05F382
:1006680020FA04F001FA05F240EA020001F0004223
:1006780021F0004110EBD37021FA04F642EB060199
:100688005EEA430E08BF20EAD37070BDC4F10C04C3
:10069800C4F1200500FA04F320FA05F001FA04F287
:1006A80040EA020001F0004110EBD37041F1000173
:1006B8005EEA430E08BF20EAD37070BDC4F120057E
:1006C80000FA05F24EEA020E20FA04F301FA05F2E6
:1006D80043EA020321FA04F001F0004121FA04F28E
:1006E80020EA020000EBD3705EEA430E08BF20EA5E
:1006F800D37070BD94F0000F0FD101F00046400098
:1007080041EB010111F4801F08BF013CF7D041EA19
:10071800060195F0000F18BF704703F0004652001D
:1007280043EB030313F4801F08BF013DF7D043EAEE
:100738000603704794EA0C0F0CEA135518BF95EAA4
:100748000C0F0CD050EA410618BF52EA4306D1D12B
:1007580081EA030101F000414FF0000070BD50EA4A
:10076800410606BF1046194652EA430619D094EAD4
:100778000C0F02D150EA013613D195EA0C0F05D1BE
:1007880052EA03361CBF104619460AD181EA030112
:1007980001F0004141F0FE4141F470014FF00000CA
:1007A80070BD41F0FE4141F4780170BD70B54FF065
:1007B800FF0C4CF4E06C1CEA11541DBF1CEA1355E5
:1007C80094EA0C0F95EA0C0F00F0A7F8A4EB0504C7
:1007D80081EA030E52EA03354FEA013100F08880BE
:1007E8004FEA03334FF0805545EA131343EA126387
:1007F8004FEA022245EA111545EA10654FEA00263C
:100808000EF000419D4208BF964244F1FD0404F5F4
:10081800407402D25B084FEA3202B61A65EB030550
:100828005B084FEA32024FF480104FF4002CB6EB0D
:10083800020E75EB030E22BFB61A754640EA0C008D
:100848005B084FEA3202B6EB020E75EB030E22BFCD
:10085800B61A754640EA5C005B084FEA3202B6EB0E
:10086800020E75EB030E22BFB61A754640EA9C00CD
:100878005B084FEA3202B6EB020E75EB030E22BF9D
:10088800B61A754640EADC0055EA060E18D04FEA5B
:10089800051545EA16754FEA06164FEAC30343EAFB
:1008A80052734FEAC2025FEA1C1CC0D111F4801FC8
:1008B8000BD141EA00014FF000004FF0004CB6E7C1
:1008C80011F4801F04BF01430020B4F1FD0C88BF60
:1008D800BCF5E06F3FF6AFAEB5EB030C04BFB6EB6B
:1008E800020C5FEA500C50F1000041EB045170BD5E
:1008F8000EF0004E4EEA113114EB5C04C2BFD4EB8B
:100908000C0541EA045170BD41F480114FF0000E0E
:10091800013C90E645EA060E8DE60CEA135594EA8A
:100928000C0F08BF95EA0C0F3FF43BAF94EA0C0F8D
:100938000AD150EA01347FF434AF95EA0C0F7FF402
:1009480025AF104619462CE795EA0C0F06D152EA56
:1009580003353FF4FDAE1046194622E750EA41063A
:1009680018BF52EA43067FF4C5AE50EA41047FF44B
:100978000DAF52EA43057FF4EBAE12E74FF0FF3CB0
:1009880006E000BF4FF0010C02E000BF4FF0010C81
:100998004DF804CD4FEA410C7FEA6C5C4FEA430CFA
:1009A80018BF7FEA6C5C1BD001B050EA410C0CBF49
:1009B80052EA430C91EA030F02BF90EA020F0020AB
:1009C800704710F1000F91EA030F58BF994208BF12
:1009D80090422CBFD8176FEAE37040F001007047CF
:1009E8004FEA410C7FEA6C5C02D150EA013C07D126
:1009F8004FEA430C7FEA6C5CD6D152EA033CD3D071
:100A08005DF8040B704700BF8446104662468C466A
:100A18001946634600E000BF01B5FFF7B7FF00289D
:100A280048BF10F1000F01BD4DF808EDFFF7F4FFC6
:100A38000CBF012000205DF808FB00BF4DF808ED51
:100A4800FFF7EAFF34BF012000205DF808FB00BF74
:100A58004DF808EDFFF7E0FF94BF012000205DF896
:100A680008FB00BF4DF808EDFFF7CEFF94BF01204B
:100A780000205DF808FB00BF4DF808EDFFF7C4FF44
:100A880034BF012000205DF808FB00BF4FEA410C8D
:100A98007FEA6C5C02D150EA013C0AD14FEA430C70
:100AA8007FEA6C5C02D152EA033C02D14FF00000AD
:100AB80070474FF0010070474FEA410212F50012EB
:100AC80015D211D56FF47873B3EB625212D94FEA8D
:100AD800C12343F0004343EA505311F0004F23FA77
:100AE80002F018BF404270474FF00000704750EACC
:100AF800013005D111F0004008BF6FF00040704789
:100B08004FF00000704700BF024A136801331360BA
:100B1800704700BFFC010020014B1868704700BFF8
:100B2800FC01002038B50446FFF7F6FF0546B4F18E
:100B3800FF3F00D00134FFF7EFFF401BA042FAD37C
:100B480038BD38B5036C196804682568436C03F030
:100B58001C0304229A400A4215D015F0040F12D043
:100B6800236813F0200F03D1236823F004032360C4
:100B7800436C03F01C02016C042393404B60036B2D
:100B880003B1984738BD02229A400A421CD015F09A
:100B9800020F19D0236813F0200F06D1236823F021
:100BA8000A032360012380F82530436C03F01C02FC
:100BB800016C022393404B60002380F82430C36A01
:100BC800002BDFD09847DDE7082202FA03F30B4237
:100BD800D8D015F0080FD5D0236823F00E03236072
:100BE800436C03F01C03016C012202FA03F34B600F
:100BF800C26380F82520002380F82430436B002B43
:100C0800C0D09847BEE7436959404161704708B56D
:100C180040214FF09040FFF7F6FF4FF4FA70FFF7CE
:100C280081FFF5E77047FEE7FEE7FEE7FEE770475E
:100C38007047704708B5FFF767FF08BD08B5024859
:100C4800FFF77FFF08BD00BF0002002008B502487B
:100C5800FFF777FF08BD00BF9402002008B50346E0
:100C68000B4A126842B10A4A106803446A46934222
:100C780006D8074A136008BD054A06491160F2E71D
:100C880000F058F80C2303604FF0FF30F3E700BF83
:100C9800EC010020580300200F49D1F8883043F4B4
:100CA8007003C1F888300D4B1A6842F001021A60CF
:100CB800002098601A6822F0A85222F410221A60C4
:100CC8004FF48052DA601A6822F480221A60986120
:100CD8004FF000638B60704700ED00E000100240A9
:100CE800DFF834D0002103E00C4B5B58435004314B
:100CF8000B480C4B42189A42F6D30B4A02E00023E9
:100D080042F8043B094B9A42F9D3FFF7C5FF00F0BC
:100D180017F8FFF77CFFFEE700800220A02A0008F2
:100D280000000020D0010020D0010020580300203E
:100D3800FEE70000014B1868704700BF0000002064
:100D480070B50D4E0D4CA41BA4100025A54209D169
:100D58000B4E0C4C01F046FDA41BA4100025A54227
:100D680005D170BD56F8253098470135EEE756F89D
:100D7800253098470135F2E7902A0008902A0008A4
:100D8800902A0008942A000802440346934200D19E
:100D9800704703F8011BF9E72DE9FF4755EC104BA5
:100DA8000D9FDDF830A0002D0E4691461946B8BFBC
:100DB80022462B4627F02007BBBF05F100431D46FE
:100DC80000232D23B8BF1446462F0B7004D0452F9F
:100DD80000D10136022100E0032103AB019302ABED
:100DE80000933246534645EC104B00F0ADFB472FBD
:100DF800804602D119F0010F26D0462F08EB0609CC
:100E080011D198F80030302B0AD100220023204657
:100E18002946FFF709FE18B9C6F10106CAF80060AD
:100E2800DAF8003099440022002320462946FFF7CB
:100E3800FBFD38B93022039B4B4505D2591C039161
:100E48001A70F8E7CDF80C90039B0E9AA3EB0803F1
:100E58004046136004B0BDE8F087F7B500290446A2
:100E6800BABF49422D232B23092904F8022B4370CA
:100E780020DD0DF107031F460A2691FBF6F506FB58
:100E880015113031092D03F8011C03F1FF322946F1
:100E980009DC3031023B02F8011CBB42224604D374
:100EA800101A03B0F0BD1346E7E713F8012B04F856
:100EB800012BF2E7302319448370021DC170EFE75C
:100EC8002DE9F04F8DB00C46DDF8588016461F46C8
:100ED800054601F0F1F8036804931846FFF778F91E
:100EE80000230A93D8F800300590073323F007034E
:100EF80003F1080294F818A0D4F800B0C8F800204C
:100F0800D3E90023C4E91223D4E9128929F0004364
:100F18000793CDF818804FF0FF32A74BDDE90601A3
:100F2800FFF7B4FD70BB4FF0FF32A34BDDE90601BC
:100F3800FFF78EFD30BB0022002340464946FFF7ED
:100F48007DFD10B12D2384F843309C4A9C4BBAF1A7
:100F5800470F8CBF9046984603232BF00402236169
:100F680022604FF00009009733460BAA2146284615
:100F780000F0E6F9013040F08D804FF0FF300DB001
:100F8800BDE8F08F42464B4640464946FFF77EFD96
:100F980010B18C4A8C4BDAE761684B1C4BF48062C9
:100FA8000AA83ED1062363600023CDE9020309ABFA
:100FB800009349EC108B0DF123032260CDF804A0B7
:100FC80061682846FFF7E8FE0AF0DF03472B8046F2
:100FD80009D1099BD81C02DB6268934247DDAAF15C
:100FE800020A5FFA8AFABAF1650F099924D8013919
:100FF800524604F150000991FFF72FFF0A9A13187F
:10100800012A8146236102DC2268D10701D5013318
:1010180023619DF82330002BA5D02D2384F843307D
:10102800A1E7BAF1670F00F07781BAF1470FBBD19A
:101038000029B9D10123B6E7BAF1660F19D1002901
:1010480063680CDD216113B92268D20702D5013328
:101058000B442361099BA3654FF00009D9E713B935
:101068002268D00701D50233F3E70123F1E74FF0F7
:10107800670ADDE90932934205DB22682361D1075B
:10108800E8D50133E5E7002BD4BFC3F10203012300
:101098001344DEE723685A0507D4236942463146DC
:1010A8002846B84701302BD167E7BAF1650F40F2FF
:1010B800DC8000220023D4E91201FFF7B5FC0028E8
:1010C80033D00123414A31462846B84701303FF41E
:1010D80054AFDDE909239A4202DB2368D8070FD50C
:1010E800DDE9042331462846B84701303FF445AFCF
:1010F8004FF0000804F11A090A9B013B434509DC3B
:1011080023689B0700F10381E0680B9B9842B8BFF6
:10111800184634E701234A4631462846B847013085
:101128003FF42BAF08F10108E6E7099B002B2BDC05
:101138000123264A31462846B84701303FF41DAFFF
:10114800099B23B90A9B13B92368D907D8D5DDE9C8
:10115800042331462846B84701303FF40EAF4FF01C
:10116800000904F11A0A099B5B424B4501DC0A9B02
:1011780094E70123524631462846B84701303FF4E8
:10118800FCAE09F10109EEE70A9AA36D9A42A8BFDD
:101198001A46002A914607DD13463146424628463C
:1011A800B84701303FF4E9AE04F11A034FF0000BE1
:1011B80029EAE979069315E0FFFFEF7F0C2800087C
:1011C8000828000814280008102800081828000813
:1011D8000123069A31462846B84701303FF4CDAE80
:1011E8000BF1010BD4F858A0AAEB09035B45EFDC1F
:1011F800DDE909239A42D04415DB2368DA0712D4C3
:101208000A9B0999A3EB0A02A3EB010A9245A8BF1E
:101218009246BAF1000F0EDC4FF000082AEAEA7A8B
:1012280004F11A0919E0DDE9042331462846B847D4
:101238000130E5D1A1E65346424631462846B84733
:101248000130E9D199E601234A4631462846B84794
:1012580001303FF492AE08F10108DDE909239B1A39
:10126800A3EB0A034345EEDC4AE70A9A012A01DCAC
:10127800DB073AD50123424631462846B8470130B4
:101288003FF47BAEDDE9042331462846B8470130F8
:1012980008F101083FF471AE0A9B002203F1FF3AFE
:1012A800D4E912010023FFF7BFFBC8B953464246F1
:1012B80031462846B84701300ED15EE60123524632
:1012C80031462846B84701303FF457AE08F10108C7
:1012D8000A9B013B4345F1DC4B4604F15002DEE634
:1012E8004FF0000804F11A0AF2E70123DFE70123AF
:1012F8004A4631462846B84701303FF43EAE08F129
:101308000108E3680B9A9B1A4345F0DCFCE64FF0B2
:10131800000804F11909F4E700293FF48BAE002313
:10132800CDE9020309AB009349EC108B2260CDF89C
:1013380004A00DF123032846FFF72EFD804648E65A
:101348002DE9F04791461F468A680B69DDF8208031
:101358009342B8BF1346C9F8003091F843200646B7
:101368000C4612B10133C9F800302368990642BF10
:10137800D9F800300233C9F80030256815F00605A1
:1013880007D104F1190AE368D9F800209B1AAB4287
:1013980028DC94F843302268003318BF01239206F2
:1013A8002DD404F1430239463046C047013020D0DD
:1013B8002368E568D9F8002003F00603042B08BF6A
:1013C800AD1AA36822690CBF25EAE575002593428A
:1013D800C4BF9B1AED184FF000091A344D451AD1B5
:1013E800002008E00123524639463046C047013004
:1013F80003D14FF0FF30BDE8F0870135C3E7E118AE
:101408005A1C302081F84300224494F8451082F891
:1014180043100233C5E70123224639463046C04708
:101428000130E6D009F10109D8E72DE9F74F036942
:101438000C69A3428046C0F28280013C01F1140786
:101448004FEA840C00F1140657F8245056F824008B
:1014580006EB0C03013507EB0C090193B0FBF5F51E
:1014680095B34FF0000A3846B646D34650F8042BD9
:1014780093B205FB03A34FEA134A9BB2ABEB0303FA
:10148800120CDEF800B005FB02A213FA8BF34FEA48
:10149800124A1FFA82FBDEF80020CBEB124202EB65
:1014A80023429BB243EA024381454FEA224B4EF85E
:1014B800043BDBD256F80C3033B9019B043B9E4207
:1014C8001A4630D3C8F81040404601F02BF80028DF
:1014D80025DB013530464FF0000C57F8042BD0F8C7
:1014E80000E093B2ACEB0303120C13FA8EF3C2EBD9
:1014F8001E4202EB23429BB243EA0243B9454FEA3C
:10150800224C40F8043BE8D256F8242006EB84032A
:101518002AB9043B9E421A460BD3C8F81040284605
:1015280003B0BDE8F08F1268043B002ACAD1013C21
:10153800C5E71268043B002AEFD1013CEAE7002026
:10154800EEE70000000000002DE9F04F57EC106BAB
:1015580097B0456A069104460B921293DDF8808095
:10156800CDE900673DB9102000F0B4FD6062C0E924
:1015780001550560C560636A196851B15A684A60C7
:10158800012393408B60204600F0EBFD636A002244
:101598001A603B1EBBBF23F00043019300230122C6
:1015A800ACBFC8F80030C8F80020AF4BDDF80480A5
:1015B80033EA080314D1129A42F20F731360009BA6
:1015C80023B9C8F31300002800F04285219BDFF8F7
:1015D800ACB2002B00F044850BF1030300F03EBDD4
:1015E800DDE900670022002330463946FFF71CFA80
:1015F800814668B1129A01231360219B002B00F0E9
:1016080024859A4B219A03F1FF3B136000F028BD13
:1016180014AA15A947EC106B204600F0FAFFC8F38E
:101628000A550490002D7CD0C7F3130343F07F5B69
:10163800B2464BF4401BA5F2FF35CDF84C90002282
:101648008B4B50465946FEF7CFFD81A3D3E90023C3
:10165800FEF782FF80A3D3E90023FEF7C7FD064605
:1016680028460F46FEF70EFF7DA3D3E90023FEF7B9
:1016780073FF02460B4630463946FEF7B7FD06466D
:101688000F46FFF719FA00228246002330463946F2
:10169800FFF7D4F948B15046FEF7F4FE32463B4610
:1016A800FFF7C2F908B90AF1FF3ABAF1160F59D88B
:1016B800704901EBCA01DDE90023D1E90001FFF718
:1016C800DBF9002850D00AF1FF3A00230F93149B4E
:1016D8005D1BB5F1010849BFC5F10103002305935E
:1016E8004FF0000858BF0593BAF1000F3EDB002306
:1016F800D044CDF838A00793069B092B00F29080C0
:10170800052BC4BF043B0693069BA3F10203CCBF81
:1017180000250125032B00F28F80DFE803F07D7F91
:101728003171DDE914531D4405F23240202813DDE0
:10173800C0F14000009B08FA00F805F2124023FAB5
:1017480000F048EA0000FEF78DFE01238246A1F171
:10175800F87B013D139372E7009BC0F1200003FA68
:1017680000F0F0E70123B1E70F90B0E7059BA3EB8A
:101778000A030593CAF10003079300230E93BBE7FE
:1017880001230A930B9B002B59DD02939946666A45
:1017980000227260042202F114009842716853D941
:1017A800204600F0AAFC636A3060B9F10E0FD3F846
:1017B80000B000F2E680002D00F0E3809DED007B94
:1017C800BAF1000F8DED107B74DD2A4A0AF00F0381
:1017D80002EBC30393ED007B4FEA2A16F0068DED6A
:1017E800087B65D5244BDDE91001D3E90823FEF712
:1017F800DDFFCDE9000106F00F0603251E4F4CE082
:1018080001230A930B9B534403F1010902934B46AE
:10181800012BB8BF0123BAE70023B2E70023F0E7A2
:101828000125002306930A954FF0FF33029399464A
:10183800002212230B92AAE701230A93F4E701235B
:10184800029399461A46F5E7013171605200A2E702
:1018580061436F63A787D23FB3C8608B288AC63FAE
:10186800FB799F501344D33F0000F07F19280008EC
:101878000000F83FB028000888280008232800083E
:10188800F10708D5DDE90801D7E90023FEF764FE72
:10189800CDE90801013576100837002EF0D1DDE9D1
:1018A8000823DDE90001FEF781FFCDE900011AE018
:1018B8000225A3E700F0A080CAF100069F4BA04FC5
:1018C80006F00F0203EBC203D3E90023DDE91001A0
:1018D800FEF742FECDE90001361100230225002E55
:1018E8007FD1002BE1D10F9B002B00F08780DDE931
:1018F80000670022934B30463946FFF79FF80028CF
:101908007CD0B9F1000F79D0029B002B35DD0AF1AC
:10191800FF330893394600228B4B3046FEF71CFEF6
:10192800CDE90001029F01352846FEF7ABFDDDE950
:101938000023FEF711FE0022844BFEF757FC0546F4
:10194800A1F15076002F5DD10022814BDDE9000125
:10195800FEF74AFC2A463346CDE90001FFF78CF82A
:10196800002840F088822A4606F10043DDE900019C
:10197800FFF764F8002840F07C82DDE91023CDE908
:101988000023159B002BC0F25081BAF10E0F00F313
:101998004C816A4B03EBCA0393ED007B0B9B002B36
:1019A8008DED027B80F2D880B9F1000F00F3D4806E
:1019B80040F05E820022664B51EC170BFEF7CCFD1F
:1019C800DDE90023FFF74EF84F464E46002840F069
:1019D800348231230BF101058BF800300AF1010A3A
:1019E8002FE2F20705D5D7E90023FEF7B5FD01354B
:1019F80001237610083772E7022574E7CDF820A096
:101A08004F4691E74D4B03EBC70353E902010A9B8D
:101A1800002B47D002460B4600204E49FEF7C6FE73
:101A28002A463346FEF7E0FBCDE90C015D46DDE9C9
:101A38000001FFF741F80646FEF724FD02460B4673
:101A4800DDE90001FEF7D0FB303605F8016BDDE972
:101A58000C23CDE90001FEF7F1FF002863D1DDE991
:101A6800002300203749FEF7BFFBDDE90C23FEF712
:101A7800E5FF002840F0B780A5EB0B039F427FF7F6
:101A88007CAF0022304BDDE90C01FEF765FD00223A
:101A9800CDE90C012C4BDDE90001FEF75DFDCDE938
:101AA8000001C4E72A463346FEF756FDCDE90C018E
:101AB8000BEB07055E46DDE90001FEF7FDFF074673
:101AC800FEF7E0FC303702460B46DDE90001FEF781
:101AD8008BFB06F8017BAE42CDE900014FF0000216
:101AE80026D11C4BDDE90C01FEF780FB02460B46B4
:101AF800DDE90001FEF7C0FF002874D1DDE90C2301
:101B080000201449FEF770FB02460B46DDE9000190
:101B1800FEF794FF00283FF430AF15F8013C302B56
:101B280005F1FF3202D0DDF820A04AE01546F4E7BF
:101B3800054BFEF711FDCDE90001BCE7B028000810
:101B4800882800080000F03F0000244000001C40E6
:101B5800000014400000E03FDDE900675D46DDE974
:101B6800022330463946FEF721FEFEF7A5FF8046E0
:101B7800FEF788FCDDE90223FEF7EEFC02460B4681
:101B88003046394608F13006FEF72EFB05F8016BA2
:101B9800A5EB0B06B14502460B4639D1FEF726FBED
:101BA800DDE9022306460F46FEF766FFC8B9DDE900
:101BB800022330463946FEF737FF10B118F0010FFF
:101BC8000FD10499204600F0CCFA0023129A2B700A
:101BD8000AF101031360219B002B00F041821D6074
:101BE8003EE2CDF820A015F8012C392A05F1FF3383
:101BF80008D19B450AD1089B0133089330238BF801
:101C080000305B461A7801321A708CE71D46EAE705
:101C180000229B4BFEF7A0FC0022002306460F463D
:101C2800FEF702FF00289AD0CBE70A9A002A00F0B4
:101C38008B80069A012A6EDC139A002A67D003F279
:101C48003343079F059D059A01211A4420460592B2
:101C5800984400F026FB0646002D0CDDB8F1000F75
:101C680009DD4545059A2B46A8BF4346D21A059279
:101C7800ED1AA8EB0308079BEBB10A9B002B67D072
:101C88008FB131463A46204600F0AAFB049A014635
:101C98000646204600F00EFB04990890204600F006
:101CA80060FA089B0493079BDA1B04D0049920462A
:101CB80000F096FB04900121204600F0F2FA0E9BFA
:101CC8000746002B00F0D0811A460146204600F056
:101CD80087FB069B012B074640DC009B002B39D174
:101CE800019BC3F31303002B36D1019B23F0004360
:101CF8001B0D1B052BB1059B0133059308F101084A
:101D0800012307930E9B002B2AD1012030E0149B5E
:101D1800C3F1360395E7079B09F1FF37BB42BFBF05
:101D2800079B0797FA1A0E9BBBBF9B180E93DF1BE6
:101D38000027B9F1000FB5BF059B059DA3EB090569
:101D48004B46B8BF00237EE7079F059D0A9E83E7A1
:101D5800079AABE70023D4E7009BD2E70023079359
:101D68003B6907EB8303186900F04DFAC0F12000C6
:101D7800404410F01F0047D0C0F12003042B3BDD86
:101D8800059BC0F11C000344059305448044059B52
:101D9800002B05DD1A460499204600F06FFB0490DD
:101DA800B8F1000F05DD39464246204600F066FBD3
:101DB80007460F9B53B33946049800F0B3FB00283D
:101DC80024DA00230A220499204600F0E1F90A9B4C
:101DD80004900AF1FF3A002B00F04D8100233146B0
:101DE8000A22204600F0D4F9029B002B06464FDC5D
:101DF800069B022B4CDD11E0C9D0059A1C331A440E
:101E080005921D449844C2E70346F6E7B9F1000F6E
:101E180038DC069B022B35DDCDF80890029B63B9B0
:101E280039460522204600F0B3F9014607460498D2
:101E380000F078FB00283FF7CCAD0B9B5D466FEABE
:101E4800030A4FF000093946204600F08AF9002EAF
:101E58003FF4B7AEB9F1000F05D0B14503D04946FC
:101E6800204600F07EF93146204600F07AF9A8E6CF
:101E780000273E46E1E7DDF820A03E46A9E500BF81
:101E8800000024400A9BCDF80890002B00F0FA804F
:101E9800002D05DD31462A46204600F0EFFA0646B9
:101EA800079B002B4CD07168204600F026F9326958
:101EB80002320546920006F10C010C3000F012F9CE
:101EC80001222946204600F0D9FA009BCDF814B02B
:101ED80003F00103B1460793064639460498FFF715
:101EE800A4FA4946054600F13008049800F01AFBA8
:101EF800324600903946204600F02EFBC368024661
:101F080003BB01460890049800F00CFB089A0346AE
:101F180011462046089300F024F9089BA3B9069AB5
:101F280092B9079A82B9B8F1390F29D0009B002BD2
:101F380001DD05F13108059B5D1C83F8008082E70F
:101F48003046C2E70123E3E7009A002A04DB25D1E3
:101F5800069A1ABB079A0ABB002BECDD01220499EA
:101F6800204600F08BFA3946049000F0DBFA00288E
:101F780003DCE0D118F0010FDDD0B8F1390FD8D16A
:101F8800059B059A5D1C3923137015F8013C392B04
:101F980005F1FF324FD00133137054E7059A002B37
:101FA80002F1010506DDB8F1390FE9D008F10108A1
:101FB800059BC2E7029A05F8018CA5EB0B03934237
:101FC80021D000230A220499204600F0E1F8B14507
:101FD80004904FF000034FF00A024946204605D10D
:101FE80000F0D6F881460646059576E700F0D0F869
:101FF8003146814600230A22204600F0C9F80646E9
:10200800F2E74FF0000901220499204600F036FA61
:102018003946049000F086FA0028B6DC02D118F0A0
:10202800010FB2D115F8013C302B05F1FF327FF4D6
:102038000AAF1546F6E7934505D131230AF1010A9F
:102048008BF80030FFE615469FE7DFF864B007E03D
:10205800219BDFF860B01BB10BF10803219A1360D4
:10206800584617B0BDE8F08F069B012B7FF735AEB9
:102078000E9B079349E6029B002B03DC069B022B71
:102088003FF7CCAE5D4639460498FFF7CEF900F12C
:10209800300805F8018B029AA5EB0B039A42B0DDD4
:1020A80000230A220499204600F072F80490EAE717
:1020B800182800081A280008044B1B68186A044BE3
:1020C800002808BF1846F030704700BF0000002005
:1020D80064000020024B0146186800F0F7BA00BF00
:1020E8000000002010B5431E0A44914200D110BDE3
:1020F80011F8014B03F8014FF7E770B5456A04463C
:102108000E463DB91020FFF7E5FF6062C0E90155B2
:102118000560C560656AEB6883B1636ADB6853F87C
:102128002600B8B9012101FA06F56A1D9200204679
:1021380000F0BEFA60B1C0E901650EE02122042179
:10214800204600F0B5FA636AE860DB68002BE4D14A
:10215800002070BD026843F826200023C0E903333D
:10216800F7E770B5446A06460D463CB91020FFF7FC
:10217800B1FF7062C0E901440460C4603DB1736A94
:102188006A68DB6853F82210296043F8225070BD52
:102198002DE9F0410D691F4606460C4601F1140C65
:1021A8000023DCF8000081B202FB01710F0C000C67
:1021B80002FB007089B2013301EB00419D424FEAF6
:1021C80010474CF8041BECDCD7B1A368AB4212DC17
:1021D800616830460131FFF790FF2269023204F14D
:1021E8000C01804692000C30FFF77CFF21463046F8
:1021F800FFF7B7FF444604EB850301355F612561AE
:102208002046BDE8F081020C12040346B2B903046B
:10221800102013F07F4F04BF1B02083013F0704FDB
:1022280004BF1B01043013F0404F04BF9B00023071
:10223800002B06DB5B0003D5013070470020E8E780
:1022480020207047036813F0070201460BD0DA0715
:1022580023D4980749BF5B089B0801200B605CBF2B
:102268000B600220704798B2A8B91B0C102013F01D
:10227800FF0F04BF1B0A08301A0704BF1B090430EC
:102288009A0704BF9B080230DA0702D45B0806D01D
:1022980001300B6070471046E9E7002070472020A6
:1022A800704710B50C460121FFF727FF0122446152
:1022B800026110BD2DE9F74F14460A6923699A4255
:1022C800B8BF0B468846BCBFA0461C46D8F810705D
:1022D800D4F81090D8F80830D8F8041007EB09069D
:1022E800B342B8BF0131FFF708FF00F1140505EB51
:1022F800860E2B460022734516D304F1140208F10A
:10230800140102EB890301EB87070093009B0192FC
:1023180093420CD8002E03DD5EF8043D002B5DD0FF
:10232800066103B0BDE8F08F43F8042BE3E7B2F889
:1023380000B0BBF1000F23D08946AC464FF000082F
:1023480059F8044BDCF800A0A3B21FFA8AFA0BFB79
:1023580003A34FEA144ADCF8004043444FEA144808
:102368000BFB0A8404EB1344E2469BB243EA0443A2
:102378004F454FEA14484AF8043B2BD8CCF8048060
:10238800019BB3F802A00432BAF1000F20D02B68E9
:102398008946A8464FF0000BB9F800C0B8F80240CB
:1023A8000AFB0C445C44C4469BB243EA04434CF821
:1023B800043B59F8043BB8F804B01B0C0AFB03B300
:1023C80003EB14434F454FEA134B05D8C8F80430C4
:1023D80004359BE7D446B3E7E046DDE7013E99E7DD
:1023E8002DE9F843154612F0030206460F4607D0BA
:1023F800013A214C002354F82220FFF7C9FE074672
:10240800AD1035D0746A3CB91020FFF763FE7062D6
:10241800C0E901440460C460D6F82480D8F80840B4
:102428004CB940F271213046FFF73BFF0023C8F852
:102438000800044603604FF00008EB070AD5394648
:1024480022463046FFF736FF394681463046FFF7C9
:1024580088FE4F466D100BD0206838B922462146B9
:102468003046FFF727FF2060C0F800800446E4E705
:102478003846BDE8F88300BF782900082DE9F04701
:102488000C464FEA621A236949680AEB0309A368F4
:102498000746164609F10105AB4232DB3846FFF71D
:1024A8002CFE0023804600F114011A4653452BDB0D
:1024B80020692AEAEA7A04F1140316F01F0201EBF4
:1024C8008A0103EB800C25D0C2F1200E00201E6883
:1024D8008A46964030434AF8040B53F8040B9C454F
:1024E80020FA0EF014D8486008B109F10205013D40
:1024F8003846C8F810502146FFF733FE4046BDE87D
:10250800F08701315B00C7E741F823200133CDE7AD
:102518005146DCE7043953F8042B41F8042F9C4555
:10252800F9D8E4E703690A699B1A30B50CD192001F
:10253800143014318418114454F8045D51F8042DF2
:10254800954203D005D30123184630BDA042F3D3EA
:10255800FAE74FF0FF33F7E72DE9F0470D46074656
:10256800114628461446FFF7DDFF061E08D13146FE
:102578003846FFF7C2FD0123C0E90436BDE8F087FD
:10258800A4BF23462C4638466168A6BF1D460026D0
:102598000126FFF7B2FD2B69C660266905F114090B
:1025A80004F1140202EB860709EB830800F1140515
:1025B8004FF0000E52F804AB59F8044B1EFA8AF19A
:1025C800A3B2C91A230CC3EB1A4303EB214389B204
:1025D8004FEA234EC84541EA0343944645F8043B75
:1025E800E8D8BC4504D355F8043D83B10661C5E776
:1025F8005CF8041B1EFA81F31A1402EB11429BB219
:1026080043EA02434FEA224E45F8043BE9E7013E1C
:10261800E9E72DE9F7430E46012159EC108B1546E1
:10262800FFF76BFDC9F30A540746C9F3130334BB1C
:102638000193B8F1000327D002A840F8083DFFF73E
:1026480001FE0099F0B1019AC0F1200302FA03F3E8
:102658000B43C2407B610192019BBB61002B14BFFD
:10266800022101213961C4B1A4F233440444346025
:10267800C0F135002860384603B0BDE8F08343F464
:102688008013D5E77961E7E701A8FFF7DBFD019B38
:102698007B61012139612030E5E707EB8103A0F276
:1026A800324030601869FFF7AEFDC0EB4110E1E73A
:1026B80038B502FB01F4214600F008F8054618B1C8
:1026C80022460021FEF760FB284638BD70B5CD1CB8
:1026D80025F0030508350C2D38BF0C25002D0646BE
:1026E80001DBA94203D90C233360002070BD00F040
:1026F80069F8214A1468214691B9204C23681BB90E
:10270800304600F03DF820602946304600F038F8A1
:10271800431C24D10C233360304600F054F8E4E71E
:102728000B685B1B18D40B2B0FD90B60CD50CC1842
:10273800304600F048F804F10B00231D20F0070094
:10274800C31AD3D05A42E250D0E78C424B6816BF26
:10275800636013600C46EBE70C464968CCE7C41C81
:1027680024F00304A04205D0211A304600F008F8EE
:102778000130CFD02560DBE7F4010020F80100200C
:1027880038B5064C0023054608462360FEF766FA6E
:10279800431C02D1236803B12B6038BD54030020C9
:1027A80082B001B901A942B14BB113780B6012781C
:1027B800101C18BF012002B070471046FBE76FF0ED
:1027C8000100F8E77047704749B1FF2A85BF8A239F
:1027D80003600A704FF0FF3098BF01207047084629
:1027E80070470000F8B500BFF8BC08BC9E467047AB
:1027F800F8B500BFF8BC08BC9E4670470000000052
:10280800494E4600696E66004E414E006E616E008C
:102818003000496E66696E697479004E614E000039
:1028280000000000000000000000000000000000A0
:102838000000000000000000000000000000000090
:102848000000000000000000000000000000000080
:102858000000000000000000000000000000000070
:102868000000000000000000000000000000000060
:102878000000000000000000000000000000000050
:102888000080E03779C34143176E05B5B5B8934664
:10289800F5F93FE9034F384D321D30F94877825A30
:1028A8003CBF737FDD4F1575000000000000F03F4E
:1028B8000000000000002440000000000000594013
:1028C8000000000000408F40000000000088C34066
:1028D80000000000006AF8400000000080842E41DB
:1028E80000000000D01263410000000084D7974127
:1028F8000000000065CDCD41000000205FA002422D
:10290800000000E876483742000000A2941A6D42A1
:10291800000040E59C30A2420000901EC4BCD64294
:1029280000003426F56B0C430080E03779C341433F
:1029380000A0D8855734764300C84E676DC1AB43B5
:10294800003D9160E458E143408CB5781DAF1544D3
:1029580050EFE2D6E41A4B4492D54D06CFF08044AE
:10296800F64AE1C7022DB544B49DD9794378EA44C3
:1029780005000000190000007D0000004300504FD2
:10298800534958002E0000202020202020202020FD
:102998002828282828202020202020202020202007
:1029A8002020202020202088101010101010101037
:1029B800101010101010100404040404040404047B
:1029C8000410101010101010414141414141010103
:1029D80001010101010101010101010101010101DF
:1029E80001011010101010104242424242420202ED
:1029F80002020202020202020202020202020202AF
:102A0800020210101010200000000000000000005A
:102A180000000000000000000000000000000000AE
:102A2800000000000000000000000000000000009E
:102A3800000000000000000000000000000000008E
:102A4800000000000000000000000000000000007E
:102A5800000000000000000000000000000000006E
:102A6800000000000000000000000000000000005E
:102A7800000000000000000000000000000000004E
:082A8800000000000000000046
:082A9000BD0100080000000078
:082A9800990100080000000094
:102AA00004000020000000004828000868280008F2
:102AB00028280008000000000000000000000000BE
:102AC0000000000000000000000000000000000006
:102AD00000000000000000000000000000000000F6
:102AE00000000000000000000000000000000000E6
:102AF00000000000000000000000000000000000D6
:102B00000000000043000000000000000000000082
:102B100000000000000000000000000000000000B5
:102B20000000000043000000000000000000000062
:102B30000000000000000000000000000000000095
:102B40000000000043000000000000000000000042
:102B50000000000000000000000000000000000075
:102B60000000000043000000000000000000000022
:102B70000000000000000000000000000000000055
:102B80000000000043000000000000000000000002
:102B90000000000000000000000000000000000035
:102BA00000000000430000000000000000000000E2
:102BB0000000000000000000000000000000000015
:102BC00000000000430000000000000000000000C2
:102BD00000000000000000000000000000000000F5
:102BE00000000000D1270008A9270008000000000D
:102BF0008E2900088C2900088D2900088D290008DD
:102C00008D2900088D2900088D2900088D290008CC
:102C10008D2900088D2900088D290008FFFFFFFF7E
:102C2000FFFFFFFFFFFFFFFFFFFF00000100415319
:102C300043494900000000000000000000000000BF
:102C400000000000000000000000000000004153F0
:102C5000434949000000000000000000000000009F
:102C60000000000000000000000000000000000064
:0400000508000CE9FA
:00000001FF
