:020000040800F2
:1000000000800220DD2D0008ED2C0008EF2C0008F8
:10001000F12C0008F32C0008F52C0008000000006B
:10002000000000000000000000000000F72C0008A5
:10003000F92C000800000000FB2C0008FD2C000833
:100040002D2E00082D2E00082D2E00082D2E000824
:100050002D2E00082D2E00082D2E00082D2E000814
:100060002D2E00082D2E00082D2E00082D2E000804
:100070002D2E00082D2E00082D2E00082D2E0008F4
:10008000052D0008152D00082D2E00082D2E000826
:100090002D2E00082D2E00082D2E00082D2E0008D4
:1000A0002D2E00082D2E00082D2E00082D2E0008C4
:1000B0002D2E00082D2E0008000000002D2E000817
:1000C0002D2E00082D2E00082D2E00082D2E0008A4
:1000D0002D2E00082D2E00082D2E00082D2E000894
:1000E0002D2E00082D2E000800000000000000004A
:1000F0000000000000000000000000000000000000
:10010000000000002D2E0008000000002D2E000829
:100110002D2E0008000000002D2E00080000000019
:100120002D2E00082D2E00082D2E00082D2E000843
:100130002D2E00082D2E00082D2E00080000000096
:100140002D2E00082D2E00082D2E00082D2E000823
:100150002D2E00082D2E00082D2E00082D2E000813
:100160002D2E00082D2E00082D2E00080000000066
:10017000000000002D2E000800000000000000001C
:100180002D2E00082D2E00082D2E00082D2E0008E3
:080190002D2E00080000000004
:1001980010B5054C237833B9044B13B10448AFF3B9
:1001A80000800123237010BDD8010020000000004A
:1001B800D450000808B5034B1BB103490348AFF3FB
:1001C800008008BD00000000DC010020D4500008B9
:1001D80053B94AB9002908BF00281CBF4FF0FF31A6
:1001E8004FF0FF3000F072B9ADF1080C6DE904CEA4
:1001F80000F006F8DDF804E0DDE9022304B07047FA
:100208002DE9F047089E04468846002B4BD18A42C8
:10021800154667D9B2FA82F24AB1C2F1200701FA4B
:1002280002F320FA07F7954047EA030894404FEA9B
:10023800154E230CB8FBFEF71FFA85FC0EFB17883A
:1002480043EA084307FB0CF1994209D9EB1807F177
:10025800FF3080F01B81994240F21881023F2B4405
:100268005B1AA4B2B3FBFEF00EFB103344EA03445E
:1002780000FB0CFCA44509D92C1900F1FF3380F0D0
:100288000781A44540F2048102382C4440EA074023
:10029800A4EB0C0400271EB1D4400023C6E9004398
:1002A8003946BDE8F0878B4209D9002E00F0EB8073
:1002B8000027C6E9000138463946BDE8F087B3FA99
:1002C80083F7002F47D18B4202D3824200F2FA8093
:1002D800841A61EB030301209846002EE0D0C6E99A
:1002E8000048DDE702B9FFDEB2FA82F2002A40F0E8
:1002F8008F80491B4FEA154E1FFA85F80127B1FB7D
:10030800FEFC230C0EFB1C1143EA014308FB0CF115
:10031800994207D9EB180CF1FF3002D2994200F24A
:10032800CD808446591AA3B2B1FBFEF00EFB10141F
:1003380043EA044408FB00F8A04507D92C1900F14A
:10034800FF3302D2A04500F2B6801846A4EB080499
:1003580040EA0C409FE7C7F1200CBB4022FA0CFE94
:100368004EEA030E01FA07F420FA0CF521FA0CF311
:100378004FEA1E482543B3FBF8F92C0C08FB193348
:100388001FFA8EFA44EA034309FB0AF49C4202FA74
:1003980007F200FA07F10BD91EEB030309F1FF304E
:1003A80080F087809C4240F28480A9F1020973445E
:1003B8001B1BADB2B3FBF8F008FB103345EA03444E
:1003C80000FB0AFAA24508D91EEB040400F1FF332A
:1003D8006BD2A24569D90238744440EA0940A0FBAF
:1003E8000289A4EB0A044C45C2464B4654D351D06B
:1003F800002E69D0B1EB0A0564EB030404FA0CFC87
:10040800FD40FC404CEA0505C6E90054002747E7D3
:10041800C2F1200320FA03F7954001FA02F021FA0D
:1004280003F34FEA154E3843010CB3FBFEF71FFAEE
:1004380085F80EFB173341EA034107FB08F38B42AB
:1004480004FA02F407D9691807F1FF3C2FD28B424E
:100458002DD9023F2944CB1A81B2B3FBFEF00EFB23
:10046800103341EA034100FB08F38B4207D96918AE
:1004780000F1FF3C17D28B4215D902382944C91A1A
:1004880040EA07473BE73746304609E70746E7E6CD
:100498001846FBE64145ABD2B8EB020A69EB0E02FF
:1004A80001381346A4E76046E9E7184695E767462A
:1004B800D1E781467CE702382C4447E7ACF1020CCF
:1004C8002B442FE7384608E73746E9E6704700BF70
:1004D800034613F8012B002AFBD1181A013870477C
:1004E80081F0004102E000BF83F0004330B54FEADD
:1004F80041044FEA430594EA050F08BF90EA020F4A
:100508001FBF54EA000C55EA020C7FEA645C7FEADC
:10051800655C00F0E2804FEA5454D4EB5555B8BFFF
:100528006D420CDD2C4480EA020281EA030382EA70
:10053800000083EA010180EA020281EA0303362D02
:1005480088BF30BD11F0004F4FEA01314FF4801CD5
:100558004CEA113102D0404261EB410113F0004FE7
:100568004FEA03334CEA133302D0524263EB43039E
:1005780094EA050F00F0A780A4F10104D5F1200E3C
:100588000DDB02FA0EFC22FA05F2801841F1000197
:1005980003FA0EF2801843FA05F359410EE0A5F16B
:1005A80020050EF1200E012A03FA0EFC28BF4CF09C
:1005B800020C43FA05F3C01851EBE37101F0004552
:1005C80007D54FF0000EDCF1000C7EEB00006EEB5F
:1005D8000101B1F5801F1BD3B1F5001F0CD34908E9
:1005E8005FEA30004FEA3C0C04F101044FEA445240
:1005F80012F5800F80F09A80BCF1004F08BF5FEAC7
:10060800500C50F1000041EB045141EA050130BDA6
:100618005FEA4C0C404141EB010111F4801FA4F149
:100628000104E9D191F0000F04BF01460020B1FA9E
:1006380081F308BF2033A3F10B03B3F120020CDAD6
:100648000C3208DD02F1140CC2F10C0201FA0CF0B4
:1006580021FA02F10CE002F11402D8BFC2F1200C19
:1006680001FA02F120FA0CFCDCBF41EA0C019040CF
:10067800E41AA2BF01EB0451294330BD6FEA040418
:100688001F3C1CDA0C340EDC04F11404C4F1200203
:1006980020FA04F001FA02F340EA030021FA04F315
:1006A80045EA030130BDC4F10C04C4F1200220FA6C
:1006B80002F001FA04F340EA0300294630BD21FAAA
:1006C80004F0294630BD94F0000F83F4801306BF70
:1006D80081F480110134013D4EE77FEA645C18BF64
:1006E8007FEA655C29D094EA050F08BF90EA020FFB
:1006F80005D054EA000C04BF1946104630BD91EAF3
:10070800030F1EBF0021002030BD5FEA545C05D1F5
:100718004000494128BF41F0004130BD14F5800434
:100728003CBF01F5801130BD01F0004545F0FE41A8
:1007380041F470014FF0000030BD7FEA645C1ABFDD
:10074800194610467FEA655C1CBF0B46024650EA14
:10075800013406BF52EA033591EA030F41F4002140
:1007680030BD00BF90F0000F04BF0021704730B5C6
:100778004FF4806404F132044FF000054FF000019B
:1007880050E700BF90F0000F04BF0021704730B55C
:100798004FF4806404F1320410F0004548BF404231
:1007A8004FF000013EE700BF42004FEAE2014FEA86
:1007B80031014FEA02701FBF12F07F4393F07F4F61
:1007C80081F06051704732F07F4208BF704793F064
:1007D8007F4F04BF41F40021704730B54FF4607477
:1007E80001F0004521F000411CE700BF50EA01027A
:1007F80008BF704730B54FF000050AE050EA010223
:1008080008BF704730B511F0004502D5404261EB92
:1008180041014FF4806404F132045FEA915C3FF4D3
:10082800D8AE4FF003025FEADC0C18BF03325FEA70
:10083800DC0C18BF033202EBDC02C2F1200300FA21
:1008480003FC20FA02F001FA03FE40EA0E0021FA46
:1008580002F11444BDE600BF70B54FF0FF0C4CF434
:10086800E06C1CEA11541DBF1CEA135594EA0C0FE6
:1008780095EA0C0F00F0DEF82C4481EA030621EA21
:100888004C5123EA4C5350EA013518BF52EA03355C
:1008980041F4801143F4801338D0A0FB02CE4FF00E
:1008A8000005E1FB02E506F00042E0FB03E54FF03E
:1008B8000006E1FB03569CF0000F18BF4EF0010E36
:1008C800A4F1FF04B6F5007F64F5407404D25FEA32
:1008D8004E0E6D4146EB060642EAC62141EA5551E5
:1008E8004FEAC52040EA5E504FEACE2EB4F1FD0C27
:1008F80088BFBCF5E06F1ED8BEF1004F08BF5FEAA5
:10090800500E50F1000041EB045170BD06F0004656
:1009180046EA010140EA020081EA0301B4EB5C0403
:10092800C2BFD4EB0C0541EA045170BD41F48011FB
:100938004FF0000E013C00F3AB8014F1360FDEBF20
:10094800002001F0004170BDC4F10004203C35DAFC
:100958000C341BDC04F11404C4F1200500FA05F37F
:1009680020FA04F001FA05F240EA020001F0004220
:1009780021F0004110EBD37021FA04F642EB060196
:100988005EEA430E08BF20EAD37070BDC4F10C04C0
:10099800C4F1200500FA04F320FA05F001FA04F284
:1009A80040EA020001F0004110EBD37041F1000170
:1009B8005EEA430E08BF20EAD37070BDC4F120057B
:1009C80000FA05F24EEA020E20FA04F301FA05F2E3
:1009D80043EA020321FA04F001F0004121FA04F28B
:1009E80020EA020000EBD3705EEA430E08BF20EA5B
:1009F800D37070BD94F0000F0FD101F00046400095
:100A080041EB010111F4801F08BF013CF7D041EA16
:100A1800060195F0000F18BF704703F0004652001A
:100A280043EB030313F4801F08BF013DF7D043EAEB
:100A38000603704794EA0C0F0CEA135518BF95EAA1
:100A48000C0F0CD050EA410618BF52EA4306D1D128
:100A580081EA030101F000414FF0000070BD50EA47
:100A6800410606BF1046194652EA430619D094EAD1
:100A78000C0F02D150EA013613D195EA0C0F05D1BB
:100A880052EA03361CBF104619460AD181EA03010F
:100A980001F0004141F0FE4141F470014FF00000C7
:100AA80070BD41F0FE4141F4780170BD70B54FF062
:100AB800FF0C4CF4E06C1CEA11541DBF1CEA1355E2
:100AC80094EA0C0F95EA0C0F00F0A7F8A4EB0504C4
:100AD80081EA030E52EA03354FEA013100F08880BB
:100AE8004FEA03334FF0805545EA131343EA126384
:100AF8004FEA022245EA111545EA10654FEA002639
:100B08000EF000419D4208BF964244F1FD0404F5F1
:100B1800407402D25B084FEA3202B61A65EB03054D
:100B28005B084FEA32024FF480104FF4002CB6EB0A
:100B3800020E75EB030E22BFB61A754640EA0C008A
:100B48005B084FEA3202B6EB020E75EB030E22BFCA
:100B5800B61A754640EA5C005B084FEA3202B6EB0B
:100B6800020E75EB030E22BFB61A754640EA9C00CA
:100B78005B084FEA3202B6EB020E75EB030E22BF9A
:100B8800B61A754640EADC0055EA060E18D04FEA58
:100B9800051545EA16754FEA06164FEAC30343EAF8
:100BA80052734FEAC2025FEA1C1CC0D111F4801FC5
:100BB8000BD141EA00014FF000004FF0004CB6E7BE
:100BC80011F4801F04BF01430020B4F1FD0C88BF5D
:100BD800BCF5E06F3FF6AFAEB5EB030C04BFB6EB68
:100BE800020C5FEA500C50F1000041EB045170BD5B
:100BF8000EF0004E4EEA113114EB5C04C2BFD4EB88
:100C08000C0541EA045170BD41F480114FF0000E0B
:100C1800013C90E645EA060E8DE60CEA135594EA87
:100C28000C0F08BF95EA0C0F3FF43BAF94EA0C0F8A
:100C38000AD150EA01347FF434AF95EA0C0F7FF4FF
:100C480025AF104619462CE795EA0C0F06D152EA53
:100C580003353FF4FDAE1046194622E750EA410637
:100C680018BF52EA43067FF4C5AE50EA41047FF448
:100C78000DAF52EA43057FF4EBAE12E74FF0FF3CAD
:100C880006E000BF4FF0010C02E000BF4FF0010C7E
:100C98004DF804CD4FEA410C7FEA6C5C4FEA430CF7
:100CA80018BF7FEA6C5C1BD001B050EA410C0CBF46
:100CB80052EA430C91EA030F02BF90EA020F0020A8
:100CC800704710F1000F91EA030F58BF994208BF0F
:100CD80090422CBFD8176FEAE37040F001007047CC
:100CE8004FEA410C7FEA6C5C02D150EA013C07D123
:100CF8004FEA430C7FEA6C5CD6D152EA033CD3D06E
:100D08005DF8040B704700BF8446104662468C4667
:100D18001946634600E000BF01B5FFF7B7FF00289A
:100D280048BF10F1000F01BD4DF808EDFFF7F4FFC3
:100D38000CBF012000205DF808FB00BF4DF808ED4E
:100D4800FFF7EAFF34BF012000205DF808FB00BF71
:100D58004DF808EDFFF7E0FF94BF012000205DF893
:100D680008FB00BF4DF808EDFFF7CEFF94BF012048
:100D780000205DF808FB00BF4DF808EDFFF7C4FF41
:100D880034BF012000205DF808FB00BF4FEA410C8A
:100D98007FEA6C5C02D150EA013C0AD14FEA430C6D
:100DA8007FEA6C5C02D152EA033C02D14FF00000AA
:100DB80070474FF0010070474FEA410212F50012E8
:100DC80015D211D56FF47873B3EB625212D94FEA8A
:100DD800C12343F0004343EA505311F0004F23FA74
:100DE80002F018BF404270474FF00000704750EAC9
:100DF800013005D111F0004008BF6FF00040704786
:100E08004FF00000704700BF10B50446094B186842
:100E1800094BA3FB0030800900F080F808B10120DD
:100E280010BD002221464FF0FF3000F037F80020B7
:100E3800F6E700BF00000020D34D621010B5032074
:100E480000F01AF80020FFF7DFFF10B10124204658
:100E580010BD044601F08EFEF9E70000024A13684F
:100E680001331360704700BF0C020020014B186863
:100E7800704700BF0C020020074AD36823F4E063E0
:100E88001B041B0C000200F4E060184340F0BF6034
:100E980040F40030D060704700ED00E030B4174BEC
:100EA800DB68C3F30223C3F10704042C28BF04241E
:100EB8001D1D062D18D9033B4FF0FF3505FA04F424
:100EC80021EA0401994005FA03F322EA03031943CE
:100ED80000280BDB0901C9B200F1604000F5614050
:100EE80080F8001330BC70470023E5E700F00F00DE
:100EF8000901C9B2024B1954F4E700BF00ED00E044
:100F080014ED00E000F01F02400901239340024A5B
:100F180042F82030704700BF00E100E00138B0F12E
:100F2800807F0AD2064B5860064AF02182F82310C7
:100F38000020986007221A6070470120704700BFA0
:100F480010E000E000ED00E0002869D010B403468E
:100F58000168344A914245D8334A0A443349A1FBCF
:100F68000212120992004264314A0264022283F892
:100F780025201868016821F4FF4121F070019A6862
:100F8800DC6822431C6922435C6922439C69224332
:100F9800DC6922431C6A22430A4302609A68B2F55C
:100FA800804F15D0196C224A914226D0214A1168E7
:100FB800586C00F01C040F20A04021EA00011160C9
:100FC800116858685C6C04F01C04A040014311606F
:100FD8000020D863012283F8252083F824005DF8D7
:100FE800044B7047144A0A441049A1FB0212120923
:100FF80092004264114A0264B8E7A8321168586C3A
:1010080000F01C040F20A04021EA000111601168C3
:1010180058685C6C04F01C04A04001431160D7E7D9
:101028000120704707040240F8FFFDBFCDCCCCCCAF
:1010380000000240A8040240F8FBFDBF0004024083
:1010480038B5036C196804682568436C03F01C0301
:1010580004229A400A4215D015F0040F12D02368D2
:1010680013F0200F03D1236823F004032360436C9B
:1010780003F01C02016C042393404B60036B03B123
:10108800984738BD02229A400A421CD015F0020F38
:1010980019D0236813F0200F06D1236823F00A0320
:1010A8002360012380F82530436C03F01C02016C97
:1010B800022393404B60002380F82430C36A002B3E
:1010C800DFD09847DDE7082202FA03F30B42D8D0B5
:1010D80015F0080FD5D0236823F00E032360436C66
:1010E80003F01C03016C012202FA03F34B60C26394
:1010F80080F82520002380F82430436B002BC0D0D3
:101108009847BEE7F0B482B0002336E0042400E03C
:101118000024B4403C4302355B4E46F825405B4C06
:101128002568D44304EA05064F6817F4803F01D0C8
:1011380042EA0506554D2E606D6804EA05064F68BB
:1011480017F4003F01D042EA0506504D6E60AD68C5
:1011580004EA05064F6817F4801F01D042EA050625
:101168004A4DAE60ED682C404E6816F4001F01D061
:1011780042EA0504454AD46001330A6832FA03F4A6
:101188007ED001249C402240F6D04D68022D01D02B
:10119800122D10D1DE08083650F826C003F00705D6
:1011A800AF000F25BD402CEA050C0D69BD4045EA8E
:1011B8000C0540F8265006685F000325BD40ED4346
:1011C80005EA060C4E6806F00306BE4046EA0C0621
:1011D80006604E6806F1FF3CBCF1010F03D9112EE1
:1011E80001D0122E10D1866805EA060CCE68BE40E2
:1011F80046EA0C068660466826EA04044E68C6F38A
:1012080000169E4026434660C46825408C68BC4052
:101218002C43C4604C6814F0805FADD01C4C256E24
:1012280045F001052566246E04F001040194019C33
:101238009D08AE1C144C54F8267003F00304A60055
:101248000F24B44027EA0407B0F1904F3FF460AF91
:10125800104CA0420ED004F58064A0420CD004F5D6
:101268008064A0420AD004F58064A0423FF44EAFE7
:1012780007244EE701244CE702244AE7032448E701
:1012880002B0F0BC704700BF0000014000040140FC
:1012980000100240000400480AB981627047816169
:1012A8007047002859D010B5044690F84130002BFB
:1012B80043D0242384F841302268136823F00103C3
:1012C80013606368226823F070631361226893686F
:1012D80023F400439360E368012B33D0A3682268AA
:1012E80043F404439360E368022B31D022685368C7
:1012F80043F0007343F4004353602268D36823F437
:101308000043D360236962691343A169226843EAF1
:101318000123D360E369216A22680B4313602268C2
:10132800136843F00103136000206064202384F8ED
:101338004130206384F8420010BD80F8403001F04D
:1013480031FCB6E7A368226843F400439360CAE718
:1013580023684FF400625A60C8E70120704790F88C
:101368004130DBB2202B24D190F84030012B22D021
:10137800012380F84030242380F841300268136844
:1013880023F0010313600268136823F48053136089
:1013980002681368194311600268136843F0010377
:1013A8001360202380F84130002380F8403018462D
:1013B8007047022070470220704790F84130DBB236
:1013C800202B22D190F84030012B20D0012380F827
:1013D8004030242380F841300268136823F0010369
:1013E80013600268136823F4706343EA01211160F3
:1013F8000268136843F001031360202380F841302A
:10140800002380F8403018467047022070470220B9
:1014180070470000024B186800F4C060704700BFB6
:1014280000700040B0F5007F0FD01F4B1B6803F41D
:10143800C063B3F5806F34D01B4A136823F4C063CC
:1014480043F48063136000207047174B1B6803F454
:10145800C063B3F5007F22D0134A136823F4C06336
:1014680043F400731360114B1A68322303FB02F331
:101478000F4AA2FB03239B0C013300E0013B0A4AFD
:10148800526912F4806F01D0002BF7D1064B5B69CB
:1014980013F4806F01D100207047032070470020AB
:1014A80070470020704700BF007000400000002017
:1014B80083DE1B4330B583B00546204B9B6D13F08C
:1014C800805F0BD0FFF7A6FFB0F5007F17D0802D07
:1014D8001FD82DD0702D2DD000211BE0174CA36DE7
:1014E80043F08053A365A36D03F080530193019BE0
:1014F800FFF790FFA36D23F08053A365E4E7802DE9
:1015080003D9A02D03D9022104E0002102E0012122
:1015180000E003210A4A136823F007030B43136012
:10152800136803F007038B4206D0012003B030BDD7
:101538000221EFE70121EDE70020F7E70010024064
:1015480000200240314A9368D26802F0030213F087
:101558000C030AD00C2B06D0042B1FD0082B20D04C
:101568000020014610E0012AF6D1284A126812F03C
:10157800080F0CD1254AD2F89420C2F3032224493B
:1015880051F8221043B100200C2B0DD070471F4A90
:101598001268C2F30312F2E70846F5E71D48002176
:1015A800F2E71D480021EFE7184BDA6802F0030262
:1015B800DB68C3F302130133022A0AD0032A1AD0C4
:1015C800B1FBF3F3114AD068C0F3062000FB03F027
:1015D80008E01048B0FBF3F30C4AD068C0F30620CB
:1015E80000FB03F0094BDB68C3F3416301335B0085
:1015F800B0FBF3F0CAE70848B0FBF3F3034AD0683E
:10160800C0F3062000FB03F0ECE700BF0010024027
:10161800F05000080024F40000127A00002800F0BE
:10162800C182F0B583B00446AC4B9D6805F00C054B
:10163800DE6806F00306036813F0100F5DD0E5B10D
:101648000C2D18D0A369002B00F0B780A34A1368AB
:1016580043F001031360FFF709FC07469F4B1B6823
:1016680013F0020F40F09680FFF700FCC01B022821
:10167800F4D90323A2E2012EE4D1984B1B6813F09E
:10168800020F03D0A369002B00F08F82206A934BCE
:101698001B6813F0080F5DD0904B1B6803F0F00334
:1016A80098425ED9FFF706FF002840F080828B4BF6
:1016B8001A6842F008021A601A6822F0F002216AD9
:1016C8000A431A605A6822F47F42E16942EA012219
:1016D8005A60FFF737FF814B9B68C3F30313804AB7
:1016E800D35C03F01F03D8407E4B18600020FFF73F
:1016F8008BFB0346002840F06182236813F0010F3A
:101708007AD0082D6FD00C2D6BD06368B3F5803F6D
:1017180000F09180B3F5A02F00F093806F4B1A680A
:1017280022F480321A601A6822F480221A606368F0
:10173800002B00F09380FFF799FB0746674B1B6867
:1017480013F4003F58D1FFF791FBC01B6428F5D96B
:10175800032333E2614BD3F894301B0903F0F00301
:101768009EE75E4B1A6842F008021A601A6822F077
:10177800F002216A0A431A605A6822F47F42E1693A
:1017880042EA01225A60206AFFF794FE0028A0D09E
:10179800012313E2514B1A6842F008021A601A68D2
:1017A80022F0F002216A0A431A605A6822F47F4242
:1017B800E16942EA01225A609FE7484A136823F028
:1017C80001031360FFF752FB0746444B1B6813F0F5
:1017D800020F92D0FFF74AFBC01B0228F5D903235A
:1017E800ECE1032E91D13D4B1B6813F4003F03D06D
:1017F8006368002B00F0DD81236813F0020F4FD0DF
:10180800042D3CD00C2D38D0E368002B75D0334A1A
:10181800136843F480731360FFF728FB06462F4BC9
:101828001B6813F4806F5FD1FFF720FB801B022831
:10183800F5D90323C2E1294A136843F480331360BE
:1018480075E703F18043A3F53C331A6842F480221C
:101858001A601A6842F480321A6068E7FFF706FBDC
:1018680007461E4B1B6813F4003FC5D0FFF7FEFA6E
:10187800C01B6428F5D90323A0E1022EC4D1174B5D
:101888001B6813F4806F03D0E368002B00F093818A
:10189800124A536823F0FE43216943EA0163536007
:1018A800236813F0080F53D06369002B39D00B4A13
:1018B800D2F8943043F00103C2F89430FFF7D6FA17
:1018C8000646064BD3F8943013F0020F40D1FFF7C9
:1018D800CDFA801B0228F4D903236FE100100240DF
:1018E8002051000800000020B74A536823F0FE4347
:1018F800216943EA01635360D2E7B34A136823F4CA
:1019080080731360FFF7B2FA0646AF4B1B6813F4F7
:10191800806FC5D0FFF7AAFA801B0228F5D90323E8
:101928004CE1A94AD2F8943023F00103C2F894306C
:10193800FFF79CFA0646A44BD3F8943013F0020F35
:1019480006D0FFF793FA801B0228F4D9032335E168
:10195800236813F0040F7AD09B4B9B6D13F0805FC4
:101968000BD1994B9A6D42F080529A659B6D03F0AA
:1019780080530193019B012600E00026934B1B68CE
:1019880013F4807F26D0A368012B37D0052B3DD0D8
:101998008D4BD3F8902022F00102C3F89020D3F8A1
:1019A800902022F00402C3F89020A368002B3BD0BB
:1019B800FFF75CFA0746844BD3F8903013F0020F18
:1019C80044D1FFF753FAC01B41F288339842F2D949
:1019D8000323F3E07D4A136843F480731360FFF731
:1019E80045FA0746794B1B6813F4807FCBD1FFF784
:1019F8003DFAC01B0228F5D90323DFE0724AD2F86A
:101A0800903043F00103C2F89030CEE76E4BD3F824
:101A1800902042F00402C3F89020D3F8902042F0BE
:101A28000102C3F89020C0E7FFF720FA0746664B8B
:101A3800D3F8903013F0020F08D0FFF717FAC01B45
:101A480041F288339842F2D90323B7E0E6B9236814
:101A580013F0200F35D0636AE3B15B4AD2F89830AF
:101A680043F00103C2F89830FFF700FA0646564BD8
:101A7800D3F8983013F0020F23D1FFF7F7F9801B42
:101A88000228F4D9032399E04F4A936D23F0805339
:101A98009365DCE74C4AD2F8983023F00103C2F88A
:101AA8009830FFF7E3F90646474BD3F8983013F020
:101AB800020F06D0FFF7DAF9801B0228F4D90323B6
:101AC8007CE0A36A002B78D00C2D7AD0022B23D08F
:101AD8003D4B1A6822F080721A601B6813F0006F81
:101AE80004D1394AD36823F00303D360364AD36854
:101AF80023F0887323F48033D360FFF7B7F90446E3
:101B0800314B1B6813F0007F4AD0FFF7AFF9001B79
:101B18000228F5D9032351E02B4A136823F0807378
:101B28001360FFF7A3F90546274B1B6813F0007FE6
:101B380006D0FFF79BF9401B0228F5D903233DE0A7
:101B4800236B5A1E636B1B0243EA0213E26A1343B8
:101B5800E26B5208013A43EA4253226C5208013AB6
:101B680043EA4263A26B43EAC263174AD36013682D
:101B780043F080731360D36843F08073D360FFF73A
:101B880075F90446104B1B6813F0007F06D1FFF768
:101B98006DF9001B0228F5D903230FE000230DE09F
:101BA80000230BE0012318467047012306E00123B8
:101BB80004E0012302E0012300E00023184603B0FB
:101BC800F0BD0123FAE700BF00100240007000409A
:101BD800002800F09A8070B504464E4B1B6803F04D
:101BE80007038B420CD24B4A136823F007030B43BD
:101BF8001360136803F007038B4201D0012070BD06
:101C08000D46236813F0010F39D06368032B09D000
:101C1800022B26D063BB404A126812F0020F06D18D
:101C28000120ECE73C4A126812F0007F6FD03A4975
:101C38008A6822F0030213438B60FFF717F9064600
:101C4800354B9B6803F00C036268B3EB820F16D028
:101C5800FFF70CF9801B41F288339842F0D9032032
:101C6800CDE72D4A126812F4003FE0D10120C6E703
:101C7800294A126812F4806FD9D10120BFE723687E
:101C880013F0020F06D0244A936823F0F003A168EA
:101C98000B4393601F4B1B6803F00703AB420CD93F
:101CA8001C4A136823F007032B431360136803F0DF
:101CB8000703AB4201D00120A1E7236813F0040F0A
:101CC80006D0154A936823F4E063E1680B439360F8
:101CD800236813F0080F07D00F4A936823F4605362
:101CE800216943EAC1039360FFF72CFC0A4B9B6808
:101CF800C3F30313094AD35C03F01F03D840084B0E
:101D080018600020FFF780F879E70120704701206C
:101D180075E700BF00200240001002402051000873
:101D280000000020014B1868704700BF0000002029
:101D380008B5FFF7F7FF054B9B68C3F30223044A76
:101D4800D35C03F01F03D84008BD00BF0010024059
:101D58003051000808B5FFF7E5FF054B9B68C3F352
:101D6800C223044AD35C03F01F03D84008BD00BF58
:101D78000010024030510008F8B5594BDB6813F0E9
:101D8800030F18D0564BDB6803F003030268934235
:101D980002D001252846F8BD002A00F09F80504B4C
:101DA800DB68C3F3021301334268934201D0012573
:101DB800F0E700251AE00368022B58D0032B5DD00A
:101DC800012B01D001250FE0454A126812F0020FDD
:101DD80060D0434DEA6822F073024468013C43EA4C
:101DE80004131343EB600025002DD3D10F4604469E
:101DF8003B4A136823F080631360FFF737F8064601
:101E0800374B1B6813F0006F05D0FFF72FF8801BC6
:101E18000228F5D90325002DBCD1002F3CD130492B
:101E28000B6923F0784323F4FE43A068E268D206E6
:101E380042EA002213430B61294A136843F0806386
:101E48001360FFF713F80646254B1B6813F0006F65
:101E580005D1FFF70BF8801B0228F5D90325002DC3
:101E680098D11F4A1369A1690B43136192E71C4A71
:101E7800126812F4806FACD10125B5E7184A1268D0
:101E880012F4003FA5D1164A126812F4802FA0D18F
:101E98000125A9E70125A7E7012F0FD010480269FE
:101EA80022F0C06222F4FE42A16863695B08013B2C
:101EB8005B0643EA012313430361BDE7084802694F
:101EC80022F4C00222F4FE42A16823695B08013BA8
:101ED8005B0543EA012313430361ADE7012559E795
:101EE800001002402DE9F04182B00446036813F463
:101EF800006F26D0C36CB3F5000F06D0B3F5400FC2
:101F08001DD09BB1012637461DE0BE4AD36843F475
:101F18008033D3600027BB4AD2F8883023F44003CB
:101F2800E16C0B43C2F8883000260CE00021043035
:101F3800FFF722FF07460028EDD0064603E00027FA
:101F4800E9E700263746236813F4003F6BD0AD4B12
:101F58009B6D13F0805F4CD1AA4B9A6D42F0805272
:101F68009A659B6D03F080530193019B4FF0010824
:101F7800A54A136843F480731360FEF777FF05469C
:101F8800A14B1B6813F4807F05D1FEF76FFF401B40
:101F98000228F5D90327002F40D19A4BD3F8903067
:101FA80013F4407315D0626E9A4212D0954AD2F853
:101FB800903023F44073D2F8901041F48031C2F885
:101FC8009010D2F8901021F48031C2F89010C2F825
:101FD800903013F0010F0FD1002F40F01181894A82
:101FE800D2F8903023F44073616E0B43C2F89030FE
:101FF80015E04FF00008BBE7FEF738FF0546814BB8
:10200800D3F8903013F0020FE6D1FEF72FFF401BF4
:1020180041F288339842F2D90327DDE73E46B8F10A
:10202800000F40F0F380236813F0010F08D0754AC1
:10203800D2F8883023F00303216A0B43C2F88830B2
:10204800236813F0020F08D06E4AD2F8883023F0C4
:102058000C03616A0B43C2F88830236813F0040F3D
:1020680008D0684AD2F8883023F03003A16A0B43BD
:10207800C2F88830236813F0080F08D0614AD2F8F4
:10208800883023F0C003E16A0B43C2F88830236824
:1020980013F0200F08D05B4AD2F8883023F440634D
:1020A800216B0B43C2F88830236813F4007F08D0F3
:1020B800544AD2F8883023F44023616C0B43C2F8A9
:1020C8008830236813F4806F08D04E4AD2F88830DD
:1020D80023F44013A16C0B43C2F88830236813F033
:1020E800400F08D0474AD2F8883023F44053616B38
:1020F8000B43C2F88830236813F0800F08D0414A98
:10210800D2F8883023F44043A16B0B43C2F88830DF
:10211800236813F4807F08D03A4AD2F8883023F431
:102128004033E16B0B43C2F88830236813F4801FF7
:1021380008D0344AD2F89C3023F00303216C0B43B7
:10214800C2F89C30236813F4005F0FD02D4AD2F8F0
:10215800883023F04063216D0B43C2F88830236D2B
:10216800B3F1006F58D0B3F1806F5AD0236813F4DD
:10217800002F0FD0234AD2F8883023F04063616DD6
:102188000B43C2F88830636DB3F1006F51D0B3F1DF
:10219800806F53D0236813F4802F0FD0194AD2F8D8
:1021A800883023F04063A16D0B43C2F88830A36DDB
:1021B800B3F1006F4AD0B3F1806F4CD0236813F4A9
:1021C800804F0CD00F4AD2F8883023F04053E16D8D
:1021D8000B43C2F88830E36DB3F1805F43D02368C6
:1021E80013F4803F08D0074AD2F8883023F0004320
:1021F800216E0B43C2F88830304602B0BDE8F0814A
:102208003E460CE700100240007000401A4A936DE9
:1022180023F08053936506E7D36843F48013D360B3
:10222800A4E70121201DFFF7A7FD00289ED0064640
:102238009CE7D36843F48013D360ABE70121201DEA
:10224800FFF79AFD0028A5D00646A3E7D36843F414
:102258008013D360B2E70121201DFFF78DFD002810
:10226800ACD00646AAE70221201DFFF785FD00280D
:10227800B5D00646B3E700BF001002402DE9F0488C
:102288000446016883680269134342691343C269BB
:10229800134308689F4A024013430B60226853683F
:1022A80023F44053E1680B435360A16922689A4BB9
:1022B8009A4201D0236A1943936823F430630B438D
:1022C80093602368954A934223D0954A934234D029
:1022D800944A93424AD0944A93425DD08E4A93429C
:1022E80070D010258C4A934200F08F80E369B3F5D3
:1022F800004F00F00581082D00F2A281DFE815F0FB
:10230800620178018201A0018D01A001A001A00154
:10231800970102F55842D2F8882002F00302032AF6
:1023280009D8DFE802F0020468060125DAE7042587
:10233800D8E70825D6E71025D4E702F5E632D2F823
:10234800882002F00C020C2A0ED8DFE802F0070DF4
:102358000D0D090D0D0D560D0D0D0B000025C1E7D6
:102368000425BFE70825BDE71025BBE702F5E432E1
:10237800D2F8882002F03002102A09D005D9202A84
:102388003DD0302A06D10825ACE71AB90025A9E7BF
:102398000425A7E71025A5E702F5E232D2F8882040
:1023A80002F0C002402A09D005D9802A29D0C02AC3
:1023B80006D1082596E71AB9002593E7042591E781
:1023C80010258FE702F5C832D2F8882002F440625F
:1023D800B2F5806F0BD007D9B2F5006F13D0B2F504
:1023E800406F06D108257DE71AB900257AE704254C
:1023F80078E7102576E7022574E7022572E70225BB
:1024080070E702256EE702256CE7082D00F21B81B4
:10241800DFE815F00C001901140019011100190169
:102428001901190109004FF4004008E0FFF780FC8A
:1024380028B90020D7E0FFF785F8F9E73B4862683C
:1024480002EB4203834200F20081B0EB023F00F24C
:10245800FE80082D51D8DFE805F005502050305097
:1024680050504300FFF764FC0025070E060262681F
:1024780050082B4616EB000B47F1000C58466146F6
:10248800FDF7A6FE03462846A3F54071284A914267
:1024980000F2DF802268D360A5E0560800252B46AD
:1024A800DFF890B04FF0000C1BEB06004CF1000178
:1024B800FDF78EFE03462846E6E7FFF743F80025BA
:1024C800070E0602626850082B4616EB000B47F110
:1024D800000C58466146FDF77BFE03462846D3E7C5
:1024E8005008002700252B4610F5000047F1000191
:1024F800FDF76EFE03462846C6E701200023C3E722
:10250800082D5CD8DFE805F018313C5B475B5B5B66
:10251800520000BFF369FFEF00800040003801401F
:102528000044004000480040004C00400024F400F3
:10253800FFFC0F00000024F4FFF7FAFB6268530861
:1025480003EB4003B3FBF2F39BB20020A3F11001AD
:102558004FF6EF7291427ED89AB222F00F02C3F37F
:10256800420313432268D3603DE0FFF7F3FB626840
:10257800530803EB4003B3FBF2F39BB20020E5E7FB
:102588006268530803F1F47303F59043B3FBF2F365
:102598009BB20020DAE7FEF7D5FF6268530803EB29
:1025A8004003B3FBF2F39BB20020CFE76268530805
:1025B80003F58033B3FBF2F39BB20020C6E701209A
:1025C8000023C3E7FFF7B4FB636800EB5302B2FBD9
:1025D800F3F292B20020A2F110014FF6EF73994284
:1025E8003BD82368DA60002222666266BDE8F0887C
:1025F800FFF7B0FB636800EB5302B2FBF3F292B251
:102608000020E8E763685A0802F5740202F51052E0
:10261800B2FBF3F292B20020DDE7FEF793FF6368A6
:1026280000EB5302B2FBF3F292B20020D3E76368E7
:102638005A0802F50042B2FBF3F292B20020CAE750
:1026480001200022C7E70120CDE70120CBE70120C8
:10265800C9E70120C7E70120C5E70120C3E700BF9C
:10266800436A13F0010F06D00268536823F400335D
:10267800816A0B435360436A13F0020F06D0026865
:10268800536823F48033C16A0B435360436A13F0E1
:10269800040F06D00268536823F48023016B0B43B0
:1026A8005360436A13F0080F06D00268536823F496
:1026B8000043416B0B435360436A13F0100F06D07D
:1026C8000268936823F48053816B0B439360436AD9
:1026D80013F0200F06D00268936823F40053C16BEF
:1026E8000B439360436A13F0400F0AD002685368A3
:1026F80023F48013016C0B435360036CB3F5801F04
:102708000BD0436A13F0800F06D00268536823F495
:102718000023816C0B43536070470268536823F4AD
:10272800C003416C0B435360EBE72DE9F0410546CC
:102738000F4616469846069C2B68DB6937EA030362
:102748000CBF01230023B3421DD1B4F1FF3FF3D0E6
:102758002CB1FEF78BFBA0EB0800A042ECD92A684D
:10276800136823F4D07313602A68936823F0010375
:102778009360202385F8713085F87230002385F83E
:102788007030032000E00020BDE8F0812DE9F04121
:1027980082B01E4690F87130DBB2202B4ED1044631
:1027A8000D46904600294ED0002A4ED090F8703041
:1027B800012B4CD0012380F870300023436721237C
:1027C80080F87130FEF752FB0746A4F85080A4F851
:1027D800528009E023682A781A850135B4F8523006
:1027E800013B9BB2A4F85230B4F852309BB2ABB163
:1027F80000963B46002280212046FFF796FF40BB0B
:10280800A368B3F5805FE5D12369002BE2D1226884
:1028180035F8023BC3F308031385DFE700963B4610
:10282800002240212046FFF780FF034698B9202266
:1028380084F87120002284F8702000E002231846F2
:1028480002B0BDE8F0810123F9E70123F7E702238D
:10285800F5E70323F3E70323F1E730B583B0044634
:1028680000234367FEF702FB054623681B6813F045
:10287800080F0ED123681B6813F0040F17D120230B
:1028880084F8713084F87230002084F8700003B046
:1028980030BD6FF07E430093034600224FF40011D1
:1028A8002046FFF742FF0028E4D00320EFE76FF04F
:1028B8007E4300932B4600224FF480012046FFF709
:1028C80034FF0028DBD00320E1E778B310B50446D5
:1028D80090F871300BB3242384F8713022681368A0
:1028E80023F0010313602046FFF7C8FC012813D02A
:1028F800636ABBB92268536823F490435360226823
:10290800936823F02A0393602268136843F0010355
:1029180013602046FFF7A1FF10BD80F8703000F06B
:1029280077F9D8E72046FFF79BFEE3E701207047D9
:1029380010B58AB000240594069407940894099465
:10294800234BDA6C42F00402DA64DA6C02F0040217
:102958000192019ADA6C42F08002DA64DA6C02F0D1
:1029680080020292029ADA6C42F00102DA64DA6CAE
:1029780002F001020392039ADA6C42F00202DA646E
:10298800DB6C03F002030493049B224620214FF0E2
:102998009040FEF781FC012240214FF09040FEF765
:1029A8007BFC4FF4005305930A4B0693079405A943
:1029B8000948FEF7A7FB60230593012306930794B4
:1029C800089405A94FF09040FEF79CFB0AB010BD93
:1029D80000100240000021100008004800B583B034
:1029E8000E4B9A6C42F001029A649B6C03F001034F
:1029F8000193019B002211461020FEF74FFA102088
:102A0800FEF780FA002211461120FEF747FA11203E
:102A1800FEF778FA03B05DF804FB00BF001002402F
:102A280038B50D4C0D4B23600D4B63600025A56038
:102A38000123E36025616561A561E56125622046A2
:102A4800FEF72FFC29462046FEF789FC294620463A
:102A5800FEF7B3FC38BD00BF580200200054004008
:102A6800EC9C901008B50A480A4B03604FF4966333
:102A7800436000238360C36003610C2242614FF40A
:102A880040728261C36103624362FFF71EFF08BDA3
:102A9800EC0200200044004010B5B0B02422002110
:102AA80020A800F0EBF900241A941B941C941D94A0
:102AB8001E9468222146684600F0E0F902231F931D
:102AC8004FF4807222924022239229932A93012262
:102AD8002B920A222C9207222D922E932F931FA815
:102AE800FEF79CFD0F231A9303231B931C941D943C
:102AF8001E9404211AA8FFF76BF842230093099447
:102B08000D946846FFF7EEF94FF40070FEF78AFC63
:102B180030B010BD08B5FEF791F9FFF7BDFFFFF71C
:102B280007FFFFF75BFFFFF77BFFFFF79BFF0348FC
:102B380000F052FD024800F04FFDFBE73851000855
:102B480048510008013801280BD808B5064B1B79F5
:102B58000BB9002008BD642392B20448FFF716FEA3
:102B6800F8E74FF0FF307047F4010020EC02002036
:102B78007047000082B00A4B1A6E42F001021A66D2
:102B88001A6E02F001020092009A9A6D42F0805289
:102B98009A659B6D03F080530193019B02B07047C7
:102BA8000010024010B588B00023039304930593E6
:102BB800069307930268144B9A4201D008B010BDDF
:102BC800124CE36C43F00103E364E36C03F001038C
:102BD8000193019B4FF4C0630393122304930123D1
:102BE8000593032306930423079303A94FF090400A
:102BF800FEF788FAA36D43F40013A365A36D03F4ED
:102C080000130293029BD9E70054004000100240D1
:102C180030B589B000230393049305930693079373
:102C280002682B4B9A4201D009B030BD044603F527
:102C3800E6339A6D42F400329A659A6D02F40032D6
:102C48000192019ADA6C42F00102DA64DB6C03F05B
:102C580001030293029B0F23039302250495032388
:102C680006930723079303A94FF09040FEF74AFA0B
:102C78001848194B0360456000238360C3608022B5
:102C8800026143618361C3610362FEF75DF9C0B904
:102C9800104BE3669C621148114B036002234360AA
:102CA800102383600023C360802202614361836133
:102CB800C3610362FEF748F930B9084BA3669C620A
:102CC800B2E7FFF755FFE3E7FFF752FFF5E700BF6D
:102CD80000440040100200206C000240A4020020C2
:102CE800800002407047FEE7FEE7FEE7FEE7704718
:102CF8007047704708B5FEF7B1F808BD08B5024837
:102D0800FEF79EF908BD00BF1002002008B5024872
:102D1800FEF796F908BD00BFA402002070B50D4665
:102D28001646002404E0AFF3008028700134013512
:102D3800B442F8DB304670BD08B503460B4A12684A
:102D480042B10A4A106803446A46934206D8074AC1
:102D5800136008BD054A06491160F2E700F064F8FF
:102D68000C2303604FF0FF30F3E700BFFC010020A5
:102D7800680300204FF0FF3070474FF400534B605A
:102D88000020704701207047002070470F49D1F894
:102D9800883043F47003C1F888300D4B1A6842F04C
:102DA80001021A60002098601A6822F0A85222F4E2
:102DB80010221A604FF48052DA601A6822F48022D6
:102DC8001A6098614FF000638B60704700ED00E077
:102DD80000100240DFF834D0002103E00C4B5B58B0
:102DE800435004310B480C4B42189A42F6D30B4A15
:102DF80002E0002342F8043B094B9A42F9D3FFF75B
:102E0800C5FF00F017F8FFF785FEFEE700800220F7
:102E18003055000800000020D8010020D80100200B
:102E280068030020FEE70000014B1868704700BFE8
:102E38000400002070B50D4E0D4CA41BA4100025F5
:102E4800A54209D10B4E0C4C02F040F9A41BA4106A
:102E58000025A54205D170BD56F8253098470135A3
:102E6800EEE756F8253098470135F2E72055000877
:102E78002055000820550008245500080244034640
:102E8800934200D1704703F8011BF9E72DE9FF478A
:102E980055EC104B0D9FDDF830A0002D0E469146E5
:102EA8001946B8BF22462B4627F02007BBBF05F1BD
:102EB80000431D4600232D23B8BF1446462F0B7030
:102EC80004D0452F00D10136022100E0032103ABD5
:102ED800019302AB00933246534645EC104B00F089
:102EE800CFFC472F804602D119F0010F26D0462F7C
:102EF80008EB060911D198F80030302B0AD10022CE
:102F0800002320462946FDF70FFF18B9C6F1010630
:102F1800CAF80060DAF800309944002200232046FD
:102F28002946FDF701FF38B93022039B4B4505D2EE
:102F3800591C03911A70F8E7CDF80C90039B0E9A70
:102F4800A3EB08034046136004B0BDE8F087F7B56B
:102F580000290446BABF49422D232B23092904F826
:102F6800022B437020DD0DF107031F460A2691FB53
:102F7800F6F506FB15113031092D03F8011C03F194
:102F8800FF32294609DC3031023B02F8011CBB4202
:102F9800224604D3101A03B0F0BD1346E7E713F82E
:102FA800012B04F8012BF2E7302319448370021D2A
:102FB800C170EFE72DE9F04F8DB00C46DDF8588071
:102FC80016461F46054601F08DFB03680493184614
:102FD800FDF77EFA00230A93D8F8003005900733EE
:102FE80023F0070303F1080294F818A0D4F800B0FE
:102FF800C8F80020D3E90023C4E91223D4E91289D0
:1030080029F000430793CDF818804FF0FF32A74B03
:10301800DDE90601FDF7BAFE70BB4FF0FF32A34BA6
:10302800DDE90601FDF794FE30BB0022002340468F
:103038004946FDF783FE10B12D2384F843309C4A9E
:103048009C4BBAF1470F8CBF9046984603232BF050
:103058000402236122604FF00009009733460BAA4F
:103068002146284600F0E6F9013040F08D804FF007
:10307800FF300DB0BDE8F08F42464B46404649460A
:10308800FDF784FE10B18C4A8C4BDAE761684B1C63
:103098004BF480620AA83ED1062363600023CDE981
:1030A800020309AB009349EC108B0DF12303226056
:1030B800CDF804A061682846FFF7E8FE0AF0DF03B0
:1030C800472B804609D1099BD81C02DB62689342D2
:1030D80047DDAAF1020A5FFA8AFABAF1650F09997F
:1030E80024D80139524604F150000991FFF72FFF07
:1030F8000A9A1318012A8146236102DC2268D10743
:1031080001D5013323619DF82330002BA5D02D2351
:1031180084F84330A1E7BAF1670F00F07781BAF17C
:10312800470FBBD10029B9D10123B6E7BAF1660F21
:1031380019D1002963680CDD216113B92268D2070F
:1031480002D501330B442361099BA3654FF00009A5
:10315800D9E713B92268D00701D50233F3E7012371
:10316800F1E74FF0670ADDE90932934205DB22688F
:103178002361D107E8D50133E5E7002BD4BFC3F1BC
:10318800020301231344DEE723685A0507D42369A1
:10319800424631462846B84701302BD167E7BAF195
:1031A800650F40F2DC8000220023D4E91201FDF70C
:1031B800BBFD002833D00123414A31462846B84791
:1031C80001303FF454AFDDE909239A4202DB23685A
:1031D800D8070FD5DDE9042331462846B847013022
:1031E8003FF445AF4FF0000804F11A090A9B013B70
:1031F800434509DC23689B0700F10381E0680B9BCA
:103208009842B8BF184634E701234A463146284653
:10321800B84701303FF42BAF08F10108E6E7099BF6
:10322800002B2BDC0123264A31462846B8470130BB
:103238003FF41DAF099B23B90A9B13B92368D9072B
:10324800D8D5DDE9042331462846B84701303FF494
:103258000EAF4FF0000904F11A0A099B5B424B4577
:1032680001DC0A9B94E70123524631462846B847B9
:1032780001303FF4FCAE09F10109EEE70A9AA36DAB
:103288009A42A8BF1A46002A914607DD13463146DE
:1032980042462846B84701303FF4E9AE04F11A0324
:1032A8004FF0000B29EAE979069315E0FFFFEF7F5D
:1032B80094520008905200089C5200089852000846
:1032C800A05200080123069A31462846B847013023
:1032D8003FF4CDAE0BF1010BD4F858A0AAEB0903CB
:1032E8005B45EFDCDDE909239A42D04415DB23680E
:1032F800DA0712D40A9B0999A3EB0A02A3EB010A85
:103308009245A8BF9246BAF1000F0EDC4FF00008B4
:103318002AEAEA7A04F11A0919E0DDE904233146B8
:103328002846B8470130E5D1A1E653464246314622
:103338002846B8470130E9D199E601234A46314683
:103348002846B84701303FF492AE08F10108DDE99C
:1033580009239B1AA3EB0A034345EEDC4AE70A9AC2
:10336800012A01DCDB073AD50123424631462846CB
:10337800B84701303FF47BAEDDE9042331462846E7
:10338800B847013008F101083FF471AE0A9B0022EA
:1033980003F1FF3AD4E912010023FDF7C5FCC8B9CF
:1033A8005346424631462846B84701300ED15EE6BC
:1033B8000123524631462846B84701303FF457AEFC
:1033C80008F101080A9B013B4345F1DC4B4604F137
:1033D8005002DEE64FF0000804F11A0AF2E7012372
:1033E800DFE701234A4631462846B84701303FF413
:1033F8003EAE08F10108E3680B9A9B1A4345F0DCDE
:10340800FCE64FF0000804F11909F4E700293FF43D
:103418008BAE0023CDE9020309AB009349EC108B76
:103428002260CDF804A00DF123032846FFF72EFDF6
:10343800804648E62DE9F04791461F468A680B69A1
:10344800DDF820809342B8BF1346C9F8003091F8E0
:10345800432006460C4612B10133C9F800302368F0
:10346800990642BFD9F800300233C9F80030256800
:1034780015F0060507D104F1190AE368D9F8002008
:103488009B1AAB4228DC94F843302268003318BFFB
:10349800012392062DD404F1430239463046C04731
:1034A800013020D02368E568D9F8002003F006032E
:1034B800042B08BFAD1AA36822690CBF25EAE5757D
:1034C80000259342C4BF9B1AED184FF000091A3427
:1034D8004D451AD1002008E00123524639463046AE
:1034E800C047013003D14FF0FF30BDE8F087013508
:1034F800C3E7E1185A1C302081F84300224494F8AD
:10350800451082F843100233C5E7012322463946A5
:103518003046C0470130E6D009F10109D8E700007C
:1035280070B50E46054618B183690BB901F050F81D
:10353800AB69AC6813B9284601F04AF8234B9C42A2
:1035480017D16C68A3891B071DD52369DBB1013E20
:10355800A36816F8011F013BA360E9B9002B2EDA16
:1035680022460A21284600F03FF8013011D00A20EF
:1035780011E0174B9C4201D1AC68E3E7154B9C4224
:1035880008BFEC68DEE72146284600F07FF80028EF
:10359800DDD04FF0FF3070BD002B04DAA2699A42EB
:1035A80006DC0A2904D023685A1C22601970CFE768
:1035B8002246284600F018F80130C9D1E9E7236807
:1035C8000A205A1C22601870E5E700BFD052000894
:1035D800F0520008B0520008024B01461868FFF785
:1035E8009FBF00BF04000020F8B50E4614460546EC
:1035F80018B183690BB900F0EBFF214B9C422AD12B
:103608006C68A369A360A3891A072ED5236963B3DD
:1036180023692068C01A6369F6B28342374604DC1E
:103628002146284600F06AFF28BBA368013BA36037
:1036380023685A1C22601E7063690130834204D0DB
:10364800A389DB0719D50A2E17D12146284600F091
:1036580055FF90B10FE00B4B9C4201D1AC68D0E70D
:10366800094B9C4208BFEC68CBE72146284600F08E
:103678000DF80028CCD04FF0FF373846F8BD00BF12
:10368800D0520008F0520008B0520008324B70B512
:103698001D6806460C4625B1AB6913B9284600F0EB
:1036A80097FF2E4B9C420FD16C68B4F90C309AB23C
:1036B80015072CD4D00611D40922326043F04003F8
:1036C800A3814FF0FF303EE0254B9C4201D1AC680E
:1036D800EBE7244B9C4208BFEC68E6E7510712D59C
:1036E800616B41B104F14403994202D0304601F0C4
:1036F80067FB00236363A38923F02403A3810023CA
:10370800636023692360A38943F00803A3812369C5
:103718004BB9A38903F42073B3F5007F03D0214686
:10372800304601F011F8A28912F001030CD00023F1
:10373800A36063695B42A361236953B9B4F90C3090
:1037480013F08000BAD170BD920758BF6369A360B7
:10375800F2E70020F7E700BF04000020D05200087D
:10376800F0520008B05200082DE9F74F03690C69C0
:10377800A3428046C0F28280013C01F114074FEA5F
:10378800840C00F1140657F8245056F8240006EB70
:103798000C03013507EB0C090193B0FBF5F595B364
:1037A8004FF0000A3846B646D34650F8042B93B279
:1037B80005FB03A34FEA134A9BB2ABEB0303120CBE
:1037C800DEF800B005FB02A213FA8BF34FEA124AA7
:1037D8001FFA82FBDEF80020CBEB124202EB2342F9
:1037E8009BB243EA024381454FEA224B4EF8043B21
:1037F800DBD256F80C3033B9019B043B9E421A4683
:1038080030D3C8F81040404601F006FA002825DBFE
:10381800013530464FF0000C57F8042BD0F800E083
:1038280093B2ACEB0303120C13FA8EF3C2EB1E42F5
:1038380002EB23429BB243EA0243B9454FEA224CCA
:1038480040F8043BE8D256F8242006EB84032AB952
:10385800043B9E421A460BD3C8F81040284603B0D2
:10386800BDE8F08F1268043B002ACAD1013CC5E7C5
:103878001268043B002AEFD1013CEAE70020EEE79A
:103888002DE9F04F57EC106B97B0456A0691044646
:103898000B921293DDF88080CDE900673DB91020C6
:1038A80000F092FF6062C0E901550560C560636A77
:1038B800196851B15A684A60012393408B602046C9
:1038C80000F0C9FF636A00221A603B1EBBBF23F0E9
:1038D8000043019300230122ACBFC8F80030C8F8A8
:1038E8000020AF4BDDF8048033EA080314D1129AA4
:1038F80042F20F731360009B23B9C8F3130000282A
:1039080000F04285219BDFF8ACB2002B00F0448523
:103918000BF1030300F03EBDDDE900670022002340
:1039280030463946FDF700FA814668B1129A0123FC
:103938001360219B002B00F024859A4B219A03F1F8
:10394800FF3B136000F028BD14AA15A947EC106BC3
:10395800204601F0D8F9C8F30A550490002D7CD010
:10396800C7F3130343F07F5BB2464BF4401BA5F249
:10397800FF35CDF84C9000228B4B50465946FCF74A
:10398800B3FD81A3D3E90023FCF766FF80A3D3E945
:103998000023FCF7ABFD064628460F46FCF7F2FE6F
:1039A8007DA3D3E90023FCF757FF02460B463046B8
:1039B8003946FCF79BFD06460F46FDF7FDF9002248
:1039C8008246002330463946FDF7B8F948B15046DB
:1039D800FCF7D8FE32463B46FDF7A6F908B90AF1CE
:1039E800FF3ABAF1160F59D8704901EBCA01DDE95F
:1039F8000023D1E90001FDF7BFF9002850D00AF1F2
:103A0800FF3A00230F93149B5D1BB5F1010849BFD2
:103A1800C5F10103002305934FF0000858BF059333
:103A2800BAF1000F3EDB0023D044CDF838A007934D
:103A3800069B092B00F29080052BC4BF043B06931C
:103A4800069BA3F10203CCBF00250125032B00F23E
:103A58008F80DFE803F07D7F3171DDE914531D4469
:103A680005F23240202813DDC0F14000009B08FA1F
:103A780000F805F2124023FA00F048EA0000FCF7CB
:103A880071FE01238246A1F1F87B013D139372E791
:103A9800009BC0F1200003FA00F0F0E70123B1E732
:103AA8000F90B0E7059BA3EB0A030593CAF1000347
:103AB800079300230E93BBE701230A930B9B002B6C
:103AC80059DD02939946666A00227260042202F167
:103AD80014009842716853D9204600F088FE636A42
:103AE8003060B9F10E0FD3F800B000F2E680002D77
:103AF80000F0E3809DED007BBAF1000F8DED107BA7
:103B080074DD2A4A0AF00F0302EBC30393ED007B2E
:103B18004FEA2A16F0068DED087B65D5244BDDE9C2
:103B28001001D3E90823FCF7C1FFCDE9000106F035
:103B38000F0603251E4F4CE001230A930B9B5344A9
:103B480003F1010902934B46012BB8BF0123BAE7E1
:103B58000023B2E70023F0E70125002306930A9526
:103B68004FF0FF3302939946002212230B92AAE7E3
:103B780001230A93F4E70123029399461A46F5E7CD
:103B8800013171605200A2E761436F63A787D23F9A
:103B9800B3C8608B288AC63FFB799F501344D33F34
:103BA8000000F07FA15200080000F83F38530008D9
:103BB80010530008AB520008F10708D5DDE90801E9
:103BC800D7E90023FCF748FECDE908010135761056
:103BD8000837002EF0D1DDE90823DDE90001FCF704
:103BE80065FFCDE900011AE00225A3E700F0A080F7
:103BF800CAF100069F4BA04F06F00F0203EBC20369
:103C0800D3E90023DDE91001FCF726FECDE9000128
:103C1800361100230225002E7FD1002BE1D10F9B06
:103C2800002B00F08780DDE900670022934B3046C7
:103C38003946FDF783F800287CD0B9F1000F79D018
:103C4800029B002B35DD0AF1FF3308933946002229
:103C58008B4B3046FCF700FECDE90001029F013591
:103C68002846FCF78FFDDDE90023FCF7F5FD00226F
:103C7800844BFCF73BFC0546A1F15076002F5DD143
:103C88000022814BDDE90001FCF72EFC2A46334671
:103C9800CDE90001FDF770F8002840F088822A4637
:103CA80006F10043DDE90001FDF748F8002840F07F
:103CB8007C82DDE91023CDE90023159B002BC0F29F
:103CC8005081BAF10E0F00F34C816A4B03EBCA0323
:103CD80093ED007B0B9B002B8DED027B80F2D8804F
:103CE800B9F1000F00F3D48040F05E820022664BE9
:103CF80051EC170BFCF7B0FDDDE90023FDF732F8B6
:103D08004F464E46002840F0348231230BF101051E
:103D18008BF800300AF1010A2FE2F20705D5D7E93E
:103D28000023FCF799FD013501237610083772E767
:103D3800022574E7CDF820A04F4691E74D4B03EBE1
:103D4800C70353E902010A9B002B47D002460B46E2
:103D580000204E49FCF7AAFE2A463346FCF7C4FB6E
:103D6800CDE90C015D46DDE90001FDF725F80646C1
:103D7800FCF708FD02460B46DDE90001FCF7B4FB41
:103D8800303605F8016BDDE90C23CDE90001FCF7BD
:103D9800D5FF002863D1DDE9002300203749FCF76F
:103DA800A3FBDDE90C23FCF7C9FF002840F0B7802E
:103DB800A5EB0B039F427FF77CAF0022304BDDE978
:103DC8000C01FCF749FD0022CDE90C012C4BDDE983
:103DD8000001FCF741FDCDE90001C4E72A4633465E
:103DE800FCF73AFDCDE90C010BEB07055E46DDE972
:103DF8000001FCF7E1FF0746FCF7C4FC3037024638
:103E08000B46DDE90001FCF76FFB06F8017BAE42CB
:103E1800CDE900014FF0000226D11C4BDDE90C0171
:103E2800FCF764FB02460B46DDE90001FCF7A4FF42
:103E3800002874D1DDE90C2300201449FCF754FB59
:103E480002460B46DDE90001FCF778FF00283FF445
:103E580030AF15F8013C302B05F1FF3202D0DDF808
:103E680020A04AE01546F4E7054BFCF7F5FCCDE940
:103E78000001BCE738530008105300080000F03F69
:103E88000000244000001C40000014400000E03FF7
:103E9800DDE900675D46DDE9022330463946FCF777
:103EA80005FEFCF789FF8046FCF76CFCDDE9022380
:103EB800FCF7D2FC02460B463046394608F130067C
:103EC800FCF712FB05F8016BA5EB0B06B1450246A2
:103ED8000B4639D1FCF70AFBDDE9022306460F46FB
:103EE800FCF74AFFC8B9DDE9022330463946FCF73A
:103EF8001BFF10B118F0010F0FD10499204600F0F4
:103F0800AAFC0023129A2B700AF101031360219B6B
:103F1800002B00F041821D603EE2CDF820A015F88C
:103F2800012C392A05F1FF3308D19B450AD1089B9A
:103F38000133089330238BF800305B461A7801323E
:103F48001A708CE71D46EAE700229B4BFCF784FCBD
:103F58000022002306460F46FCF7E6FE00289AD00A
:103F6800CBE70A9A002A00F08B80069A012A6EDCB9
:103F7800139A002A67D003F23343079F059D059AD9
:103F880001211A4420460592984400F004FD064693
:103F9800002D0CDDB8F1000F09DD4545059A2B46CB
:103FA800A8BF4346D21A0592ED1AA8EB0308079B4F
:103FB800EBB10A9B002B67D08FB131463A462046B9
:103FC80000F088FD049A01460646204600F0ECFC05
:103FD80004990890204600F03EFC089B0493079B38
:103FE800DA1B04D00499204600F074FD04900121E6
:103FF800204600F0D0FC0E9B0746002B00F0D08135
:104008001A460146204600F065FD069B012B07462F
:1040180040DC009B002B39D1019BC3F31303002B19
:1040280036D1019B23F000431B0D1B052BB1059BCB
:104038000133059308F10108012307930E9B002B18
:104048002AD1012030E0149BC3F1360395E7079B82
:1040580009F1FF37BB42BFBF079B0797FA1A0E9BB0
:10406800BBBF9B180E93DF1B0027B9F1000FB5BF2C
:10407800059B059DA3EB09054B46B8BF00237EE7CA
:10408800079F059D0A9E83E7079AABE70023D4E7BD
:10409800009BD2E7002307933B6907EB830318696A
:1040A80000F02BFCC0F12000404410F01F0047D066
:1040B800C0F12003042B3BDD059BC0F11C00034429
:1040C800059305448044059B002B05DD1A46049999
:1040D800204600F04DFD0490B8F1000F05DD39468B
:1040E8004246204600F044FD07460F9B53B339462D
:1040F800049800F091FD002824DA00230A2204998C
:10410800204600F0BFFB0A9B04900AF1FF3A002BFF
:1041180000F04D81002331460A22204600F0B2FB10
:10412800029B002B06464FDC069B022B4CDD11E060
:10413800C9D0059A1C331A4405921D449844C2E715
:104148000346F6E7B9F1000F38DC069B022B35DD94
:10415800CDF80890029B63B939460522204600F045
:1041680091FB01460746049800F056FD00283FF7EA
:10417800CCAD0B9B5D466FEA030A4FF00009394648
:10418800204600F068FB002E3FF4B7AEB9F1000FEF
:1041980005D0B14503D04946204600F05CFB3146C6
:1041A800204600F058FBA8E600273E46E1E7DDF888
:1041B80020A03E46A9E500BF000024400A9BCDF898
:1041C8000890002B00F0FA80002D05DD31462A46C4
:1041D800204600F0CDFC0646079B002B4CD07168AA
:1041E800204600F004FB326902320546920006F1CF
:1041F8000C010C3000F0F0FA01222946204600F0AC
:10420800B7FC009BCDF814B003F00103B146079347
:10421800064639460498FFF7A7FA4946054600F1CD
:104228003008049800F0F8FC3246009039462046E1
:1042380000F00CFDC368024603BB014608900498D1
:1042480000F0EAFC089A034611462046089300F05D
:1042580002FB089BA3B9069A92B9079A82B9B8F1EA
:10426800390F29D0009B002B01DD05F13108059B92
:104278005D1C83F8008082E73046C2E70123E3E74C
:10428800009A002A04DB25D1069A1ABB079A0ABBB2
:10429800002BECDD01220499204600F069FC394628
:1042A800049000F0B9FC002803DCE0D118F0010FFD
:1042B800DDD0B8F1390FD8D1059B059A5D1C39239B
:1042C800137015F8013C392B05F1FF324FD001333B
:1042D800137054E7059A002B02F1010506DDB8F1C9
:1042E800390FE9D008F10108059BC2E7029A05F8E1
:1042F800018CA5EB0B03934221D000230A220499D9
:10430800204600F0BFFAB14504904FF000034FF08B
:104318000A024946204605D100F0B4FA814606460D
:10432800059576E700F0AEFA3146814600230A2269
:10433800204600F0A7FA0646F2E74FF000090122EE
:104348000499204600F014FC3946049000F064FCFF
:104358000028B6DC02D118F0010FB2D115F8013CE3
:10436800302B05F1FF327FF40AAF1546F6E7934587
:1043780005D131230AF1010A8BF80030FFE6154612
:104388009FE7DFF864B007E0219BDFF860B01BB15E
:104398000BF10803219A1360584617B0BDE8F08F57
:1043A800069B012B7FF735AE0E9B079349E6029BD0
:1043B800002B03DC069B022B3FF7CCAE5D4639464B
:1043C8000498FFF7D1F900F1300805F8018B029A3B
:1043D800A5EB0B039A42B0DD00230A22049920467C
:1043E80000F050FA0490EAE7A0520008A252000830
:1043F8008A892DE9F041054610070C4658D44B68C8
:10440800002B05DC0B6C002B02DC0020BDE8F081E2
:10441800E66A002EF9D0002312F480522F68216A30
:104428002B6032D0606DA3895A0705D56368C01A1E
:10443800636B0BB1236CC01A00230246E66A216A3B
:104448002846B047431CA38906D129681D2948D8A6
:10445800294ACA40D60744D500226260D904226995
:10446800226004D5421C01D12B6803B96065616BD9
:104478002F600029C9D004F14403994202D028468C
:1044880000F09EFC00206063C0E701232846B04787
:10449800411CC8D12B68002BC5D01D2B01D0162B71
:1044A80001D12F60B1E7A38943F04003A381ADE7B1
:1044B8000F69002FA9D093070E6808BF4B690F60DA
:1044C80018BF0023A6EB07088B60B8F1000F9CDD2E
:1044D80043463A46216AA66A2846B047002806DCC1
:1044E800A38943F04003A3814FF0FF308EE70744D0
:1044F800A8EB0008E9E700BF0100402038B50B69C8
:1045080005460C46DBB118B183690BB900F060F8B9
:104518000C4B9C4209D16C68B4F90C307BB1214634
:104528002846BDE83840FFF763BF074B9C4201D1DE
:10453800AC68F1E7054B9C4208BFEC68ECE700204B
:1045480038BD00BFD0520008F0520008B052000831
:10455800002310B50446C0E90033836081814366B7
:10456800C281C0E904338361194608225C30FEF732
:1045780085FC054B6362054BA362054BE362054B63
:104588002462236310BD00BF394F00085B4F000849
:10459800934F0008B74F0008014900F085B800BFE5
:1045A8000545000870B54A1E682555430E4605F1B5
:1045B800740100F053FC044640B10021C0E9001624
:1045C8000C30A06005F16802FEF758FC204670BD6B
:1045D800836910B5044633BBC0E912330365124B37
:1045E800124A1B688262984204BF0123836100F06B
:1045F8001FF86060204600F01BF8A060204600F01D
:1046080017F80022E06004216068FFF7A1FF01228B
:104618000921A068FFF79CFF02221221E068FFF73A
:1046280097FF0123A36110BD8C520008A145000823
:10463800F8B51B4B1E68B369074613B93046FFF738
:10464800C7FF4836D6E90134013B03D5336833B197
:104658003668F7E7B4F90C506DB16834F4E7042113
:104668003846FFF79FFF30600028F1D10C233B60EC
:1046780004462046F8BD0B4B6566C4E90055A560A5
:10468800C4E90335C4E905550822294604F15C004C
:10469800FEF7F4FBC4E90D55C4E91255E9E700BF7C
:1046A8008C5200080100FFFF2DE9F8438046894637
:1046B80000F14804002614B93046BDE8F883D4E96F
:1046C8000175013F01D52468F5E7AB89012B07D9AE
:1046D800B5F90E30013303D029464046C847064392
:1046E8006835EEE7044B1B68186A044B002808BFBE
:1046F8001846F030704700BF040000206800002012
:1047080070B50E46B1F90E10002996B014461D4634
:1047180007DA00232B60B3891A0610D44FF480639C
:104728000EE06A4600F06AFC0028F2DB019A02F407
:104738007042A2F500535A425A412A60EEE74023DC
:104748000020236016B070BD8B8973B59D0706469F
:104758000C4607D504F147032360236101236361F5
:1047680002B070BD01AB6A46FFF7CAFF0099054663
:10477800304600F073FB48B9B4F90C309A05EFD411
:1047880023F0030343F00203A381E3E70D4BB36275
:10479800A389206043F08003A381009B6361019B90
:1047A80020615BB1B4F90E10304600F039FC28B135
:1047B800A38923F0030343F00103A381A3891D43C5
:1047C800A581CDE7A1450008024B0146186800F015
:1047D80045BB00BF0400002010B5431E0A449142A7
:1047E80000D110BD11F8014B03F8014FF7E770B580
:1047F800456A04460E463DB91020FFF7E5FF6062A2
:10480800C0E901550560C560656AEB6883B1636AF4
:10481800DB6853F82600B8B9012101FA06F56A1DCC
:104828009200204600F0BEFA60B1C0E901650EE0D2
:1048380021220421204600F0B5FA636AE860DB68AB
:10484800002BE4D1002070BD026843F82620002325
:10485800C0E90333F7E770B5446A06460D463CB92C
:104868001020FFF7B1FF7062C0E901440460C46022
:104878003DB1736A6A68DB6853F82210296043F80F
:10488800225070BD2DE9F0410D691F4606460C46C1
:1048980001F1140C0023DCF8000081B202FB017165
:1048A8000F0C000C02FB007089B2013301EB0041D0
:1048B8009D424FEA10474CF8041BECDCD7B1A368C3
:1048C800AB4212DC616830460131FFF790FF226984
:1048D800023204F10C01804692000C30FFF77CFF95
:1048E80021463046FFF7B7FF444604EB8503013500
:1048F8005F6125612046BDE8F081020C1204034681
:10490800B2B90304102013F07F4F04BF1B02083014
:1049180013F0704F04BF1B01043013F0404F04BF65
:104928009B000230002B06DB5B0003D5013070478B
:104938000020E8E720207047036813F007020146CB
:104948000BD0DA0723D4980749BF5B089B080120DE
:104958000B605CBF0B600220704798B2A8B91B0CB3
:10496800102013F0FF0F04BF1B0A08301A0704BFFA
:104978001B0904309A0704BF9B080230DA0702D4E7
:104988005B0806D001300B6070471046E9E700204D
:1049980070472020704710B50C460121FFF727FF0C
:1049A80001224461026110BD2DE9F74F14460A69DE
:1049B80023699A42B8BF0B468846BCBFA0461C462E
:1049C800D8F81070D4F81090D8F80830D8F8041037
:1049D80007EB0906B342B8BF0131FFF708FF00F142
:1049E800140505EB860E2B460022734516D304F1F9
:1049F800140208F1140102EB890301EB8707009305
:104A0800009B019293420CD8002E03DD5EF8043D12
:104A1800002B5DD0066103B0BDE8F08F43F8042B8E
:104A2800E3E7B2F800B0BBF1000F23D08946AC46EB
:104A38004FF0000859F8044BDCF800A0A3B21FFAA5
:104A48008AFA0BFB03A34FEA144ADCF800404344FC
:104A58004FEA14480BFB0A8404EB1344E2469BB26A
:104A680043EA04434F454FEA14484AF8043B2BD81D
:104A7800CCF80480019BB3F802A00432BAF1000F0D
:104A880020D02B688946A8464FF0000BB9F800C023
:104A9800B8F802400AFB0C445C44C4469BB243EAA3
:104AA80004434CF8043B59F8043BB8F804B01B0C19
:104AB8000AFB03B303EB14434F454FEA134B05D8E6
:104AC800C8F8043004359BE7D446B3E7E046DDE791
:104AD800013E99E72DE9F843154612F00302064610
:104AE8000F4607D0013A214C002354F82220FFF743
:104AF800C9FE0746AD1035D0746A3CB91020FFF7DF
:104B080063FE7062C0E901440460C460D6F8248082
:104B1800D8F808404CB940F271213046FFF73BFF06
:104B28000023C8F80800044603604FF00008EB07AC
:104B38000AD5394622463046FFF736FF39468146C0
:104B48003046FFF788FE4F466D100BD0206838B905
:104B5800224621463046FFF727FF2060C0F8008034
:104B68000446E4E73846BDE8F88300BF005400086F
:104B78002DE9F0470C464FEA621A236949680AEBA7
:104B88000309A3680746164609F10105AB4232DB63
:104B98003846FFF72CFE0023804600F114011A4620
:104BA80053452BDB20692AEAEA7A04F1140316F04C
:104BB8001F0201EB8A0103EB800C25D0C2F1200E05
:104BC80000201E688A46964030434AF8040B53F882
:104BD800040B9C4520FA0EF014D8486008B109F17E
:104BE8000205013D3846C8F810502146FFF733FE4C
:104BF8004046BDE8F08701315B00C7E741F8232054
:104C08000133CDE75146DCE7043953F8042B41F86A
:104C1800042F9C45F9D8E4E703690A699B1A30B563
:104C28000CD19200143014318418114454F8045DE6
:104C380051F8042D954203D005D30123184630BD01
:104C4800A042F3D3FAE74FF0FF33F7E72DE9F04737
:104C58000D460746114628461446FFF7DDFF061E97
:104C680008D131463846FFF7C2FD0123C0E90436B2
:104C7800BDE8F087A4BF23462C4638466168A6BF26
:104C88001D4600260126FFF7B2FD2B69C66026697E
:104C980005F1140904F1140202EB860709EB8308F5
:104CA80000F114054FF0000E52F804AB59F8044B0C
:104CB8001EFA8AF1A3B2C91A230CC3EB1A4303EBF9
:104CC800214389B24FEA234EC84541EA034394463B
:104CD80045F8043BE8D8BC4504D355F8043D83B1F6
:104CE8000661C5E75CF8041B1EFA81F31A1402EB8F
:104CF80011429BB243EA02434FEA224E45F8043B75
:104D0800E9E7013EE9E72DE9F7430E46012159ECB1
:104D1800108B1546FFF76BFDC9F30A540746C9F314
:104D2800130334BB0193B8F1000327D002A840F85D
:104D3800083DFFF701FE0099F0B1019AC0F1200388
:104D480002FA03F30B43C2407B610192019BBB61F2
:104D5800002B14BF022101213961C4B1A4F23344EC
:104D680004443460C0F135002860384603B0BDE81B
:104D7800F08343F48013D5E77961E7E701A8FFF7EB
:104D8800DBFD019B7B61012139612030E5E707EB01
:104D98008103A0F2324030601869FFF7AEFDC0EB26
:104DA8004110E1E738B502FB01F4214600F056F85E
:104DB800054618B122460021FEF760F8284638BD9E
:104DC80038B50546002945D051F8043C0C1F002B86
:104DD800B8BFE41800F058F91F4A1368104633B9F1
:104DE800636014602846BDE8384000F04EB9A3421D
:104DF8000CD921686218934204BF1A685B68636023
:104E080004BF521822600460ECE713465A680AB1DE
:104E1800A242FAD919685818A0420BD12068014457
:104E2800581882421960DDD1106852685A600144EE
:104E38001960D7E702D90C232B60D3E72068211823
:104E48008A4204BF11685268626004BF0918216071
:104E58005C60C7E738BD00BF0402002070B5CD1CF8
:104E680025F0030508350C2D38BF0C25002D064606
:104E780001DBA94203D90C233360002070BD00F088
:104E880003F9214A1468214691B9204C23681BB9BB
:104E9800304600F03DF820602946304600F038F8EA
:104EA800431C24D10C233360304600F0EEF8E4E7CD
:104EB8000B685B1B18D40B2B0FD90B60CD50CC188B
:104EC800304600F0E2F804F10B00231D20F0070043
:104ED800C31AD3D05A42E250D0E78C424B6816BF6F
:104EE800636013600C46EBE70C464968CCE7C41CCA
:104EF80024F00304A04205D0211A304600F008F837
:104F08000130CFD02560DBE7040200200802002032
:104F180038B5064C0023054608462360FDF70CFF0C
:104F2800431C02D1236803B12B6038BD6403002001
:104F380010B50C46B1F90E1000F0A8F80028ABBF68
:104F4800636DA3891B1823F48053ACBF6365A381E9
:104F580010BD2DE9F0411F468B89DB0505460C463F
:104F6800164605D502230022B1F90E1000F068F8A4
:104F7800A389B4F90E1023F48053A38132463B462B
:104F88002846BDE8F04100F017B810B50C46B1F955
:104F98000E1000F055F8431CA38915BF606523F473
:104FA800805343F48053A38118BFA38110BDB1F986
:104FB8000E1000F013B8000038B5074C0546084637
:104FC8001146002222601A46FDF7BCFD431C02D19F
:104FD800236803B12B6038BD6403002038B5064C44
:104FE8000023054608462360FDF7C4FE431C02D192
:104FF800236803B12B6038BD6403002038B5074C23
:1050080000230546084611462360FDF7B6FE431CFB
:1050180002D1236803B12B6038BD00BF64030020B0
:1050280038B5064C0023054608462360FDF7AAFE5E
:10503800431C02D1236803B12B6038BD64030020F0
:1050480038B5074C054608461146002222601A4624
:10505800FDF79AFE431C02D1236803B12B6038BDCB
:105068006403002082B001B901A942B14BB11378A1
:105078000B601278101C18BF012002B07047104650
:10508800FBE76FF00100F8E77047704738B5074C49
:10509800054608461146002222601A46FDF73EFEE4
:1050A800431C02D1236803B12B6038BD6403002080
:1050B80049B1FF2A85BF8A2303600A704FF0FF3089
:1050C80098BF01207047084670470000F8B500BF38
:1050D800F8BC08BC9E467047F8B500BFF8BC08BCD1
:0850E8009E4670470000000025
:1050F000A0860100400D0300801A060000350C0058
:1051000040420F0080841E0000093D0000127A001A
:105110000024F40000366E010048E801006CDC0257
:105120000000000000000000010203040607080957
:10513000000000000102030448656C6C6F20776F6B
:10514000726C6421210D000048656C6C6F20776FD4
:10515000726C642121210D0025732073696D706CC0
:105160006520656E71756575652064657175657519
:10517000650D0A0025733A2564206572726F722CE2
:10518000207374617475733D3078253034580D0A7E
:105190000000000025733A2564206572726F722C3E
:1051A000206E756C6C20706F696E7465720D0A00EC
:1051B00054657374206661696C3A2025733A2564DE
:1051C0002C20693D25642C202A6974656D3D256C71
:1051D000750D0A00257320656E717565756520690A
:1051E0006D6D65646961746520646571756575656B
:1051F0000D0A000054657374206661696C3A2025BD
:10520000733A25640D0A0000257320656E7175657B
:1052100075652031206578747261200D0A000000E8
:10522000257320656E717565756520327820657807
:10523000747261200D0A0000257320646571756524
:10524000756520656D707479200D0A00746573743E
:10525000206661696C2025733A25642C207465737F
:10526000745F636F756E746572203D20256C750DDB
:105270000A00000054657374207461736B000000B1
:10528000456D707479205461736B00000800002034
:10529000494E4600696E66004E414E006E616E00DA
:1052A0003000496E66696E697479004E614E000087
:1052B00000000000000000000000000000000000EE
:1052C00000000000000000000000000000000000DE
:1052D00000000000000000000000000000000000CE
:1052E00000000000000000000000000000000000BE
:1052F00000000000000000000000000000000000AE
:10530000000000000000000000000000000000009D
:105310000080E03779C34143176E05B5B5B89346B1
:10532000F5F93FE9034F384D321D30F94877825A7D
:105330003CBF737FDD4F1575000000000000F03F9B
:105340000000000000002440000000000000594060
:105350000000000000408F40000000000088C340B3
:1053600000000000006AF8400000000080842E4128
:1053700000000000D01263410000000084D7974174
:105380000000000065CDCD41000000205FA002427A
:10539000000000E876483742000000A2941A6D42EF
:1053A000000040E59C30A2420000901EC4BCD642E2
:1053B00000003426F56B0C430080E03779C341438D
:1053C00000A0D8855734764300C84E676DC1AB4303
:1053D000003D9160E458E143408CB5781DAF154421
:1053E00050EFE2D6E41A4B4492D54D06CFF08044FC
:1053F000F64AE1C7022DB544B49DD9794378EA4411
:1054000005000000190000007D0000004300504F1F
:10541000534958002E00002020202020202020204A
:105420002828282828202020202020202020202054
:105430002020202020202088101010101010101084
:1054400010101010101010040404040404040404C8
:105450000410101010101010414141414141010150
:10546000010101010101010101010101010101012C
:10547000010110101010101042424242424202023A
:1054800002020202020202020202020202020202FC
:1054900002021010101020000000000000000000A8
:1054A00000000000000000000000000000000000FC
:1054B00000000000000000000000000000000000EC
:1054C00000000000000000000000000000000000DC
:1054D00000000000000000000000000000000000CC
:1054E00000000000000000000000000000000000BC
:1054F00000000000000000000000000000000000AC
:10550000000000000000000000000000000000009B
:08551000000000000000000093
:08551800F0ACFF7F0100000070
:08552000BD01000800000000BD
:085528009901000800000000D9
:1055300000093D000800002000000000D0520008D3
:10554000F0520008B0520008000000000000000007
:10555000000000000000000000000000000000004B
:10556000000000000000000000000000000000003B
:10557000000000000000000000000000000000002B
:10558000000000000000000000000000000000001B
:1055900000000000000000004300000000000000C8
:1055A00000000000000000000000000000000000FB
:1055B00000000000000000004300000000000000A8
:1055C00000000000000000000000000000000000DB
:1055D0000000000000000000430000000000000088
:1055E00000000000000000000000000000000000BB
:1055F0000000000000000000430000000000000068
:10560000000000000000000000000000000000009A
:105610000000000000000000430000000000000047
:10562000000000000000000000000000000000007A
:105630000000000000000000430000000000000027
:10564000000000000000000000000000000000005A
:105650000000000000000000430000000000000007
:10566000000000000000000000000000000000003A
:105670000000000000000000B95000086D50000854
:1056800000000000165400081454000815540008C7
:105690001554000815540008155400081554000846
:1056A0001554000815540008155400081554000836
:1056B000FFFFFFFFFFFFFFFFFFFFFFFFFFFF0000F8
:1056C0000100415343494900000000000000000070
:1056D00000000000000000000000000000000000CA
:1056E0000000415343494900000000000000000051
:1056F00000000000000000000000000000000000AA
:085700000000000000000000A1
:0400000508002DDDE5
:00000001FF
