:020000040800F2
:1000000000800220F9460008094600080B46000857
:100010000D4600080F4600081146000800000000C9
:10002000000000000000000000000000134600086F
:100030001546000800000000174600081946000891
:100040004947000849470008494700084947000850
:100050004947000849470008494700084947000840
:100060004947000849470008494700084947000830
:100070004947000849470008494700084947000820
:100080002146000831460008494700084947000852
:100090004947000849470008494700084947000800
:1000A00049470008494700084947000849470008F0
:1000B0004947000849470008000000004947000878
:1000C00049470008494700084947000849470008D0
:1000D00049470008494700084947000849470008C0
:1000E00049470008494700080000000000000000E0
:1000F0000000000000000000000000000000000000
:1001000000000000494700080000000049470008BF
:1001100049470008000000004947000800000000AF
:10012000494700084947000849470008494700086F
:1001300049470008494700084947000800000000F7
:10014000494700084947000849470008494700084F
:10015000494700084947000849470008494700083F
:1001600049470008494700084947000800000000C7
:1001700000000000494700080000000000000000E7
:10018000494700084947000849470008494700080F
:080190004947000800000000CF
:1001A00010B5054C237833B9044B13B10448AFF3B1
:1001B00000800123237010BDA8050020000000006E
:1001C0006072000808B5034B1BB103490348AFF345
:1001D000008008BD00000000AC050020607200082F
:1001E00053B94AB9002908BF00281CBF4FF0FF319E
:1001F0004FF0FF3000F072B9ADF1080C6DE904CE9C
:1002000000F006F8DDF804E0DDE9022304B07047F1
:100210002DE9F047089E04468846002B4BD18A42C0
:10022000154667D9B2FA82F24AB1C2F1200701FA43
:1002300002F320FA07F7954047EA030894404FEA93
:10024000154E230CB8FBFEF71FFA85FC0EFB178832
:1002500043EA084307FB0CF1994209D9EB1807F16F
:10026000FF3080F01B81994240F21881023F2B44FD
:100270005B1AA4B2B3FBFEF00EFB103344EA034456
:1002800000FB0CFCA44509D92C1900F1FF3380F0C8
:100290000781A44540F2048102382C4440EA07401B
:1002A000A4EB0C0400271EB1D4400023C6E9004390
:1002B0003946BDE8F0878B4209D9002E00F0EB806B
:1002C0000027C6E9000138463946BDE8F087B3FA91
:1002D00083F7002F47D18B4202D3824200F2FA808B
:1002E000841A61EB030301209846002EE0D0C6E992
:1002F0000048DDE702B9FFDEB2FA82F2002A40F0E0
:100300008F80491B4FEA154E1FFA85F80127B1FB74
:10031000FEFC230C0EFB1C1143EA014308FB0CF10D
:10032000994207D9EB180CF1FF3002D2994200F242
:10033000CD808446591AA3B2B1FBFEF00EFB101417
:1003400043EA044408FB00F8A04507D92C1900F142
:10035000FF3302D2A04500F2B6801846A4EB080491
:1003600040EA0C409FE7C7F1200CBB4022FA0CFE8C
:100370004EEA030E01FA07F420FA0CF521FA0CF309
:100380004FEA1E482543B3FBF8F92C0C08FB193340
:100390001FFA8EFA44EA034309FB0AF49C4202FA6C
:1003A00007F200FA07F10BD91EEB030309F1FF3046
:1003B00080F087809C4240F28480A9F10209734456
:1003C0001B1BADB2B3FBF8F008FB103345EA034446
:1003D00000FB0AFAA24508D91EEB040400F1FF3322
:1003E0006BD2A24569D90238744440EA0940A0FBA7
:1003F0000289A4EB0A044C45C2464B4654D351D063
:10040000002E69D0B1EB0A0564EB030404FA0CFC7E
:10041000FD40FC404CEA0505C6E90054002747E7CB
:10042000C2F1200320FA03F7954001FA02F021FA05
:1004300003F34FEA154E3843010CB3FBFEF71FFAE6
:1004400085F80EFB173341EA034107FB08F38B42A3
:1004500004FA02F407D9691807F1FF3C2FD28B4246
:100460002DD9023F2944CB1A81B2B3FBFEF00EFB1B
:10047000103341EA034100FB08F38B4207D96918A6
:1004800000F1FF3C17D28B4215D902382944C91A12
:1004900040EA07473BE73746304609E70746E7E6C5
:1004A0001846FBE64145ABD2B8EB020A69EB0E02F7
:1004B00001381346A4E76046E9E7184695E7674622
:1004C000D1E781467CE702382C4447E7ACF1020CC7
:1004D0002B442FE7384608E73746E9E6704700BF68
:1004E000034613F8012B002AFBD1181A0138704774
:1004F00001F0FF01102A2BDB10F0070F08D010F8D5
:10050000013B013A8B422DD010F0070F42B3F6D1D8
:10051000F0B441EA012141EA014122F007047FF0F1
:1005200000070023F0E80256083C85EA010586EA48
:10053000010685FA47F5A3FA87F586FA47F6A5FA84
:1005400087F68EB9EED1F0BC01F0FF0102F0070290
:1005500032B110F8013B013A83EA010313B1F8D13B
:100560000020704701387047002D06BF354603381C
:10057000073815F0010F07D1013015F4807F02BF55
:10058000013015F4C03F0130F0BC0138704700BFA6
:1005900081F0004102E000BF83F0004330B54FEA34
:1005A00041044FEA430594EA050F08BF90EA020FA1
:1005B0001FBF54EA000C55EA020C7FEA645C7FEA34
:1005C000655C00F0E2804FEA5454D4EB5555B8BF57
:1005D0006D420CDD2C4480EA020281EA030382EAC8
:1005E000000083EA010180EA020281EA0303362D5A
:1005F00088BF30BD11F0004F4FEA01314FF4801C2D
:100600004CEA113102D0404261EB410113F0004F3E
:100610004FEA03334CEA133302D0524263EB4303F5
:1006200094EA050F00F0A780A4F10104D5F1200E93
:100630000DDB02FA0EFC22FA05F2801841F10001EE
:1006400003FA0EF2801843FA05F359410EE0A5F1C2
:1006500020050EF1200E012A03FA0EFC28BF4CF0F3
:10066000020C43FA05F3C01851EBE37101F00045A9
:1006700007D54FF0000EDCF1000C7EEB00006EEBB6
:100680000101B1F5801F1BD3B1F5001F0CD3490840
:100690005FEA30004FEA3C0C04F101044FEA445297
:1006A00012F5800F80F09A80BCF1004F08BF5FEA1E
:1006B000500C50F1000041EB045141EA050130BDFE
:1006C0005FEA4C0C404141EB010111F4801FA4F1A1
:1006D0000104E9D191F0000F04BF01460020B1FAF6
:1006E00081F308BF2033A3F10B03B3F120020CDA2E
:1006F0000C3208DD02F1140CC2F10C0201FA0CF00C
:1007000021FA02F10CE002F11402D8BFC2F1200C70
:1007100001FA02F120FA0CFCDCBF41EA0C01904026
:10072000E41AA2BF01EB0451294330BD6FEA04046F
:100730001F3C1CDA0C340EDC04F11404C4F120025A
:1007400020FA04F001FA02F340EA030021FA04F36C
:1007500045EA030130BDC4F10C04C4F1200220FAC3
:1007600002F001FA04F340EA0300294630BD21FA01
:1007700004F0294630BD94F0000F83F4801306BFC7
:1007800081F480110134013D4EE77FEA645C18BFBB
:100790007FEA655C29D094EA050F08BF90EA020F52
:1007A00005D054EA000C04BF1946104630BD91EA4A
:1007B000030F1EBF0021002030BD5FEA545C05D14D
:1007C0004000494128BF41F0004130BD14F580048C
:1007D0003CBF01F5801130BD01F0004545F0FE4100
:1007E00041F470014FF0000030BD7FEA645C1ABF35
:1007F000194610467FEA655C1CBF0B46024650EA6C
:10080000013406BF52EA033591EA030F41F4002197
:1008100030BD00BF90F0000F04BF0021704730B51D
:100820004FF4806404F132044FF000054FF00001F2
:1008300050E700BF90F0000F04BF0021704730B5B3
:100840004FF4806404F1320410F0004548BF404288
:100850004FF000013EE700BF42004FEAE2014FEADD
:1008600031014FEA02701FBF12F07F4393F07F4FB8
:1008700081F06051704732F07F4208BF704793F0BB
:100880007F4F04BF41F40021704730B54FF46074CE
:1008900001F0004521F000411CE700BF50EA0102D1
:1008A00008BF704730B54FF000050AE050EA01027A
:1008B00008BF704730B511F0004502D5404261EBEA
:1008C00041014FF4806404F132045FEA915C3FF42B
:1008D000D8AE4FF003025FEADC0C18BF03325FEAC8
:1008E000DC0C18BF033202EBDC02C2F1200300FA79
:1008F00003FC20FA02F001FA03FE40EA0E0021FA9E
:1009000002F11444BDE600BF70B54FF0FF0C4CF48B
:10091000E06C1CEA11541DBF1CEA135594EA0C0F3D
:1009200095EA0C0F00F0DEF82C4481EA030621EA78
:100930004C5123EA4C5350EA013518BF52EA0335B3
:1009400041F4801143F4801338D0A0FB02CE4FF065
:100950000005E1FB02E506F00042E0FB03E54FF095
:100960000006E1FB03569CF0000F18BF4EF0010E8D
:10097000A4F1FF04B6F5007F64F5407404D25FEA89
:100980004E0E6D4146EB060642EAC62141EA55513C
:100990004FEAC52040EA5E504FEACE2EB4F1FD0C7E
:1009A00088BFBCF5E06F1ED8BEF1004F08BF5FEAFC
:1009B000500E50F1000041EB045170BD06F00046AE
:1009C00046EA010140EA020081EA0301B4EB5C045B
:1009D000C2BFD4EB0C0541EA045170BD41F4801153
:1009E0004FF0000E013C00F3AB8014F1360FDEBF78
:1009F000002001F0004170BDC4F10004203C35DA54
:100A00000C341BDC04F11404C4F1200500FA05F3D6
:100A100020FA04F001FA05F240EA020001F0004277
:100A200021F0004110EBD37021FA04F642EB0601ED
:100A30005EEA430E08BF20EAD37070BDC4F10C0417
:100A4000C4F1200500FA04F320FA05F001FA04F2DB
:100A500040EA020001F0004110EBD37041F10001C7
:100A60005EEA430E08BF20EAD37070BDC4F12005D2
:100A700000FA05F24EEA020E20FA04F301FA05F23A
:100A800043EA020321FA04F001F0004121FA04F2E2
:100A900020EA020000EBD3705EEA430E08BF20EAB2
:100AA000D37070BD94F0000F0FD101F000464000EC
:100AB00041EB010111F4801F08BF013CF7D041EA6E
:100AC000060195F0000F18BF704703F00046520072
:100AD00043EB030313F4801F08BF013DF7D043EA43
:100AE0000603704794EA0C0F0CEA135518BF95EAF9
:100AF0000C0F0CD050EA410618BF52EA4306D1D180
:100B000081EA030101F000414FF0000070BD50EA9E
:100B1000410606BF1046194652EA430619D094EA28
:100B20000C0F02D150EA013613D195EA0C0F05D112
:100B300052EA03361CBF104619460AD181EA030166
:100B400001F0004141F0FE4141F470014FF000001E
:100B500070BD41F0FE4141F4780170BD70B54FF0B9
:100B6000FF0C4CF4E06C1CEA11541DBF1CEA135539
:100B700094EA0C0F95EA0C0F00F0A7F8A4EB05041B
:100B800081EA030E52EA03354FEA013100F0888012
:100B90004FEA03334FF0805545EA131343EA1263DB
:100BA0004FEA022245EA111545EA10654FEA002690
:100BB0000EF000419D4208BF964244F1FD0404F549
:100BC000407402D25B084FEA3202B61A65EB0305A5
:100BD0005B084FEA32024FF480104FF4002CB6EB62
:100BE000020E75EB030E22BFB61A754640EA0C00E2
:100BF0005B084FEA3202B6EB020E75EB030E22BF22
:100C0000B61A754640EA5C005B084FEA3202B6EB62
:100C1000020E75EB030E22BFB61A754640EA9C0021
:100C20005B084FEA3202B6EB020E75EB030E22BFF1
:100C3000B61A754640EADC0055EA060E18D04FEAAF
:100C4000051545EA16754FEA06164FEAC30343EA4F
:100C500052734FEAC2025FEA1C1CC0D111F4801F1C
:100C60000BD141EA00014FF000004FF0004CB6E715
:100C700011F4801F04BF01430020B4F1FD0C88BFB4
:100C8000BCF5E06F3FF6AFAEB5EB030C04BFB6EBBF
:100C9000020C5FEA500C50F1000041EB045170BDB2
:100CA0000EF0004E4EEA113114EB5C04C2BFD4EBDF
:100CB0000C0541EA045170BD41F480114FF0000E63
:100CC000013C90E645EA060E8DE60CEA135594EADF
:100CD0000C0F08BF95EA0C0F3FF43BAF94EA0C0FE2
:100CE0000AD150EA01347FF434AF95EA0C0F7FF457
:100CF00025AF104619462CE795EA0C0F06D152EAAB
:100D000003353FF4FDAE1046194622E750EA41068E
:100D100018BF52EA43067FF4C5AE50EA41047FF49F
:100D20000DAF52EA43057FF4EBAE12E74FF0FF3C04
:100D300006E000BF4FF0010C02E000BF4FF0010CD5
:100D40004DF804CD4FEA410C7FEA6C5C4FEA430C4E
:100D500018BF7FEA6C5C1BD001B050EA410C0CBF9D
:100D600052EA430C91EA030F02BF90EA020F0020FF
:100D7000704710F1000F91EA030F58BF994208BF66
:100D800090422CBFD8176FEAE37040F00100704723
:100D90004FEA410C7FEA6C5C02D150EA013C07D17A
:100DA0004FEA430C7FEA6C5CD6D152EA033CD3D0C5
:100DB0005DF8040B704700BF8446104662468C46BF
:100DC0001946634600E000BF01B5FFF7B7FF0028F2
:100DD00048BF10F1000F01BD4DF808EDFFF7F4FF1B
:100DE0000CBF012000205DF808FB00BF4DF808EDA6
:100DF000FFF7EAFF34BF012000205DF808FB00BFC9
:100E00004DF808EDFFF7E0FF94BF012000205DF8EA
:100E100008FB00BF4DF808EDFFF7CEFF94BF01209F
:100E200000205DF808FB00BF4DF808EDFFF7C4FF98
:100E300034BF012000205DF808FB00BF4FEA410CE1
:100E40007FEA6C5C02D150EA013C0AD14FEA430CC4
:100E50007FEA6C5C02D152EA033C02D14FF0000001
:100E600070474FF0010070474FEA410212F500123F
:100E700015D211D56FF47873B3EB625212D94FEAE1
:100E8000C12343F0004343EA505311F0004F23FACB
:100E900002F018BF404270474FF00000704750EA20
:100EA000013005D111F0004008BF6FF000407047DD
:100EB0004FF00000704700BF10B50446094B18689A
:100EC000094BA3FB0030800900F090F808B1012025
:100ED00010BD002221464FF0FF3000F047F80020FF
:100EE000F6E700BFD4030020D34D621010B50320F5
:100EF00000F02AF80020FFF7DFFF10B101242046A0
:100F000010BD044603F0C8FAF9E70000024A13686E
:100F100001331360704700BFA0060020014B186822
:100F2000704700BFA006002038B50446FFF7F6FF63
:100F30000546B4F1FF3F00D00134FFF7EFFF401B3F
:100F4000A042FAD338BD0000074AD36823F4E06317
:100F50001B041B0C000200F4E060184340F0BF606B
:100F600040F40030D060704700ED00E030B4174B23
:100F7000DB68C3F30223C3F10704042C28BF042455
:100F80001D1D062D18D9033B4FF0FF3505FA04F45B
:100F900021EA0401994005FA03F322EA0303194305
:100FA00000280BDB0901C9B200F1604000F5614087
:100FB00080F8001330BC70470023E5E700F00F0015
:100FC0000901C9B2024B1954F4E700BF00ED00E07B
:100FD00014ED00E000F01F02400901239340024A93
:100FE00042F82030704700BF00E100E00138B0F166
:100FF000807F0AD2064B5860064AF02182F82310FF
:101000000020986007221A6070470120704700BFD7
:1010100010E000E000ED00E070B4446C04F01C054A
:10102000066C0124AC407460046863608368102B14
:1010300005D0036899600368DA6070BC7047036884
:101040009A600368D960F8E7002869D010B40346B5
:101050000168344A914245D8334A0A443349A1FBD6
:101060000212120992004264314A0264022283F899
:1010700025201868016821F4FF4121F070019A6869
:10108000DC6822431C6922435C6922439C69224339
:10109000DC6922431C6A22430A4302609A68B2F563
:1010A000804F15D0196C224A914226D0214A1168EE
:1010B000586C00F01C040F20A04021EA00011160D0
:1010C000116858685C6C04F01C04A0400143116076
:1010D0000020D863012283F8252083F824005DF8DE
:1010E000044B7047144A0A441049A1FB021212092A
:1010F00092004264114A0264B8E7A8321168586C41
:1011000000F01C040F20A04021EA000111601168CA
:1011100058685C6C04F01C04A04001431160D7E7E0
:101120000120704707040240F8FFFDBFCDCCCCCCB6
:1011300000000240A8040240F8FBFDBF000402408A
:1011400038B590F82440012C33D0012480F8244095
:1011500090F82540E4B2012C04D0002380F824301C
:10116000022038BD0446022084F825000020E063F8
:101170002568286820F0010028602046FFF74CFF12
:10118000236B5BB12268136843F00E03136022687F
:10119000136843F0010313600020E2E7226813683C
:1011A00023F0040313602268136843F00A031360FA
:1011B000EDE70220D5E738B5036C196804682568A7
:1011C000436C03F01C0304229A400A4215D015F028
:1011D000040F12D0236813F0200F03D1236823F0EB
:1011E00004032360436C03F01C02016C042393404E
:1011F0004B60036B03B1984738BD02229A400A4204
:101200001CD015F0020F19D0236813F0200F06D15F
:10121000236823F00A032360012380F82530436C00
:1012200003F01C02016C022393404B60002380F802
:101230002430C36A002BDFD09847DDE7082202FA8A
:1012400003F30B42D8D015F0080FD5D0236823F054
:101250000E032360436C03F01C03016C012202FAAD
:1012600003F34B60C26380F82520002380F824300C
:10127000436B002BC0D09847BEE70000F0B482B0AB
:10128000002336E0042400E00024B4403C4302354F
:101290005B4E46F825405B4C2568D44304EA0506BE
:1012A0004F6817F4803F01D042EA0506554D2E6085
:1012B0006D6804EA05064F6817F4003F01D042EA62
:1012C0000506504D6E60AD6804EA05064F6817F4D8
:1012D000801F01D042EA05064A4DAE60ED682C4001
:1012E0004E6816F4001F01D042EA0504454AD46056
:1012F00001330A6832FA03F47ED001249C40224074
:10130000F6D04D68022D01D0122D10D1DE0808361E
:1013100050F826C003F00705AF000F25BD402CEAAA
:10132000050C0D69BD4045EA0C0540F826500668DD
:101330005F000325BD40ED4305EA060C4E6806F04C
:101340000306BE4046EA0C0606604E6806F1FF3C06
:10135000BCF1010F03D9112E01D0122E10D18668D5
:1013600005EA060CCE68BE4046EA0C068660466872
:1013700026EA04044E68C6F300169E4026434660E3
:10138000C46825408C68BC402C43C4604C6814F091
:10139000805FADD01C4C256E45F001052566246E9E
:1013A00004F001040194019C9D08AE1C144C54F8F7
:1013B000267003F00304A6000F24B44027EA0407B4
:1013C000B0F1904F3FF460AF104CA0420ED004F546
:1013D0008064A0420CD004F58064A0420AD004F5D9
:1013E0008064A0423FF44EAF07244EE701244CE74F
:1013F00002244AE7032448E702B0F0BC704700BF6C
:1014000000000140000401400010024000040048B8
:101410000AB9816270478161704703689A6912F066
:10142000020F01D000229A6203689A6912F0010F3C
:1014300003D19A6942F001029A61704770B4039E29
:1014400005686868740D04F4806444F07F7444F4A3
:10145000583444F47F7444F0030420EA0400C1F3D8
:10146000090141EA0241194331430143696070BCFB
:10147000704770B504460D46164603689B6913F025
:10148000100F1CD023689A6912F0200F19D1B5F102
:10149000FF3FF7D0FFF742FD801BA84201D8002D87
:1014A000F0D1636C43F020036364202384F841305F
:1014B000002384F8423084F84030012020E00020EE
:1014C0001EE01022DA6123682025DD612046FFF747
:1014D000A4FF2268536823F0FF7323F48B3323F4B3
:1014E000FF7323F001035360636C43F004036364F0
:1014F00084F84150002384F8423084F840300120C1
:1015000070BD70B504460D46164623689B6913F0FE
:10151000020F1DD1324629462046FFF7AAFFC8B95F
:10152000B5F1FF3FF1D0FFF7F9FC801BA84201D8CD
:10153000002DEAD1636C43F020036364202384F818
:101540004130002384F8423084F84030012000E02C
:10155000002070BD0120FCE7F8B505460F46164691
:101560001C462B689B6937EA03030CBF0123002349
:10157000B34218D1B4F1FF3FF3D0FFF7CFFC069B85
:10158000C01AA04201D8002CEBD16B6C43F02003B1
:101590006B64202385F84130002385F8423085F8BC
:1015A0004030012000E00020F8BD000070B582B09E
:1015B000044616461D46184B00934FF08073EAB25E
:1015C000FFF73CFF079A06992046FFF79AFFE8B914
:1015D000012D0ED12368F6B29E62079B0093069BF5
:1015E000002280212046FFF7B7FF034678B1012390
:1015F0000DE02368320A9A62079A06992046FFF79F
:1016000080FF38B92368F6B29E62E6E701231846E8
:1016100002B070BD0123FAE70020008070B582B0EF
:10162000044616461D46184B00930023EAB2FFF706
:1016300005FF079A06992046FFF763FFE8B9012DD9
:101640000ED12368F6B29E62079B0093069B002290
:1016500040212046FFF780FF034678B101230DE0CB
:101660002368320A9A62079A06992046FFF749FFD3
:1016700038B92368F6B29E62E6E70123184602B045
:1016800070BD0123FAE700BF0020008070B5054659
:101690000C4616462B689B6913F0200F1AD1324670
:1016A00021462846FFF7E5FEB0B9FFF737FC801B5F
:1016B000A04201D8002CEDD16B6C43F020036B6489
:1016C000202385F84130002385F8423085F84030EA
:1016D000012070BD0020FCE70120FAE7002859D066
:1016E00010B5044690F84130002B43D0242384F8F1
:1016F00041302268136823F0010313606368226895
:1017000023F0706313612268936823F400439360AD
:10171000E368012B33D0A368226843F40443936049
:10172000E368022B31D02268536843F0007343F41E
:10173000004353602268D36823F40043D3602369D5
:1017400062691343A169226843EA0123D360E36914
:10175000216A22680B4313602268136843F0010377
:10176000136000206064202384F84130206384F8F3
:10177000420010BD80F8403002F0A6FEB6E7A36834
:10178000226843F400439360CAE723684FF4006281
:101790005A60C8E7012070472DE9F04383B090F804
:1017A0004150EDB2202D40F0A48090F84040012C33
:1017B00000F0A480984617460E4604464FF00109F3
:1017C00080F84090FFF7AAFB0546009019234A468F
:1017D0004FF400412046FFF7BFFE002840F0908004
:1017E000212384F84130102384F8423000236364BD
:1017F0006762A4F82A806363638D9BB2FF2B0AD9CA
:10180000FF222285424B00934FF0807331462046E1
:10181000FFF714FE18E0628D92B222853C4B0093D4
:101820004FF00073D2B231462046FFF707FE0BE0BF
:10183000628D92B22285002300934FF00073D2B2E2
:1018400031462046FFF7FAFD638D9BB2002B33D063
:101850002A460A992046FFF754FE002852D1626AB0
:10186000236812789A62636A01336362638D013B75
:101870009BB26385238D013B9BB22385628D92B21F
:10188000002AE1D0002BDFD100950A9B00228021A5
:101890002046FFF761FE002836D1638D9BB2FF2BF7
:1018A000C6D9FF222285002300934FF08073314672
:1018B0002046FFF7C3FDC7E72A460A992046FFF7EF
:1018C000E5FE034610BB22682021D16120684268F2
:1018D00022F0FF7222F48B3222F4FF7222F0010216
:1018E000426084F84110002284F8422084F84020AD
:1018F00000E00223184603B0BDE8F0830223F9E7B5
:101900000123F7E70123F5E70123F3E70123F1E7DB
:10191000002000802DE9F04782B0BDF82C7090F8CF
:101920004150EDB2202D40F0BA800A9CDCB1D7B115
:1019300090F84040012C00F0B780984691460D4643
:1019400004464FF0010A80F840A0FFF7E7FA064688
:101950000090192352464FF400412046FFF7FCFD4A
:1019600030B101239CE04FF400734364012397E0FE
:10197000212384F84130402384F8423000236364FB
:101980000A9A62626785636301960C9B00934346E3
:101990004A4629462046FFF709FE70B9638D9BB27F
:1019A000FF2B0FD9FF222285002300934FF0807375
:1019B00029462046FFF742FD21E0002384F840300D
:1019C00053466DE0628D92B22285002300934FF062
:1019D0000073D2B229462046FFF730FD0FE0628D3A
:1019E00092B22285002300934FF00073D2B22946B1
:1019F0002046FFF723FD638D9BB2002B32D0324689
:101A00000C992046FFF77DFD00284FD1626A2368BC
:101A100012789A62636A01336362638D013B9BB201
:101A20006385238D013B9BB22385628D92B2002A90
:101A3000E1D0002BDFD100960C9B002280212046B4
:101A4000FFF78AFDA0BB638D9BB2FF2BC7D9FF2296
:101A50002285002300934FF0807329462046FFF72C
:101A6000EDFCC8E732460C992046FFF70FFE03460F
:101A700000BB22682021D1612068426822F0FF72F9
:101A800022F48B3222F4FF7222F00102426084F8C9
:101A90004110002284F8422084F8402000E0022314
:101AA000184602B0BDE8F0870223F9E70123F7E703
:101AB0000123F5E70123F3E72DE9F04782B0BDF8F4
:101AC0002C7090F84150EDB2202D40F0BC800A9C63
:101AD000DCB1D7B190F84040012C00F0B9809846B5
:101AE00091460D4604464FF0010A80F840A0FFF7EA
:101AF00015FA06460090192352464FF4004120463D
:101B0000FFF72AFD30B101239EE04FF400734364D8
:101B1000012399E0222384F84130402384F84230A5
:101B2000002363640A9A62626785636301960C9B73
:101B3000009343464A4629462046FFF76FFD70B999
:101B4000638D9BB2FF2B0FD9FF222285444B00935C
:101B50004FF0807329462046FFF770FC21E00023F8
:101B600084F8403053466FE0628D92B222853C4B40
:101B700000934FF00073D2B229462046FFF75EFC77
:101B80000FE0628D92B22285002300934FF0007324
:101B9000D2B229462046FFF751FC638D9BB2002B41
:101BA00034D000960C9B002204212046FFF7D4FC81
:101BB00000284FD123685A6A636A1A70636A013336
:101BC0006362238D013B9BB22385628D013A92B201
:101BD0006285628D92B2002ADFD0002BDDD10096A3
:101BE0000C9B002280212046FFF7B6FCA0BB638D32
:101BF0009BB2FF2BC5D9FF222285002300934FF013
:101C0000807329462046FFF719FCC6E732460C9937
:101C10002046FFF73BFD034600BB22682021D1612F
:101C20002068426822F0FF7222F48B3222F4FF72A5
:101C300022F00102426084F84110002284F8422020
:101C400084F8402000E00223184602B0BDE8F08787
:101C50000223F9E70123F7E70123F5E70123F3E77F
:101C60000024008090F84130DBB2202B24D190F882
:101C70004030012B22D0012380F84030242380F80B
:101C800041300268136823F001031360026813688F
:101C900023F48053136002681368194311600268CB
:101CA000136843F001031360202380F841300023C0
:101CB00080F8403018467047022070470220704775
:101CC00090F84130DBB2202B22D190F84030012B2C
:101CD00020D0012380F84030242380F8413002686E
:101CE000136823F0010313600268136823F4706320
:101CF00043EA012111600268136843F00103136095
:101D0000202380F84130002380F840301846704787
:101D10000220704702207047024B186800F4C06030
:101D2000704700BF00700040B0F5007F0FD01F4B20
:101D30001B6803F4C063B3F5806F34D01B4A13688B
:101D400023F4C06343F48063136000207047174B93
:101D50001B6803F4C063B3F5007F22D0134A1368F5
:101D600023F4C06343F400731360114B1A683223E9
:101D700003FB02F30F4AA2FB03239B0C013300E099
:101D8000013B0A4A526912F4806F01D0002BF7D14F
:101D9000064B5B6913F4806F01D10020704703206C
:101DA0007047002070470020704700BF007000405F
:101DB000D403002083DE1B4330B583B00546204B9F
:101DC0009B6D13F0805F0BD0FFF7A6FFB0F5007F8F
:101DD00017D0802D1FD82DD0702D2DD000211BE0C5
:101DE000174CA36D43F08053A365A36D03F080539C
:101DF0000193019BFFF790FFA36D23F08053A36530
:101E0000E4E7802D03D9A02D03D9022104E00021AD
:101E100002E0012100E003210A4A136823F00703CE
:101E20000B431360136803F007038B4206D00120B5
:101E300003B030BD0221EFE70121EDE70020F7E715
:101E40000010024000200240314A9368D26802F03C
:101E5000030213F00C030AD00C2B06D0042B1FD066
:101E6000082B20D00020014610E0012AF6D1284A94
:101E7000126812F0080F0CD1254AD2F89420C2F350
:101E80000322244951F8221043B100200C2B0DD01D
:101E900070471F4A1268C2F30312F2E70846F5E7DB
:101EA0001D480021F2E71D480021EFE7184BDA68D2
:101EB00002F00302DB68C3F302130133022A0AD0E3
:101EC000032A1AD0B1FBF3F3114AD068C0F30620FD
:101ED00000FB03F008E01048B0FBF3F30C4AD068B5
:101EE000C0F3062000FB03F0094BDB68C3F341633A
:101EF00001335B00B0FBF3F0CAE70848B0FBF3F333
:101F0000034AD068C0F3062000FB03F0ECE700BFF3
:101F100000100240A07400080024F40000127A00AF
:101F2000002800F0C182F0B583B00446AC4B9D6838
:101F300005F00C05DE6806F00306036813F0100FC9
:101F40005DD0E5B10C2D18D0A369002B00F0B7804F
:101F5000A34A136843F001031360FEF7DFFF07464F
:101F60009F4B1B6813F0020F40F09680FEF7D6FFE0
:101F7000C01B0228F4D90323A2E2012EE4D1984B1E
:101F80001B6813F0020F03D0A369002B00F08F82AF
:101F9000206A934B1B6813F0080F5DD0904B1B68B1
:101FA00003F0F00398425ED9FFF706FF002840F0E7
:101FB00080828B4B1A6842F008021A601A6822F07D
:101FC000F002216A0A431A605A6822F47F42E169EA
:101FD00042EA01225A60FFF737FF814B9B68C3F347
:101FE0000313804AD35C03F01F03D8407E4B186074
:101FF0000020FEF761FF0346002840F0618223685D
:1020000013F0010F7AD0082D6FD00C2D6BD06368C0
:10201000B3F5803F00F09180B3F5A02F00F09380DE
:102020006F4B1A6822F480321A601A6822F48022F8
:102030001A606368002B00F09380FEF76FFF07467D
:10204000674B1B6813F4003F58D1FEF767FFC01BB6
:102050006428F5D9032333E2614BD3F894301B098C
:1020600003F0F0039EE75E4B1A6842F008021A6024
:102070001A6822F0F002216A0A431A605A6822F4B0
:102080007F42E16942EA01225A60206AFFF794FE2A
:102090000028A0D0012313E2514B1A6842F0080235
:1020A0001A601A6822F0F002216A0A431A605A681C
:1020B00022F47F42E16942EA01225A609FE7484ADE
:1020C000136823F001031360FEF728FF0746444B13
:1020D0001B6813F0020F92D0FEF720FFC01B0228EE
:1020E000F5D90323ECE1032E91D13D4B1B6813F48A
:1020F000003F03D06368002B00F0DD81236813F0FC
:10210000020F4FD0042D3CD00C2D38D0E368002BAB
:1021100075D0334A136843F480731360FEF7FEFEF4
:1021200006462F4B1B6813F4806F5FD1FEF7F6FE57
:10213000801B0228F5D90323C2E1294A136843F41E
:102140008033136075E703F18043A3F53C331A68CD
:1021500042F480221A601A6842F480321A6068E7FA
:10216000FEF7DCFE07461E4B1B6813F4003FC5D08C
:10217000FEF7D4FEC01B6428F5D90323A0E1022E8C
:10218000C4D1174B1B6813F4806F03D0E368002B96
:1021900000F09381124A536823F0FE43216943EA19
:1021A00001635360236813F0080F53D06369002B59
:1021B00039D00B4AD2F8943043F00103C2F894307E
:1021C000FEF7ACFE0646064BD3F8943013F0020F30
:1021D00040D1FEF7A3FE801B0228F4D903236FE150
:1021E00000100240D0740008D4030020B74A53689E
:1021F00023F0FE43216943EA01635360D2E7B34A07
:10220000136823F480731360FEF788FE0646AF4B15
:102210001B6813F4806FC5D0FEF780FE801B022878
:10222000F5D903234CE1A94AD2F8943023F00103F5
:10223000C2F89430FEF772FE0646A44BD3F89430F1
:1022400013F0020F06D0FEF769FE801B0228F4D9B6
:10225000032335E1236813F0040F7AD09B4B9B6D69
:1022600013F0805F0BD1994B9A6D42F080529A65C2
:102270009B6D03F080530193019B012600E0002633
:10228000934B1B6813F4807F26D0A368012B37D0B3
:10229000052B3DD08D4BD3F8902022F00102C3F8DE
:1022A0009020D3F8902022F00402C3F89020A36875
:1022B000002B3BD0FEF732FE0746844BD3F890301C
:1022C00013F0020F44D1FEF729FEC01B41F2883300
:1022D0009842F2D90323F3E07D4A136843F48073F4
:1022E0001360FEF71BFE0746794B1B6813F4807FD3
:1022F000CBD1FEF713FEC01B0228F5D90323DFE084
:10230000724AD2F8903043F00103C2F89030CEE721
:102310006E4BD3F8902042F00402C3F89020D3F81B
:10232000902042F00102C3F89020C0E7FEF7F6FDCE
:102330000746664BD3F8903013F0020F08D0FEF733
:10234000EDFDC01B41F288339842F2D90323B7E078
:10235000E6B9236813F0200F35D0636AE3B15B4A16
:10236000D2F8983043F00103C2F89830FEF7D6FD5A
:102370000646564BD3F8983013F0020F23D1FEF7E0
:10238000CDFD801B0228F4D9032399E04F4A936DB9
:1023900023F080539365DCE74C4AD2F8983023F061
:1023A0000103C2F89830FEF7B9FD0646474BD3F853
:1023B000983013F0020F06D0FEF7B0FD801B022804
:1023C000F4D903237CE0A36A002B78D00C2D7AD0BB
:1023D000022B23D03D4B1A6822F080721A601B68D2
:1023E00013F0006F04D1394AD36823F00303D3609C
:1023F000364AD36823F0887323F48033D360FEF722
:102400008DFD0446314B1B6813F0007F4AD0FEF768
:1024100085FD001B0228F5D9032351E02B4A1368E0
:1024200023F080731360FEF779FD0546274B1B6888
:1024300013F0007F06D0FEF771FD401B0228F5D98E
:1024400003233DE0236B5A1E636B1B0243EA021316
:10245000E26A1343E26B5208013A43EA4253226CA8
:102460005208013A43EA4263A26B43EAC263174A45
:10247000D360136843F080731360D36843F08073B4
:10248000D360FEF74BFD0446104B1B6813F0007F32
:1024900006D1FEF743FD001B0228F5D903230FE008
:1024A00000230DE000230BE00123184670470123B1
:1024B00006E0012304E0012302E0012300E0002301
:1024C000184603B0F0BD0123FAE700BF0010024038
:1024D00000700040002800F09A8070B504464E4B12
:1024E0001B6803F007038B420CD24B4A136823F09E
:1024F00007030B431360136803F007038B4201D0FB
:10250000012070BD0D46236813F0010F39D06368B8
:10251000032B09D0022B26D063BB404A126812F06D
:10252000020F06D10120ECE73C4A126812F0007F4E
:102530006FD03A498A6822F0030213438B60FEF79A
:10254000EDFC0646354B9B6803F00C036268B3EB69
:10255000820F16D0FEF7E2FC801B41F288339842CE
:10256000F0D90320CDE72D4A126812F4003FE0D1E4
:102570000120C6E7294A126812F4806FD9D10120E0
:10258000BFE7236813F0020F06D0244A936823F0B4
:10259000F003A1680B4393601F4B1B6803F0070314
:1025A000AB420CD91C4A136823F007032B4313607A
:1025B000136803F00703AB4201D00120A1E72368B1
:1025C00013F0040F06D0154A936823F4E063E16822
:1025D0000B439360236813F0080F07D00F4A9368EA
:1025E00023F46053216943EAC1039360FFF72CFC95
:1025F0000A4B9B68C3F30313094AD35C03F01F0320
:10260000D840084B18600020FEF756FC79E70120FF
:102610007047012075E700BF002002400010024013
:10262000D0740008D4030020014B1868704700BF25
:10263000D403002008B5FFF7F7FF054B9B68C3F3F1
:102640000223044AD35C03F01F03D84008BD00BF37
:1026500000100240E074000808B5FFF7E5FF054BE5
:102660009B68C3F3C223044AD35C03F01F03D84022
:1026700008BD00BF00100240E0740008F8B5594BD7
:10268000DB6813F0030F18D0564BDB6803F003032D
:102690000268934202D001252846F8BD002A00F0C6
:1026A0009F80504BDB68C3F30213013342689342AF
:1026B00001D00125F0E700251AE00368022B58D06D
:1026C000032B5DD0012B01D001250FE0454A126894
:1026D00012F0020F60D0434DEA6822F073024468A2
:1026E000013C43EA04131343EB600025002DD3D1D2
:1026F0000F4604463B4A136823F080631360FEF7DD
:102700000DFC0646374B1B6813F0006F05D0FEF733
:1027100005FC801B0228F5D90325002DBCD1002F14
:102720003CD130490B6923F0784323F4FE43A06881
:10273000E268D20642EA002213430B61294A136879
:1027400043F080631360FEF7E9FB0646254B1B68E8
:1027500013F0006F05D1FEF7E1FB801B0228F5D9CD
:102760000325002D98D11F4A1369A1690B431361FA
:1027700092E71C4A126812F4806FACD10125B5E7CC
:10278000184A126812F4003FA5D1164A126812F4D2
:10279000802FA0D10125A9E70125A7E7012F0FD0A0
:1027A0001048026922F0C06222F4FE42A168636907
:1027B0005B08013B5B0643EA012313430361BDE76A
:1027C0000848026922F4C00222F4FE42A16823698B
:1027D0005B08013B5B0543EA012313430361ADE75B
:1027E000012559E7001002402DE9F04182B004466E
:1027F000036813F4006F26D0C36CB3F5000F06D046
:10280000B3F5400F1DD09BB1012637461DE0BE4AEF
:10281000D36843F48033D3600027BB4AD2F88830B2
:1028200023F44003E16C0B43C2F8883000260CE02F
:1028300000210430FFF722FF07460028EDD00646AE
:1028400003E00027E9E700263746236813F4003F3A
:102850006BD0AD4B9B6D13F0805F4CD1AA4B9A6D42
:1028600042F080529A659B6D03F080530193019B67
:102870004FF00108A54A136843F480731360FEF714
:102880004DFB0546A14B1B6813F4807F05D1FEF775
:1028900045FB401B0228F5D90327002F40D19A4B56
:1028A000D3F8903013F4407315D0626E9A4212D070
:1028B000954AD2F8903023F44073D2F8901041F446
:1028C0008031C2F89010D2F8901021F48031C2F813
:1028D0009010C2F8903013F0010F0FD1002F40F08C
:1028E0001181894AD2F8903023F44073616E0B4312
:1028F000C2F8903015E04FF00008BBE7FEF70EFB82
:102900000546814BD3F8903013F0020FE6D1FEF765
:1029100005FB401B41F288339842F2D90327DDE7DB
:102920003E46B8F1000F40F0F380236813F0010F2A
:1029300008D0754AD2F8883023F00303216A0B438C
:10294000C2F88830236813F0020F08D06E4AD2F81C
:10295000883023F00C03616A0B43C2F88830236887
:1029600013F0040F08D0684AD2F8883023F03003FF
:10297000A16A0B43C2F88830236813F0080F08D00F
:10298000614AD2F8883023F0C003E16A0B43C2F8F1
:102990008830236813F0200F08D05B4AD2F88830C3
:1029A00023F44063216B0B43C2F88830236813F48F
:1029B000007F08D0544AD2F8883023F44023616C59
:1029C0000B43C2F88830236813F4806F08D04E4A56
:1029D000D2F8883023F44013A16C0B43C2F888303E
:1029E000236813F0400F08D0474AD2F8883023F408
:1029F0004053616B0B43C2F88830236813F0800F9B
:102A000008D0414AD2F8883023F44043A16B0B43ED
:102A1000C2F88830236813F4807F08D03A4AD2F88D
:102A2000883023F44033E16B0B43C2F888302368CD
:102A300013F4801F08D0344AD2F89C3023F00303EB
:102A4000216C0B43C2F89C30236813F4005F0FD055
:102A50002D4AD2F8883023F04063216D0B43C2F831
:102A60008830236DB3F1006F58D0B3F1806F5AD026
:102A7000236813F4002F0FD0234AD2F8883023F0B4
:102A80004063616D0B43C2F88830636DB3F1006F32
:102A900051D0B3F1806F53D0236813F4802F0FD03F
:102AA000194AD2F8883023F04063A16D0B43C2F875
:102AB0008830A36DB3F1006F4AD0B3F1806F4CD072
:102AC000236813F4804F0CD00F4AD2F8883023F0DB
:102AD0004053E16D0B43C2F88830E36DB3F1805F82
:102AE00043D0236813F4803F08D0074AD2F88830D7
:102AF00023F00043216E0B43C2F88830304602B009
:102B0000BDE8F0813E460CE7001002400070004036
:102B10001A4A936D23F08053936506E7D36843F414
:102B20008013D360A4E70121201DFFF7A7FD002833
:102B30009ED006469CE7D36843F48013D360ABE78E
:102B40000121201DFFF79AFD0028A5D00646A3E726
:102B5000D36843F48013D360B2E70121201DFFF74F
:102B60008DFD0028ACD00646AAE70221201DFFF704
:102B700085FD0028B5D00646B3E700BF001002402F
:102B80000268136823F0C0031360202380F87130BB
:102B900070470268136823F49073136002689368A7
:102BA00023F001039360202380F872300023036632
:102BB0007047000038B590F87250EDB2202D38D132
:102BC000002938D0002A38D090F87030012B36D048
:102BD00013460446012280F870204165A0F8583061
:102BE00000254567222280F87220C26E1549D16205
:102BF000C26E15491163C26E14495163C26E95636A
:102C00000168426D2431C06EFEF79AFA84F8705064
:102C10002268136843F4807313602268936843F05A
:102C2000010393602268936843F040039360284651
:102C300000E0022038BD0120FCE70120FAE7022075
:102C4000F8E700BF512C0008932C00089F2C0008C7
:102C500008B5836A0268126812F0200F14D10022AE
:102C6000A3F85A2019680A6822F480720A60196869
:102C70008A6822F001028A6019688A6822F040029C
:102C80008A60202283F87220184601F077FA08BD86
:102C9000704708B5806AFFF7FBFF08BD704710B5A5
:102CA000846A94F87130DBB2212B0CD094F8723026
:102CB000DBB2222B13D0636F43F01003636720460F
:102CC000FFF7ECFF10BD23689B6813F0800FEDD079
:102CD0000023A4F852302046FFF752FFE6E72368AE
:102CE0009B6813F0400FE6D00023A4F85A3020462A
:102CF000FFF74FFFDFE700002DE9F04804460168C9
:102D000083680269134342691343C2691343086825
:102D10009F4A024013430B602268536823F44053D8
:102D2000E1680B435360A16922689A4B9A4201D033
:102D3000236A1943936823F430630B439360236839
:102D4000954A934223D0954A934234D0944A934271
:102D50004AD0944A93425DD08E4A934270D0102557
:102D60008C4A934200F08F80E369B3F5004F00F086
:102D70000581082D00F2A281DFE815F062017801DB
:102D80008201A0018D01A001A001A001970102F51F
:102D90005842D2F8882002F00302032A09D8DFE85B
:102DA00002F0020468060125DAE70425D8E70825C1
:102DB000D6E71025D4E702F5E632D2F8882002F0F3
:102DC0000C020C2A0ED8DFE802F0070D0D0D090DDC
:102DD0000D0D560D0D0D0B000025C1E70425BFE7B5
:102DE0000825BDE71025BBE702F5E432D2F88820BC
:102DF00002F03002102A09D005D9202A3DD0302A0D
:102E000006D10825ACE71AB90025A9E70425A7E7EC
:102E10001025A5E702F5E232D2F8882002F0C002C0
:102E2000402A09D005D9802A29D0C02A06D10825F0
:102E300096E71AB9002593E7042591E710258FE757
:102E400002F5C832D2F8882002F44062B2F5806FF1
:102E50000BD007D9B2F5006F13D0B2F5406F06D191
:102E600008257DE71AB900257AE7042578E71025BB
:102E700076E7022574E7022572E7022570E702254E
:102E80006EE702256CE7082D00F21B81DFE815F0E4
:102E90000C0019011400190111001901190119017F
:102EA00009004FF4004008E0FFF7C4FB28B90020F8
:102EB000D7E0FEF7C9FFF9E73B48626802EB42033F
:102EC000834200F20081B0EB023F00F2FE80082D49
:102ED00051D8DFE805F005502050305050504300E5
:102EE000FFF7A8FB0025070E0602626850082B4674
:102EF00016EB000B47F1000C58466146FDF770F9E0
:102F000003462846A3F54071284A914200F2DF802B
:102F10002268D360A5E0560800252B46DFF890B064
:102F20004FF0000C1BEB06004CF10001FDF758F9C7
:102F300003462846E6E7FEF787FF0025070E060250
:102F4000626850082B4616EB000B47F1000C584600
:102F50006146FDF745F903462846D3E750080027A8
:102F600000252B4610F5000047F10001FDF738F968
:102F700003462846C6E701200023C3E7082D5CD896
:102F8000DFE805F018313C5B475B5B5B520000BF3C
:102F9000F369FFEF0080004000380140004400402A
:102FA00000480040004C00400024F400FFFC0F00EB
:102FB000000024F4FFF73EFB6268530803EB400374
:102FC000B3FBF2F39BB20020A3F110014FF6EF72B6
:102FD00091427ED89AB222F00F02C3F34203134308
:102FE0002268D3603DE0FFF737FB6268530803EBCC
:102FF0004003B3FBF2F39BB20020E5E7626853089D
:1030000003F1F47303F59043B3FBF2F39BB200209A
:10301000DAE7FEF719FF6268530803EB4003B3FBDE
:10302000F2F39BB20020CFE76268530803F58033C8
:10303000B3FBF2F39BB20020C6E701200023C3E7F5
:10304000FFF7F8FA636800EB5302B2FBF3F292B2B7
:103050000020A2F110014FF6EF7399423BD823688C
:10306000DA60002222666266BDE8F088FFF7F4FAB3
:10307000636800EB5302B2FBF3F292B20020E8E780
:1030800063685A0802F5740202F51052B2FBF3F2BB
:1030900092B20020DDE7FEF7D7FE636800EB530233
:1030A000B2FBF3F292B20020D3E763685A0802F54C
:1030B0000042B2FBF3F292B20020CAE701200022E4
:1030C000C7E70120CDE70120CBE70120C9E70120B8
:1030D000C7E70120C5E70120C3E700BF436A13F03B
:1030E000010F06D00268536823F40033816A0B4352
:1030F0005360436A13F0020F06D00268536823F44A
:103100008033C16A0B435360436A13F0040F06D047
:103110000268536823F48023016B0B435360436AB6
:1031200013F0080F06D00268536823F40043416B84
:103130000B435360436A13F0100F06D00268936884
:1031400023F48053816B0B439360436A13F0200F89
:1031500006D00268936823F40053C16B0B4393605D
:10316000436A13F0400F0AD00268536823F48013B7
:10317000016C0B435360036CB3F5801F0BD0436AA3
:1031800013F0800F06D00268536823F40023816C8B
:103190000B43536070470268536823F4C003416CCB
:1031A0000B435360EBE72DE9F04105460F46164609
:1031B0009846069C2B68DB6937EA03030CBF0123A2
:1031C0000023B3421DD1B4F1FF3FF3D02CB1FDF782
:1031D000A5FEA0EB0800A042ECD92A68136823F4EE
:1031E000D07313602A68936823F00103936020234F
:1031F00085F8713085F87230002385F8703003202F
:1032000000E00020BDE8F0812DE9F04182B01E46CB
:1032100090F87130DBB2202B4ED104460D4690461B
:1032200000294ED0002A4ED090F87030012B4CD09F
:10323000012380F8703000234367212380F8713028
:10324000FDF76CFE0746A4F85080A4F8528009E010
:1032500023682A781A850135B4F85230013B9BB2B5
:10326000A4F85230B4F852309BB2ABB100963B4652
:10327000002280212046FFF796FF40BBA368B3F5EC
:10328000805FE5D12369002BE2D1226835F8023B4B
:10329000C3F308031385DFE700963B460022402175
:1032A0002046FFF780FF034698B9202284F871205A
:1032B000002284F8702000E00223184602B0BDE826
:1032C000F0810123F9E70123F7E70223F5E7032360
:1032D000F3E70323F1E730B583B0044600234367E7
:1032E000FDF71CFE054623681B6813F0080F0ED17E
:1032F00023681B6813F0040F17D1202384F8713062
:1033000084F87230002084F8700003B030BD6FF094
:103310007E430093034600224FF400112046FFF73E
:1033200042FF0028E4D00320EFE76FF07E430093D4
:103330002B4600224FF480012046FFF734FF00287F
:10334000DBD00320E1E778B310B5044690F8713084
:103350000BB3242384F871302268136823F001032F
:1033600013602046FFF7C8FC012813D0636ABBB97D
:103370002268536823F4904353602268936823F0D3
:103380002A0393602268136843F001031360204608
:10339000FFF7A1FF10BD80F8703001F0CBF8D8E73F
:1033A0002046FFF79BFEE3E701207047034688B104
:1033B0008268D42A03D0D62A01D000207047DB6867
:1033C000382B03D03C2B03D00020704701207047DE
:1033D000012070470020704730B587B04468002C4A
:1033E00049D0054606AA052302F8013D0189642358
:1033F000029301230193009222222046FEF78AFACB
:10340000044600F05BFAB0B906AA0C2302F8013DAD
:103410006868A98964230293012301930092212201
:10342000FEF778FA054600F049FA0446A0B90120F3
:10343000FDF77AFD0DE0204600F040FA034640F229
:1034400071120E490E4801F00FFE204600F036FAC8
:103450000446204607B030BD284600F02FFA034648
:103460004FF4BB720549064801F0FEFD284600F006
:1034700025FA0446EDE70324EBE700BF7872000865
:10348000E874000810B586B08DF817304068F8B1C0
:1034900064230293012301930DF117040094FEF7B6
:1034A00039FA044600F00AFA034610B9184606B085
:1034B00010BD204600F002FA03464FF4A8720549F9
:1034C000054801F0D1FD204600F0F8F90346EDE78C
:1034D0000323EBE784720008E8740008406800B337
:1034E00010B584B01C466423029301230193009419
:1034F000FEF7E2FA044600F0E1F9034610B9184677
:1035000004B010BD204600F0D9F9034640F25F1226
:103510000549064801F0A8FD204600F0CFF9034612
:10352000EDE703231846704794720008E87400081A
:1035300038B5002800F09D800446FFF737FF10B92A
:103540000125284638BD2046FFF746FF05460028DE
:1035500050D138231E22217A2046FFF793FF0546DB
:1035600000284ED160231022217A2046FFF78AFFDF
:10357000054600284CD1C820FDF7D6FC38231F2271
:10358000217A2046FFF77EFF0546002847D16023B9
:103590002022217A2046FFF775FF0546002845D1F5
:1035A000C820FDF7C1FCF0232022217B2046FFF735
:1035B00069FF0546002840D100232122217B2046B7
:1035C000FFF760FF054600283ED100232222217B21
:1035D0002046FFF757FF054600283CD10823232249
:1035E000217B2046FFF74EFF054600283AD10123F4
:1035F0002370A6E7034640221F49204801F034FD0E
:103600009FE7034644221C491C4801F02DFD98E722
:10361000034648221849194801F026FD91E7034660
:103620004D221549154801F01FFD8AE70346522235
:103630001149124801F018FD83E7034665220E493F
:103640000E4801F011FD7CE7034668220A490B4849
:1036500001F00AFD75E703466B220749074801F0B0
:1036600003FD6EE703466E220349044801F0FCFCAB
:1036700067E7032565E700BFA0720008E87400084B
:1036800070B58AB004460D4607AA00230793089335
:1036900009930593ADF818300189642302930C2334
:1036A00001930092012318224068FEF705FA0646AE
:1036B00000F004F900283CD1A18964230293062379
:1036C000019305AB0093012328226068FEF7F4F90B
:1036D000064600F0F3F8034600283AD1002D35D015
:1036E000BDF81C20E18A521AEA80BDF81E20218B09
:1036F000521A2A81BDF82020618B521A6A81BDF8C6
:103700002220218A521A2A80BDF82420618A521A66
:103710006A80BDF82620A18A521AAA80BDF814201A
:103720005242AA81BDF91620EA81BDF918202A82E9
:103730000CE0304600F0C2F80346F5220C490D4873
:1037400001F092FC304600F0B9F8034618460AB082
:1037500070BD304600F0B2F80346F922044905482E
:1037600001F082FC304600F0A9F80346EEE700BF06
:10377000AC720008E874000830B583B000238DF8FF
:103780000730002845D004460278002A43D00DF1C6
:1037900007032022017AFFF7A1FE054608BB02AD10
:1037A00015F8011D1E4801F05FFC2B461022217AFE
:1037B0002046FFF793FE0546D8B902AD15F8011D66
:1037C000184801F051FC2B462022217B2046FFF7B0
:1037D00085FE0546A8B99DF80710134801F044FC82
:1037E0001AE0034640F21B121049114801F03CFC5C
:1037F00012E003464FF490720C490D4801F034FC7E
:103800000AE0034640F225120849094801F02CFC61
:1038100002E0032500E00225284603B030BD00BFCA
:10382000087500082075000834750008B872000893
:10383000E874000838B1054B5860FF221A72012263
:103840001A70002070470320704700BFC405002095
:1038500010B584B0012383408DF80F30082821D89B
:10386000134B1B7A834221D0114B58684FF47A7363
:10387000009301230DF10F02E021FDF78DFF0446B7
:1038800000F01CF8034670B1204600F017F803461C
:1038900033220849084801F0E7FB204600F00EF803
:1038A000034600E00123184604B010BD0023FAE7E8
:1038B000C4050020D0720008E874000810B100F5BB
:1038C0000050704700207047F0B5D9B04FF4B07287
:1038D0000021684600F064FFFDF720FB0546002448
:1038E0000F2C3CD82E4A342303FB0423187BFFF70C
:1038F000AFFF074618BB342303FB04F31033162134
:103900006A4601FB0421043125481844FFF7B8FE3C
:103910000746E8B9162303FB04F30DEB03024AF64E
:10392000CD312DF803101E49342303FB04F3C818CE
:10393000CB5C93704378D3700134E4B2D0E7034694
:10394000BC221849184801F08FFB384659B0F0BD29
:103950000346C0221349144801F086FBF5E74FF4F3
:10396000B071684600F0F4FB074688B9FDF7D6FA57
:10397000401B0E4B1D6805441D605A6801325A6099
:103980001B7A002BE1D00A4800F004FB0746DCE775
:103990000346DC220349044801F066FBD5E700BF7B
:1039A00000000020E0720008E8740008D005002044
:1039B0004003002000B59BB06422002101A800F064
:1039C000EFFE094B1A685B68B2FBF3F2074901A8E6
:1039D00001F0C6FB01A8FCF783FD014601A800F039
:1039E000B7FB1BB05DF804FBD0050020487500084C
:1039F000F8B5002840D0074600260EE003467522A1
:103A00001E491F4801F030FB2046F8BD79221B49B2
:103A10001B4801F029FB24E001360F2E2AD8194C4F
:103A2000342303FB06F303F1100525441C446168AD
:103A3000490041F0D401A161A268920042F038022D
:103A4000E261114801F010FB6761207BFFF700FF86
:103A500004460028D2D12846FFF76AFD0346002815
:103A6000D4D12846FFF788FE0028D5D0074801F0BA
:103A70006FFBD1E70024C7E70324C5E7F87200080D
:103A8000E8740008000000206C75000888750008C4
:103A900010B5094B01221A72084800F07BFA04465F
:103AA00018B900F0B9FA204610BD03468B2204492C
:103AB000044801F0D9FAF6E7D005002040030020C1
:103AC00004730008E874000810B5084B00221A724D
:103AD000074800F07BFA044608B9204610BD0346AB
:103AE00098220449044801F0BFFAF6E7D005002007
:103AF0004003002020730008E8740008002070478D
:103B0000024A13680133136000207047DC0500206F
:103B100010B58AB00024059406940794089409947B
:103B2000234BDA6C42F00402DA64DA6C02F004022D
:103B30000192019ADA6C42F08002DA64DA6C02F0E7
:103B400080020292029ADA6C42F00102DA64DA6CC4
:103B500002F001020392039ADA6C42F00202DA6484
:103B6000DB6C03F002030493049B224620214FF0F8
:103B70009040FDF74DFC012240214FF09040FDF7B1
:103B800047FC4FF4005305930A4B0693079405A98D
:103B90000948FDF773FB60230593012306930794FF
:103BA000089405A94FF09040FDF768FB0AB010BDDE
:103BB00000100240000021100008004800B583B04A
:103BC0000E4B9A6C42F001029A649B6C03F0010365
:103BD0000193019B002211461020FDF7C7F9102028
:103BE000FDF7F8F9002211461120FDF7BFF9112069
:103BF000FDF7F0F903B05DF804FB00BF00100240D0
:103C000038B50D4C0D4B23600D4B63600025A5604E
:103C10000123E36025616561A561E56125622046B8
:103C2000FDF75CFD29462046FEF71CF82946204694
:103C3000FEF746F838BD00BFEC06002000540040F7
:103C40009129700008B50B480B4B03604FF4E1332A
:103C5000436000238360C36003610C22426183617F
:103C6000C3610362082343624FF400434363FFF7D9
:103C70006AFB08BD800700200044004010B5B0B0CA
:103C80002422002120A800F08BFD00241A941B940C
:103C90001C941D941E9468222146684600F080FD05
:103CA00002231F934FF48072229240222392299381
:103CB0002A9301222B920A222C9207222D922E93D4
:103CC0002F931FA8FEF72CF90F231A9303231B939E
:103CD0001C941D941E9404211AA8FEF7FBFB42239A
:103CE000009309940D946846FEF77EFD4FF4007032
:103CF000FEF71AF830B010BD08B5FDF7F7F8FFF77A
:103D0000BDFFFFF705FFFFF759FFFFF779FFFFF74B
:103D100099FFC820FDF708F91C4801F019FA1C4862
:103D200000F006FAE8B91B48FFF784FD0146E8B940
:103D30001848FFF75DFE0146E0B900F05BFAE8B90C
:103D400000F00EF9F0B9144801F002FAC820FDF7AE
:103D5000EBF8124B00221A7000F05CFA00F064F9E4
:103D6000FAE701460E4801F07FF9DCE70D4801F063
:103D70007BF9DDE70C4801F077F9DEE70B4801F04D
:103D8000E7F9DDE70A4801F0E3F9DCE7B47500087C
:103D900080070020EC0600206C760008500300200D
:103DA000C8750008F4750008187600083876000811
:103DB00054760008013801280BD808B5064B1B784B
:103DC0000BB9002008BD642392B20448FFF71CFA27
:103DD000F8E74FF0FF3070475003002080070020C5
:103DE0007047024680B14B1EDBB21F2B0ED800205D
:103DF00082F8800082F8810082F8830082F88210C5
:103E0000012382F8843070470320704701207047F7
:103E100000283FD0024600293ED090F88430002B85
:103E20003CD070B582B090F8830050B192F98130E7
:103E3000013392F8825093FBF5F405FB143382F8BA
:103E4000813092F9813042F8231018B192F9804004
:103E5000A34215D092F88240A04202D2013082F8EB
:103E60008300104692F9802090F883000968019140
:103E700000900B490B4801F0F7F8002002B070BD2C
:103E8000013492F8826094FBF6F506FB154482F843
:103E90008040DFE70320704703207047022070470F
:103EA000387300089477000830B583B070B10346CA
:103EB00090F884208AB190F88320AAB190F98010FC
:103EC00050F82140013A80F883200EE04E2220492C
:103ED000204801F0C9F8002429E054221C491E485A
:103EE00001F0C2F8002422E0002493F8831051B1BD
:103EF00093F98020013293F8825092FBF5F005FB94
:103F0000102283F88020012905D993F9800093F9C4
:103F1000812090420ED093F9802093F981309CB19A
:103F20002068019000910A490C4801F09DF8204654
:103F300003B030BD013293F8825092FBF5F005FBDF
:103F4000102283F88120E6E740F2E730E9E700BF7E
:103F500048730008C0770008D8770008F477000895
:103F600010B520210848FFF73CFF044628B9064B4E
:103F7000012283F88820204610BD03461F220349F2
:103F8000034801F071F8F6E7E005002058730008D7
:103F9000E874000810B50A4B93F8883063B1014605
:103FA0000748FFF735FF044638B103462C22054980
:103FB000054801F059F800E00224204610BD00BF7A
:103FC000E005002068730008E8740008F8B50546AD
:103FD0000E4B93F88360002400E00134B44212D207
:103FE0000A48FFF761FF8542F7D029460748FFF7E7
:103FF0000FFF07460028F0D0034641220449054838
:1040000001F032F800E000273846F8BDE005002056
:104010007C730008E8740008024B002283F88C20AF
:10402000704700BFE005002070B5254B93F88C3039
:1040300033B9234B93F88830BBB1002634461EE0D9
:10404000FCF76CFF1E4BD3F89030C01AB0F5FA7F26
:10405000EFD91B4C94F883201A491B4801F004F84F
:10406000FCF75CFFC4F89000E3E7022626E0334645
:1040700065221449154800F0F7FF1FE00134104B8A
:1040800093F88330A34218D90D48FFF70DFF05467A
:10409000002EECD10028F1D00368002BEED00949A6
:1040A0000B4800F0E1FF2B68984706460028E5D052
:1040B0006968084800F0D8FFE0E70026304670BD88
:1040C000E00500209473000820780008E8740008D8
:1040D000287800083078000838B50B4B1B7873B18E
:1040E00078B10D4604460948FFF754FFAAB22146AD
:1040F000054B5868FEF75EFDFFF7E0FB38BD022078
:10410000FCE70320FAE700BF7406002064030020E8
:1041100008B504210148FFF7DFFF08BD8406002031
:1041200008B5024801F014F8002008BD44780008E2
:1041300050B108B5034605484360012300F8103B21
:104140000421FFF7C9FF08BD032070477406002053
:1041500008B5094B1B785BB160B10A460146642380
:1041600092B205484068FFF74FF8FFF7A7FB08BD7C
:104170000220FCE70320FAE77406002000B583B0B4
:1041800000230193154B5B68834202D003B05DF8B6
:1041900004FB04221249134801F002F868B104221A
:1041A0001149104800F0FCFF98B104220F490D4856
:1041B00000F0F6FF78B1042000E00120074B1B69F6
:1041C00002A941F8043D00F067F80948FFF7E2FE54
:1041D000DCE70220F2E70320F0E700BF74060020CE
:1041E0005C78000884060020647800086C78000879
:1041F0006C03002010B5054C01236371044B236050
:104200005B68984704232371002010BD88060020B6
:104210007403002038B51C4B5B79002B2DD01A4B52
:10422000187904282BD01C461B68DB6898470423A8
:1042300023710446B8B1144D2B68227819781348BD
:1042400000F012FF21782B681A78914219D09B68F0
:10425000984700B10E4C0C4B1C60636898470246AF
:1042600018B9104638BD0A4CE5E7074B1B681978AA
:10427000084800F0F9FE0022F3E70222F1E70022ED
:10428000EFE70022EDE700BF880600208C780008E9
:1042900084030020B0780008044B5B791BB1034B0A
:1042A0001871002070470220704700BF8806002068
:1042B00008B50349034800F0D7FE002008BD00BF41
:1042C000A47300082878000808B50349034800F0E3
:1042D000CBFE002008BD00BFB4730008287800089A
:1042E00008B50349034800F0BFFE002008BD00BF29
:1042F000C47300082878000808B50349034800F093
:10430000B3FE002008BD00BFD47300082878000861
:1043100008B50349034800F0A7FE002008BD00BF10
:10432000E47300082878000808B50349034800F042
:104330009BFE002008BD00BFFC7300082878000821
:1043400010B5044609490A4800F08EFE012C03D03E
:10435000032C06D0074810BD074800F0F9FE0748B7
:10436000F9E7074800F0F4FE0648F4E71474000883
:1043700028780008B4030020EC780008940300209B
:1043800000790008A403002010B5044609490A4832
:1043900000F06AFE012C03D0032C06D0074810BDA4
:1043A000074800F0D5FE0748F9E7074800F0D0FEBF
:1043B0000648F4E72874000828780008C4030020A1
:1043C000EC7800089403002000790008A403002082
:1043D00010B504460849094800F046FE022C03D0F7
:1043E000032C06D0064810BD064800F0B1FE064872
:1043F000F9E70648F7E700BF3C7400082878000892
:10440000940300200C790008B4030020A4030020CA
:1044100010B504460649074800F026FE022C01D0DC
:10442000054810BD054800F093FE0548F9E700BFB8
:104430005874000828780008940300200C790008BC
:10444000B403002008B50349034800F00DFEFFF750
:104450001FFB08BD707400082878000810B50A49D1
:104460000A4800F001FEFFF72FFB044620B9084878
:10447000FFF790FD204610BD034673220249054810
:1044800000F0F2FDF6E700BF887400082878000805
:1044900048030020E874000882B00A4B1A6E42F00C
:1044A00001021A661A6E02F001020092009A9A6DD9
:1044B00042F080529A659B6D03F080530193019BFB
:1044C00002B070470010024010B588B0002303937B
:1044D00004930593069307930268144B9A4201D004
:1044E00008B010BD124CE36C43F00103E364E36CCD
:1044F00003F001030193019B4FF4C0630393122364
:10450000049301230593032306930423079303A92C
:104510004FF09040FCF7B2FEA36D43F40013A36587
:10452000A36D03F400130293029BD9E700540040EB
:104530000010024030B589B0002303930493059323
:104540000693079302682B4B9A4201D009B030BD05
:10455000044603F5E6339A6D42F400329A659A6D8B
:1045600002F400320192019ADA6C42F00102DA643C
:10457000DB6C03F001030293029B0C2303930225DF
:104580000495032306930723079303A94FF0904054
:10459000FCF774FE1848194B0360456000238360E4
:1045A000C3608022026143618361C3610362FCF7DF
:1045B0004BFDC0B9104BE3669C621148114B036080
:1045C00002234360102383600023C36080220261C2
:1045D00043618361C3610362FCF736FD30B9084B68
:1045E000A3669C62B2E7FFF7FBFBE3E7FFF7F8FB8C
:1045F000F5E700BF00440040A40600206C00024024
:1046000038070020800002407047FEE7FEE7FEE723
:10461000FEE770477047704708B5FCF777FC08BDA8
:1046200008B50248FCF7C7FD08BD00BFA40600207E
:1046300008B50248FCF7BFFD08BD00BF38070020E1
:1046400070B50D461646002404E0AFF300802870D4
:1046500001340135B442F8DB304670BD08B503467D
:104660000B4A126842B10A4A106803446A469342F0
:1046700006D8074A136008BD054A06491160F2E7EB
:1046800000F064F80C2303604FF0FF30F3E700BF45
:1046900090060020000800204FF0FF3070474FF4D4
:1046A00000534B6000207047012070470020704786
:1046B0000F49D1F8883043F47003C1F888300D4BAE
:1046C0001A6842F001021A60002098601A6822F00D
:1046D000A85222F410221A604FF48052DA601A684D
:1046E00022F480221A6098614FF000638B6070475B
:1046F00000ED00E000100240DFF834D0002103E0BC
:104700000C4B5B58435004310B480C4B42189A42F7
:10471000F6D30B4A02E0002342F8043B094B9A42CD
:10472000F9D3FFF7C5FF00F017F8FFF7E5FAFEE74A
:1047300000800220F87B000800000020A80500206F
:10474000A8050020FC070020FEE70000014B1868C8
:10475000704700BFD803002070B50D4E0D4CA41B50
:10476000A4100025A54209D10B4E0C4C02F078FD97
:10477000A41BA4100025A54205D170BD56F8253014
:1047800098470135EEE756F8253098470135F2E7AE
:10479000E87B0008E87B0008E87B0008EC7B000869
:1047A00002440346934200D1704703F8011BF9E726
:1047B0002DE9FF4755EC104B0D9FDDF830A0002D83
:1047C0000E4691461946B8BF22462B4627F02007D1
:1047D000BBBF05F100431D4600232D23B8BF14467F
:1047E000462F0B7004D0452F00D10136022100E086
:1047F000032103AB019302AB00933246534645ECD1
:10480000104B00F02DFE472F804602D119F0010F0A
:1048100026D0462F08EB060911D198F80030302B2E
:104820000AD10022002320462946FCF7D5FA18B900
:10483000C6F10106CAF80060DAF800309944002297
:10484000002320462946FCF7C7FA38B93022039BDB
:104850004B4505D2591C03911A70F8E7CDF80C901E
:10486000039B0E9AA3EB08034046136004B0BDE817
:10487000F087F7B500290446BABF49422D232B2300
:10488000092904F8022B437020DD0DF107031F46B0
:104890000A2691FBF6F506FB15113031092D03F8B8
:1048A000011C03F1FF32294609DC3031023B02F8DA
:1048B000011CBB42224604D3101A03B0F0BD1346BC
:1048C000E7E713F8012B04F8012BF2E73023194432
:1048D0008370021DC170EFE72DE9F04F8DB00C46DB
:1048E000DDF8588016461F46054601F0EBFC0368CC
:1048F00004931846FBF7F4FD00230A93D8F8003020
:104900000590073323F0070303F1080294F818A079
:10491000D4F800B0C8F80020D3E90023C4E912237A
:10492000D4E9128929F000430793CDF818804FF09D
:10493000FF32A74BDDE90601FCF780FA70BB4FF0B0
:10494000FF32A34BDDE90601FCF75AFA30BB002227
:10495000002340464946FCF749FA10B12D2384F85C
:1049600043309C4A9C4BBAF1470F8CBF9046984607
:1049700003232BF00402236122604FF0000900970B
:1049800033460BAA2146284600F0E6F9013040F0F4
:104990008D804FF0FF300DB0BDE8F08F42464B46A2
:1049A00040464946FCF74AFA10B18C4A8C4BDAE78C
:1049B00061684B1C4BF480620AA83ED106236360F9
:1049C0000023CDE9020309AB009349EC108B0DF1F4
:1049D00023032260CDF804A061682846FFF7E8FEB3
:1049E0000AF0DF03472B804609D1099BD81C02DB64
:1049F0006268934247DDAAF1020A5FFA8AFABAF1C5
:104A0000650F099924D80139524604F150000991E3
:104A1000FFF72FFF0A9A1318012A8146236102DC4F
:104A20002268D10701D5013323619DF82330002B83
:104A3000A5D02D2384F84330A1E7BAF1670F00F029
:104A40007781BAF1470FBBD10029B9D10123B6E76D
:104A5000BAF1660F19D1002963680CDD216113B921
:104A60002268D20702D501330B442361099BA36559
:104A70004FF00009D9E713B92268D00701D50233F6
:104A8000F3E70123F1E74FF0670ADDE909329342CA
:104A900005DB22682361D107E8D50133E5E7002B68
:104AA000D4BFC3F1020301231344DEE723685A0590
:104AB00007D42369424631462846B84701302BD1F6
:104AC00067E7BAF1650F40F2DC8000220023D4E9E9
:104AD0001201FCF781F9002833D00123414A314605
:104AE0002846B84701303FF454AFDDE909239A4224
:104AF00002DB2368D8070FD5DDE9042331462846B9
:104B0000B84701303FF445AF4FF0000804F11A09EF
:104B10000A9B013B434509DC23689B0700F10381A5
:104B2000E0680B9B9842B8BF184634E701234A4619
:104B300031462846B84701303FF42BAF08F1010851
:104B4000E6E7099B002B2BDC0123264A3146284649
:104B5000B84701303FF41DAF099B23B90A9B13B935
:104B60002368D907D8D5DDE9042331462846B8475C
:104B700001303FF40EAF4FF0000904F11A0A099B0F
:104B80005B424B4501DC0A9B94E7012352463146C8
:104B90002846B84701303FF4FCAE09F10109EEE7C1
:104BA0000A9AA36D9A42A8BF1A46002A914607DDC9
:104BB0001346314642462846B84701303FF4E9AE35
:104BC00004F11A034FF0000B29EAE979069315E086
:104BD000FFFFEF7F2879000824790008307900086A
:104BE0002C790008347900080123069A31462846BA
:104BF000B84701303FF4CDAE0BF1010BD4F858A00B
:104C0000AAEB09035B45EFDCDDE909239A42D044B6
:104C100015DB2368DA0712D40A9B0999A3EB0A0271
:104C2000A3EB010A9245A8BF9246BAF1000F0EDC31
:104C30004FF000082AEAEA7A04F11A0919E0DDE9DE
:104C4000042331462846B8470130E5D1A1E6534652
:104C5000424631462846B8470130E9D199E601235A
:104C60004A4631462846B84701303FF492AE08F133
:104C70000108DDE909239B1AA3EB0A034345EEDC97
:104C80004AE70A9A012A01DCDB073AD501234246AA
:104C900031462846B84701303FF47BAEDDE90423B6
:104CA00031462846B847013008F101083FF471AE9B
:104CB0000A9B002203F1FF3AD4E912010023FCF71A
:104CC0008BF8C8B95346424631462846B8470130AA
:104CD0000ED15EE60123524631462846B8470130E0
:104CE0003FF457AE08F101080A9B013B4345F1DC54
:104CF0004B4604F15002DEE64FF0000804F11A0AB8
:104D0000F2E70123DFE701234A4631462846B84748
:104D100001303FF43EAE08F10108E3680B9A9B1A9C
:104D20004345F0DCFCE64FF0000804F11909F4E714
:104D300000293FF48BAE0023CDE9020309AB0093B9
:104D400049EC108B2260CDF804A00DF12303284616
:104D5000FFF72EFD804648E62DE9F04791461F46B5
:104D60008A680B69DDF820809342B8BF1346C9F802
:104D7000003091F8432006460C4612B10133C9F8C1
:104D800000302368990642BFD9F800300233C9F8D1
:104D90000030256815F0060507D104F1190AE3680B
:104DA000D9F800209B1AAB4228DC94F843302268E3
:104DB000003318BF012392062DD404F14302394673
:104DC0003046C047013020D02368E568D9F800207C
:104DD00003F00603042B08BFAD1AA36822690CBFB9
:104DE00025EAE57500259342C4BF9B1AED184FF0E4
:104DF00000091A344D451AD1002008E0012352461B
:104E000039463046C047013003D14FF0FF30BDE88E
:104E1000F0870135C3E7E1185A1C302081F84300C0
:104E2000224494F8451082F843100233C5E7012369
:104E3000224639463046C0470130E6D009F1010923
:104E4000D8E700002DE9F04301F1430C0C46097E40
:104E500085B06E291746064698460C9A00F0B38036
:104E600022D8632936D00AD8002900F0B980582901
:104E700000F0838004F1420584F8421032E0642996
:104E800001D06929F6D120681368050603F10401F1
:104E90002AD51B681160002B03DA2D225B4284F8AF
:104EA00043206F480A2239E0732900F09D8008D81A
:104EB0006F2920D07029DDD1236843F020032360BF
:104EC00003E0752917D07829D4D1782384F84530A8
:104ED000644855E01368191D1B68116004F1420510
:104EE00084F8423001238CE01B68116010F0400F01
:104EF00018BF1BB2CFE713682568181D106028067D
:104F000001D51B6802E06806FBD51B8854486F2951
:104F100014BF0A220822002184F843106568A560A6
:104F2000002DC0F29580216821F004012160002B42
:104F30003DD1002D40F08E806546082A0BD12368B4
:104F4000DB0708D5236962689A42DEBF302305F883
:104F5000013C05F1FF35ACEB05032361CDF8008082
:104F60003B4603AA21463046FFF7F6FE01304DD1FD
:104F70004FF0FF3005B0BDE8F083394884F84510A4
:104F8000136821681D1D1B6815600A060BD5CA072A
:104F900044BF41F0200121601BB9226822F02002A9
:104FA00022601022B7E74D0648BF9BB2EFE7654687
:104FB000B3FBF2F102FB1133C35C05F8013D0B4674
:104FC0000029F5D1B9E7136825686169181D1060DB
:104FD00028061B6801D5196002E06A06FBD5198016
:104FE000002323616546B9E71368191D11601D6828
:104FF000626800212846FBF77BFA08B1401B60601D
:1050000063682361002384F84330A7E723692A46B5
:1050100039463046C0470130AAD023689B0713D4D5
:10502000E068039B9842B8BF1846A3E701234A46AD
:1050300039463046C04701309AD00135E368039ABB
:105040009B1AAB42F2DCEBE7002504F11909F5E706
:10505000002BACD1037884F8423004F142056CE7B0
:1050600036790008477900080FB40A4B13B51C685D
:1050700024B1A36913B9204601F09AF805AB049A4C
:10508000A1680193204601F0AFFE02B0BDE81040D8
:1050900004B07047D803002070B50E46054618B11D
:1050A00083690BB901F084F8AB69AC6813B9284681
:1050B00001F07EF8234B9C4217D16C68A3891B0733
:1050C0001DD52369DBB1013EA36816F8011F013B22
:1050D000A360E9B9002B2EDA22460A21284600F007
:1050E00071F8013011D00A2011E0174B9C4201D118
:1050F000AC68E3E7154B9C4208BFEC68DEE721464D
:10510000284600F0B1F80028DDD04FF0FF3070BD28
:10511000002B04DAA2699A4206DC0A2904D023682B
:105120005A1C22601970CFE72246284600F04AF840
:105130000130C9D1E9E723680A205A1C226018709F
:10514000E5E700BF88790008A879000868790008B9
:10515000024B01461868FFF79FBF00BFD80300202D
:105160000EB400B59CB01DAB029006906FF00041EC
:10517000094807910491094953F8042B05910068E7
:10518000019302A901F00EFD029B00221A701CB0CF
:105190005DF804EB03B07047D80300200802FFFF5E
:1051A00010B56AB10139841810F8013B11F8012FCC
:1051B000934203D1A04201D0002BF5D1981A10BD23
:1051C0001046FCE7F8B50E461446054618B183694B
:1051D0000BB900F0EDFF214B9C422AD16C68A3690A
:1051E000A360A3891A072ED5236963B323692068B6
:1051F000C01A6369F6B28342374604DC214628466A
:1052000000F06CFF28BBA368013BA36023685A1C15
:1052100022601E7063690130834204D0A389DB07DA
:1052200019D50A2E17D12146284600F057FF90B114
:105230000FE00B4B9C4201D1AC68D0E7094B9C427C
:1052400008BFEC68CBE72146284600F00DF800289F
:10525000CCD04FF0FF373846F8BD00BF8879000842
:10526000A879000868790008324B70B51D680646B9
:105270000C4625B1AB6913B9284600F099FF2E4BB7
:105280009C420FD16C68B4F90C309AB215072CD43B
:10529000D00611D40922326043F04003A3814FF0BD
:1052A000FF303EE0254B9C4201D1AC68EBE7244B3C
:1052B0009C4208BFEC68E6E7510712D5616B41B12B
:1052C00004F14403994202D0304601F069FB002307
:1052D0006363A38923F02403A3810023636023690C
:1052E0002360A38943F00803A38123694BB9A389F1
:1052F00003F42073B3F5007F03D02146304601F05C
:1053000013F8A28912F001030CD00023A360636993
:105310005B42A361236953B9B4F90C3013F08000E8
:10532000BAD170BD920758BF6369A360F2E700204D
:10533000F7E700BFD803002088790008A8790008A3
:10534000687900082DE9F74F03690C69A34280468C
:10535000C0F28280013C01F114074FEA840C00F195
:10536000140657F8245056F8240006EB0C030135B8
:1053700007EB0C090193B0FBF5F595B34FF0000A6C
:105380003846B646D34650F8042B93B205FB03A328
:105390004FEA134A9BB2ABEB0303120CDEF800B0EA
:1053A00005FB02A213FA8BF34FEA124A1FFA82FBA3
:1053B000DEF80020CBEB124202EB23429BB243EA21
:1053C000024381454FEA224B4EF8043BDBD256F8AC
:1053D0000C3033B9019B043B9E421A4630D3C8F8C7
:1053E0001040404601F008FA002825DB0135304620
:1053F0004FF0000C57F8042BD0F800E093B2ACEB60
:105400000303120C13FA8EF3C2EB1E4202EB23428B
:105410009BB243EA0243B9454FEA224C40F8043BB1
:10542000E8D256F8242006EB84032AB9043B9E42B6
:105430001A460BD3C8F81040284603B0BDE8F08FD9
:105440001268043B002ACAD1013CC5E71268043B3C
:10545000002AEFD1013CEAE70020EEE7000000005F
:105460002DE9F04F57EC106B97B0456A0691044652
:105470000B921293DDF88080CDE900673DB91020D2
:1054800000F092FF6062C0E901550560C560636A83
:10549000196851B15A684A60012393408B602046D5
:1054A00000F0C9FF636A00221A603B1EBBBF23F0F5
:1054B0000043019300230122ACBFC8F80030C8F8B4
:1054C0000020AF4BDDF8048033EA080314D1129AB0
:1054D00042F20F731360009B23B9C8F31300002836
:1054E00000F04285219BDFF8ACB2002B00F0448530
:1054F0000BF1030300F03EBDDDE90067002200234D
:1055000030463946FBF768FC814668B1129A0123A0
:105510001360219B002B00F024859A4B219A03F104
:10552000FF3B136000F028BD14AA15A947EC106BCF
:10553000204601F0D8F9C8F30A550490002D7CD01C
:10554000C7F3130343F07F5BB2464BF4401BA5F255
:10555000FF35CDF84C9000228B4B50465946FBF757
:105560001BF881A3D3E90023FBF7CEF980A3D3E98D
:105570000023FBF713F8064628460F46FBF75AF9B7
:105580007DA3D3E90023FBF7BFF902460B46304663
:105590003946FBF703F806460F46FBF765FC002289
:1055A0008246002330463946FBF720FC48B150467E
:1055B000FBF740F932463B46FBF70EFC08B90AF10F
:1055C000FF3ABAF1160F59D8704901EBCA01DDE96B
:1055D0000023D1E90001FBF727FC002850D00AF195
:1055E000FF3A00230F93149B5D1BB5F1010849BFDF
:1055F000C5F10103002305934FF0000858BF059340
:10560000BAF1000F3EDB0023D044CDF838A0079359
:10561000069B092B00F29080052BC4BF043B069328
:10562000069BA3F10203CCBF00250125032B00F24A
:105630008F80DFE803F07D7F3171DDE914531D4475
:1056400005F23240202813DDC0F14000009B08FA2B
:1056500000F805F2124023FA00F048EA0000FBF7D8
:10566000D9F801238246A1F1F87B013D139372E73B
:10567000009BC0F1200003FA00F0F0E70123B1E73E
:105680000F90B0E7059BA3EB0A030593CAF1000353
:10569000079300230E93BBE701230A930B9B002B78
:1056A00059DD02939946666A00227260042202F173
:1056B00014009842716853D9204600F088FE636A4E
:1056C0003060B9F10E0FD3F800B000F2E680002D83
:1056D00000F0E3809DED007BBAF1000F8DED107BB3
:1056E00074DD2A4A0AF00F0302EBC30393ED007B3B
:1056F0004FEA2A16F0068DED087B65D5244BDDE9CF
:105700001001D3E90823FBF729FACDE9000106F0DF
:105710000F0603251E4F4CE001230A930B9B5344B5
:1057200003F1010902934B46012BB8BF0123BAE7ED
:105730000023B2E70023F0E70125002306930A9532
:105740004FF0FF3302939946002212230B92AAE7EF
:1057500001230A93F4E70123029399461A46F5E7D9
:10576000013171605200A2E761436F63A787D23FA6
:10577000B3C8608B288AC63FFB799F501344D33F40
:105780000000F07F357900080000F83FF07900084C
:10579000C879000861790008F10708D5DDE908013A
:1057A000D7E90023FBF7B0F8CDE908010135761001
:1057B0000837002EF0D1DDE90823DDE90001FBF711
:1057C000CDF9CDE900011AE00225A3E700F0A080A1
:1057D000CAF100069F4BA04F06F00F0203EBC20375
:1057E000D3E90023DDE91001FBF78EF8CDE90001D4
:1057F000361100230225002E7FD1002BE1D10F9B13
:10580000002B00F08780DDE900670022934B3046D3
:105810003946FBF7EBFA00287CD0B9F1000F79D0BC
:10582000029B002B35DD0AF1FF3308933946002235
:105830008B4B3046FBF768F8CDE90001029F01353C
:105840002846FAF7F7FFDDE90023FBF75DF80022B1
:10585000844BFAF7A3FE0546A1F15076002F5DD1E7
:105860000022814BDDE90001FAF796FE2A46334615
:10587000CDE90001FBF7D8FA002840F088822A46DB
:1058800006F10043DDE90001FBF7B0FA002840F023
:105890007C82DDE91023CDE90023159B002BC0F2AB
:1058A0005081BAF10E0F00F34C816A4B03EBCA032F
:1058B00093ED007B0B9B002B8DED027B80F2D8805B
:1058C000B9F1000F00F3D48040F05E820022664BF5
:1058D00051EC170BFBF718F8DDE90023FBF79AFAF8
:1058E0004F464E46002840F0348231230BF101052B
:1058F0008BF800300AF1010A2FE2F20705D5D7E94B
:105900000023FBF701F8013501237610083772E711
:10591000022574E7CDF820A04F4691E74D4B03EBED
:10592000C70353E902010A9B002B47D002460B46EE
:1059300000204E49FBF712F92A463346FAF72CFEAF
:10594000CDE90C015D46DDE90001FBF78DFA064665
:10595000FAF770FF02460B46DDE90001FAF71CFE7C
:10596000303605F8016BDDE90C23CDE90001FBF7CA
:105970003DFA002863D1DDE9002300203749FAF71A
:105980000BFEDDE90C23FBF731FA002840F0B7806D
:10599000A5EB0B039F427FF77CAF0022304BDDE984
:1059A0000C01FAF7B1FF0022CDE90C012C4BDDE927
:1059B0000001FAF7A9FFCDE90001C4E72A46334602
:1059C000FAF7A2FFCDE90C010BEB07055E46DDE916
:1059D0000001FBF749FA0746FAF72CFF3037024679
:1059E0000B46DDE90001FAF7D7FD06F8017BAE4270
:1059F000CDE900014FF0000226D11C4BDDE90C017E
:105A0000FAF7CCFD02460B46DDE90001FBF70CFA84
:105A1000002874D1DDE90C2300201449FAF7BCFDFD
:105A200002460B46DDE90001FBF7E0F900283FF4F0
:105A300030AF15F8013C302B05F1FF3202D0DDF814
:105A400020A04AE01546F4E7054BFAF75DFFCDE9E3
:105A50000001BCE7F0790008C87900080000F03FB9
:105A60000000244000001C40000014400000E03F03
:105A7000DDE900675D46DDE9022330463946FBF784
:105A80006DF8FBF7F1F98046FAF7D4FEDDE9022361
:105A9000FAF73AFF02460B463046394608F130061F
:105AA000FAF77AFD05F8016BA5EB0B06B145024646
:105AB0000B4639D1FAF772FDDDE9022306460F469F
:105AC000FBF7B2F9C8B9DDE9022330463946FBF7E6
:105AD00083F910B118F0010F0FD10499204600F09E
